:04000000EFEF09F025
:100F0000004A6F686E6E792056302E3030303030A7
:100F1000310053696E676820426500000F010F01C0
:100F200048690F010F01496995909592959495969E
:100F300094908B9094928B923B0E106E700EE82ED4
:100F4000FED7102EFCD78B90030E39EC09F0000E63
:100F5000126E000E116E1250800A800F640ED8B40B
:100F6000115CD8B006D0290EE82EFED7114A122AFD
:100F7000F2D7030E39EC09F0000E146E000E136E5A
:100F80001450800A800F0A0ED8B4135CD8B006D073
:100F90000C0EE82EFED7134A142AF2D7030E39ECB2
:100FA00009F0000E166E000E156E1650800A800FA6
:100FB0000A0ED8B4155CD8B006D00C0EE82EFED7B9
:100FC000154A162AF2D7020E39EC09F0000E186EF7
:100FD000000E176E1850800A800F0A0ED8B4175CE6
:100FE000D8B006D00C0EE82EFED7174A182AF2D732
:100FF000280E17EC09F0010E17EC09F0060E17EC9D
:1010000009F00C0E17EC09F0C1EC08F01200000E0C
:101010000C6E000E0B6E0C50800A800F100ED8B4B0
:101020000B5CD8B015D00A6E000E076E0A500B503C
:10103000F5EC08F02D0ECEEC09F04E0E0A6EEB0E1C
:10104000E82EFED70A2EFCD700F00B4A0C2AE3D775
:10105000000E0C6E000E0B6E0C50800A800F100EEE
:10106000D8B40B5CD8B021D00A6E000E076E0A50BF
:101070000B50F5EC08F0200ECEEC09F00A6E010ED4
:10108000076E0A500B500008100FF5EC08F02D0EFB
:10109000CEEC09F04E0E0A6EEB0EE82EFED70A2EAD
:1010A000FCD700F00B4A0C2AD7D7000E0C6E000EAE
:1010B0000B6E0C50800A800F100ED8B40B5CD8B0A9
:1010C00015D00A6E010E076E0A500B50F5EC08F0B1
:1010D000200ECEEC09F04E0E0A6EEB0EE82EFED777
:1010E0000A2EFCD700F00B4A0C2AE3D7EBEC09F0F0
:1010F00012001E6E300E206E1E508EEC07F0C3ECF8
:1011000009F0000E226E000E216E2250800A800F20
:10111000100ED8B4215CD8B033D01E6E600E036EB2
:101120001E50205083EC09F0202A1E6E000E076E20
:101130001E502150F5EC08F02050CEEC09F0270E9F
:101140001E6EF50EE82EFED71E2EFCD700F0600EA8
:1011500070EC09F01F6E1E6E010E076E1E502150BE
:10116000F5EC08F01F50CEEC09F0270E1E6EF50EC0
:10117000E82EFED71E2EFCD700F0214A222AC5D722
:10118000FFD70D6E000E076E0D50000EF5EC08F047
:101190000F0E056E010E046E57EC09F00D6E010E78
:1011A000076E0D50000EF5EC08F00F0E056E120ED6
:1011B000046E57EC09F0000E0F6E000E0E6E0F500D
:1011C000800A800F0A0ED8B40E5CD8B00BD0C30EC4
:1011D0000D6ECD0EE82EFED70D2EFCD700F00E4A78
:1011E0000F2AEDD707EC08F01200E8CF09F00DD078
:1011F00009C008F017D00950400F05D00950140F4E
:1012000002D00950540F086E0DD00750000AD8B410
:10121000EFD7010AD8B4EFD7030AD8B4EFD7010A41
:10122000D8B4EFD7088E085017EC09F01200E8CFB9
:1012300006F08B900650B8EC09F006C003F0FC0EE7
:101240000316D8A412D0000E056E000E046E0550D1
:10125000800A800F640ED8B4045CD8B01200100E5F
:10126000E82EFED7044A052AF2D72B0EE82EFED729
:101270001200E8CF01F08B8200F000D001A002D074
:101280008C8001D08C9001A202D08C8201D08C92F3
:1012900001A402D08C8401D08C9401A602D08C864B
:1012A00001D08C9600D000D000D08B9212000CD0D0
:1012B00004C0F6FF05C0F7FF000EF86E0800F550F9
:1012C000CEEC09F0044A052A04C0F6FF05C0F7FF7A
:1012D000000EF86E0800F5500009D8B41200E8D7E7
:1012E000E8CF03F0000E94EC09F003500109A2ECE2
:1012F00009F0E0EC09F0046E010EADEC09F0E7EC4A
:1013000009F004501200E8CF04F0000E94EC09F04C
:101310000350A2EC09F00450A2EC09F0010EADEC70
:1013200009F0E7EC09F01200E8CF02F0D8EC09F080
:10133000026604D0C580C5A01200FDD7C582C5A233
:101340001200FDD7E8CF02F002C0C9FFC6BE1200EE
:10135000C7B0FED7D8EC09F01200E8CF01F001B019
:1013600002D0C59A01D0C58AC588C5A81200FDD78C
:10137000E8CF02F002380F0B39EC09F002500F0BE6
:1013800039EC09F012009388938AC79E280EC66E26
:10139000000EC56E070EC86E9E961200E8CF03F0D1
:1013A0008B800350B8EC09F02B0EE82EFED712000C
:1013B000C5CF01F01F0E0116D8B4C7B4F9D712007B
:1013C000D8EC09F0C586C7A0FED7C9501200C58465
:1013D000C5A41200FDD7010E17EC09F012000001A0
:0413E00079EF08F0A9
:020000040001F9
:08FFF8009EF7DCFFF7F8FFFBA8
:00000001FF
