:040000003FEF00F0DE
:10000800FACF01F0FBCF02F0E9CF03F0EACF04F01A
:10001800E1CF05F0E2CF06F0D9CF07F0DACF08F04C
:10002800F3CF09F0F4CF0AF0F6CF0BF0F7CF0CF0CE
:10003800F8CF0DF0F5CF0EF0F0B0F0900EC0F5FF50
:100048000DC0F8FF0CC0F7FF0BC0F6FF0AC0F4FFA5
:1000580009C0F3FF08C0DAFF07C0D9FF06C0E2FFF6
:1000680005C0E1FF04C0EAFF03C0E9FF02C0FBFFCF
:0A00780001C0FAFF1100ABEF0AF01F
:100F000000436F756E74696E6720746573743A2060
:100F10000053696E676820426520526F736100520A
:100F20006F626572696E6F00736F703000736F70FF
:100F30003100736F703200736F703300736F7034F1
:100F40000000B4EC0AF078D00F0E136E290E126E6A
:100F500042EC0AF012000F0E136E2E0E126E42ECCF
:100F60000AF012000F0E136E330E126E42EC0AF0EE
:100F700012000F0E136E380E126E42EC0AF01200C1
:100F80000F0E136E3D0E126E42EC0AF0120015C0E9
:100F900019F016C01AF01A50000AD8A412001950FD
:100FA000000AD8B4D1D7010AD8B4D5D7030AD8B427
:100FB000D9D7010AD8B4DDD7070AD8A41200E0D7E0
:100FC0000F0E136E280E126E42EC0AF012000F0E76
:100FD000136E2D0E126E42EC0AF012000F0E136EFD
:100FE000320E126E42EC0AF012000F0E136E370E24
:100FF000126E42EC0AF012000F0E136E3C0E126ECF
:1010000042EC0AF0120015C019F016C01AF01A507E
:10101000000AD8A412001950000AD8B4D1D7010A86
:10102000D8B4D5D7030AD8B4D9D7010AD8B4DDD7F4
:10103000070AD8A41200E0D717C019F018C01AF098
:101040001A50000AD8A412001950000AD8B49FD729
:10105000010AD8A41200D7D79694949094929494AD
:1010600096908D9096928D923B0E1E6E700EE82E8D
:10107000FED71E2EFCD78D90030E5BEC0AF0000EFF
:10108000206E000E1F6E2050800A800F640ED8B4B0
:101090001F5CD8B006D0290EE82EFED71F4A202AA2
:1010A000F2D7030E5BEC0AF0000E226E000E216EEA
:1010B0002250800A800F0A0ED8B4215CD8B006D026
:1010C0000C0EE82EFED7214A222AF2D7030E5BEC43
:1010D0000AF0000E246E000E236E2450800A800F4A
:1010E0000A0ED8B4235CD8B006D00C0EE82EFED77A
:1010F000234A242AF2D7020E5BEC0AF0000E266E79
:10110000000E256E2650800A800F0A0ED8B4255C8A
:10111000D8B006D00C0EE82EFED7254A262AF2D7E4
:10112000280E20EC0AF0010E20EC0AF0060E20EC4E
:101130000AF00C0E20EC0AF0CAEC09F01200000EC6
:101140001A6E000E196E1A50800A800F100ED8B455
:10115000195CD8B015D0186E000E156E18501950C5
:10116000FEEC09F02D0EA1EC0AF04E0E186EEB0EFF
:10117000E82EFED7182EFCD700F0194A1A2AE3D71A
:10118000000E1A6E000E196E1A50800A800F100E93
:10119000D8B4195CD8B021D0186E000E156E185056
:1011A0001950FEEC09F0200EA1EC0AF0186E010EA9
:1011B000156E185019500008100FFEEC09F02D0E96
:1011C000A1EC0AF04E0E186EEB0EE82EFED7182E8C
:1011D000FCD700F0194A1A2AD7D7000E1A6E000E53
:1011E000196E1A50800A800F100ED8B4195CD8B04E
:1011F00015D0186E010E156E18501950FEEC09F03E
:10120000200EA1EC0AF04E0E186EEB0EE82EFED763
:10121000182EFCD700F0194A1A2AE3D7B4EC0AF0CA
:1012200012002CC012F02DC013F02EC014F02FC0ED
:1012300015F0000E83B0010E126E000E83B2010E87
:10124000136E000E83B4010E146E000E83B6010EF1
:10125000156E270E116EF50EE82EFED7112EFCD757
:1012600000F0000E176E000E166E1750800A800FE9
:10127000040ED8B4165CD8B0DCD7120E1624D96E82
:10128000000E1720DA6EDF50116E300E1624D96E64
:10129000000E1720DA6EDF501118D8B413D0120EDA
:1012A0001624D96E000E1720DA6E300E1624E16E69
:1012B000000E1720E26EDFCFE7FF16C00FF017C059
:1012C00010F01200120E1624D96E000E1720DA6EDE
:1012D000300E1624E16E000E1720E26EDFCFE7FF1E
:1012E000164A172AC2D71CD0344A352A2ED03406C3
:1012F000D8A035062AD034043510D8A426D0000E44
:10130000396E010E07D038043910D8A41ED0000E53
:10131000396E000E386E000E356E000E346E15D02C
:101320001BC01DF01CC01EF01E50000AD8A40DD01A
:101330001D50000AD8B4D8D7010AD8B4D8D7030AA8
:10134000D8B4D9D7010AD8B4DED73550800AF36EA5
:10135000800EF35C000ED8B4345CD8B004D0000E1C
:10136000356E000E346E3550800A800F050ED8B4ED
:10137000345CD8A004D0000E356E040E346E34C038
:1013800015F035C016F038C017F039C018F0A1ECD0
:1013900007F012001B6E000E156E1B50000EFEECC7
:1013A00009F00F0E136E1F0E126E42EC0AF01B6E48
:1013B000010E156E1B50000EFEEC09F00F0E136EA1
:1013C000110E126E42EC0AF0000E1D6E000E1C6E25
:1013D0001D50800A800F640ED8B41C5CD8B00BD0AE
:1013E000C30E1B6ECD0EE82EFED71B2EFCD700F0D1
:1013F0001C4A1D2AEDD79FEC08F01200E8CF17F029
:101400000DD017C016F017D01750400F05D0175049
:10141000140F02D01750540F166E0DD01550000A3D
:10142000D8B4EFD7010AD8B4EFD7030AD8B4EFD7AE
:10143000010AD8B4EFD7168E165020EC0AF012002D
:10144000E8CF14F08D9014508BEC0AF014C011F01A
:10145000FC0E1116D8A412D0000E136E000E126EE0
:101460001350800A800F640ED8B4125CD8B01200FA
:10147000100EE82EFED7124A132AF2D72B0EE82EB2
:10148000FED712000CD012C0F6FF13C0F7FF000EFB
:10149000F86E0800F550A1EC0AF0124A132A12C0A7
:1014A000F6FF13C0F7FF000EF86E0800F5500009B4
:1014B000D8B41200E8D7E8CF0FF08D820FA002D089
:1014C0008D8401D08D940FA202D08B8001D08B909F
:1014D0000FA402D08B8201D08B920FA602D08B84F6
:1014E00001D08B948D92120096EC0AF02CEC08F04F
:1014F0000F0E136E010E126E42EC0AF011EC09F0A1
:101500000FC036F010C037F036C01BF037C01CF0EB
:1015100073EC09F0F3D7E8CF10F010380F0B5BEC49
:101520000AF010500F0B5BEC0AF012000F010F01D4
:1015300048690F010F0149699580958295849586C8
:101540001200E8CF11F08D8011508BEC0AF02B0EB9
:10155000E82EFED7120000EE2CF00E0EEE6AE80622
:10156000FDE1000174EF0AF0010E20EC0AF0120018
:020000040001F9
:08FFF8009EF7DCFFF7F8FFFBA8
:00000001FF
