:020000001028C6
:10000800FE00030EF5000408F6000A08F700831244
:1000180003137F08F8001A281128FB01FC01831339
:100028002030840034300D218301CC288C1E6328B5
:100038001A08F4007408FC007C080A3A03193528E9
:1000480014307B02031835287C08F4007B08203E16
:1000580084007408831380000130F4007408FB07DF
:100068006028FB012030F1000030F200B1200A3096
:100078000321F901FA017A08803AFF0080307F02F3
:10008800031D482814307902031860287908203E97
:100098008400831380010130F9070318FA0A00303D
:1000A800FA077A08803AFF0080307F02031D5E2835
:1000B80014307902031C4A28831203138C1278081F
:1000C800FF0077088A0076088400750E8300FE0E0C
:1000D8007E0E0900FF1B782883137F1883170008FA
:1000E800840A0319FF0A080000308A000408840AF9
:1000F8008207003443346F346D3475346E34693498
:1001080063346134743469346F346E342034693440
:10011800733420346F346B340A340034831203137D
:100128003608FF00350884006E20003803190800DF
:10013800831203133608FF00350884006E20F72069
:100148000D3083120313B700B70BA82801308312B0
:100158000313B5070318B60A92287208831203130B
:10016800FF00710884006E20003803190800720827
:1001780083120313FF00710884006E2003210D30E1
:10018800F300F30BC5280130F1070318F20AB12870
:10019800E620023083120313BE000430BD00BA30DB
:1001A800BC00BC0BD528BD0BD528BE0BD52800003C
:1001B800013083120313B5008030B60092200B176C
:1001C8008B17E52883160313861406159816181539
:1001D800683099001812831203139817181683169B
:1001E80003138C16080083120313B4008316031339
:1001F800981CFA2883120313340899000800F000A9
:1002080083160313981C042970088312031399009A
:10021800080064008001840A0406031900340406F7
:020228000E299D
:02400E0053FF5E
:00000001FF
