:04000000A7EF08F06E
:100F00000053696E6768202D4265202D526F736112
:100F100000526F626572696E6F0000009590959245
:100F20009594959696908D9096928D923B0E076E25
:100F3000700EE82EFED7072EFCD78D90030E79ECAD
:100F400008F0000E096E000E086E0950800A800F2E
:100F5000640ED8B4085CD8B006D0290EE82EFED7AF
:100F6000084A092AF2D7030E79EC08F0000E0B6E3E
:100F7000000E0A6E0B50800A800F0A0ED8B40A5C6D
:100F8000D8B006D00C0EE82EFED70A4A0B2AF2D7AC
:100F9000030E79EC08F0000E0D6E000E0C6E0D5075
:100FA000800A800F0A0ED8B40C5CD8B006D00C0EA4
:100FB000E82EFED70C4A0D2AF2D7020E79EC08F083
:100FC000000E0F6E000E0E6E0F50800A800F0A0E7C
:100FD000D8B40E5CD8B006D00C0EE82EFED70E4A60
:100FE0000F2AF2D7280E21EC08F0010E21EC08F0B0
:100FF000060E21EC08F00C0E21EC08F01200E8CFF0
:1010000009F00DD009C008F017D00950400F05D0E5
:101010000950140F02D00950540F086E0DD007501C
:10102000000AD8B4EFD7010AD8B4EFD7030AD8B46E
:10103000EFD7010AD8B4EFD7088E085021EC08F09A
:101040001200E8CF06F08D90065092EC08F006C032
:1010500003F0FC0E0316D8A412D0000E056E000E8D
:10106000046E0550800A800F640ED8B4045CD8B0BA
:101070001200100EE82EFED7044A052AF2D72B0ED6
:10108000E82EFED712008EEC07F0156E000E076EEC
:101090001550000EFFEC07F00F0E056E110E046EDA
:1010A00060EC08F0156E010E076E1550000EFFEC97
:1010B00007F00F0E056E010E046E60EC08F0FFD70E
:1010C0000CD004C0F6FF05C0F7FF000EF86E080054
:1010D000F5509DEC08F0044A052A04C0F6FF05C04F
:1010E000F7FF000EF86E0800F5500009D8B41200A2
:1010F000E8D7E8CF01F08D8201A002D08C8001D02A
:101100008C9001A202D08C8201D08C9201A402D0DA
:101110008C8401D08C9401A602D08C8601D08C9650
:101120008D921200E8CF02F002380F0B79EC08F034
:1011300002500F0B79EC08F01200E8CF03F08D801D
:10114000035092EC08F02B0EE82EFED7120000019F
:0411500043EF08F071
:020000040001F9
:08FFF800BEF7DDFFF7FAFFFB85
:00000001FF
