:0400000078EF00F0A5
:10000800FACF04F0FBCF05F0E9CF06F0EACF07F00E
:10001800E1CF08F0E2CF09F0D9CF0AF0DACF0BF040
:10002800F3CF0CF0F4CF0DF0F6CF0EF0F7CF0FF0C2
:10003800F8CF10F0F5CF11F09EAA39D0AFCF1EF04F
:100048001E500A0AD8B410D0140E1D5CD8B00CD0BB
:100058001D50010D1F0EF324D96E000EF420DA6E28
:100068001EC0DFFF1D2A22D0000E1D6E000E036E7B
:100078001F0E026EB9EC07F00A0E17EC08F0000E1E
:10008800136E000E126E1350800A800F140ED8B42F
:10009800125CD8B00BD01F0E1224D96E000E13209C
:1000A800DA6E000EDF6E124A132AEDD79E9A11C03F
:1000B800F5FF10C0F8FF0FC0F7FF0EC0F6FF0DC028
:1000C800F4FF0CC0F3FF0BC0DAFF0AC0D9FF09C068
:1000D800E2FF08C0E1FF07C0EAFF06C0E9FF05C06C
:0C00E800FBFF04C0FAFF1100FAEF07F064
:100F000000436F6D756E69636174696F6E206973FC
:100F1000206F6B0A000018D015C0F6FF16C0F7FF4F
:100F2000000EF86E0E0EF76403D00800F55005D0E1
:100F3000F6CFE9FFF7CFEAFFEF5010EC08F00A0E0A
:100F4000E82EFED7154A162A15C0F6FF16C0F7FF81
:100F5000000EF86E0E0EF76403D00800F55005D0B1
:100F6000F6CFE9FFF7CFEAFFEF500009D8B412003F
:100F7000D3D718D002C0F6FF03C0F7FF000EF86EFB
:100F80000E0EF76403D00800F55005D0F6CFE9FF48
:100F9000F7CFEAFFEF5017EC08F00A0EE82EFED765
:100FA000024A032A02C0F6FF03C0F7FF000EF86EE4
:100FB0000E0EF76403D00800F55005D0F6CFE9FF18
:100FC000F7CFEAFFEF500009D8B41200D3D705ECF1
:100FD00008F0C30E1C6ECD0EE82EFED71C2EFCD7DB
:100FE00000F00F0E166E010E156E8BEC07F0F28CF2
:100FF000F28EFFD700EE1DF0160EEE6AE806FDE158
:10100000000EF86E0001E7EF07F0AD8AAD84AC8802
:10101000AD98948C948E4D0EB06EAC8E9D8A12005D
:10102000E8CF14F0ADA2FED714C0AEFF1200E8CF97
:0C10300001F0ADA2FED701C0AEFF12001F
:020000040001F9
:08FFF800BEF75CFFF3FAFFFB0A
:00000001FF
