:060000000A128A11122809
:10000800FE00030EF1000408F2000A08F300831250
:1000180003137F08F4000A128A111C280A128A1195
:100028001528F501F601F70183010A128A118128C2
:100038008C1D4B2883160313941E14192C28141C8A
:100048002C28831203131308F0007008F7004B28BC
:10005800941A14193828141C382883120313130807
:10006800F0007008F5004B28941E141D3D28141C40
:100078004228941A141D4828141848287608831210
:100088000313930014164B28941A141D4B2883123B
:100098008C117408FF0073088A0072088400710EBE
:1000A8008300FE0E7E0E09008316031387150716BC
:1000B8009413831203139413141314109414141523
:1000C80094111416941683160313061486148312B7
:1000D800031306080139A000060C0139A100210705
:1000E8002004A2002207A03883160313930091135B
:1000F8008C15831203138C1108000A128A118C20A4
:100108000A128A110A128A1158200A128A118B2897
:10011800831603130F168F160F170F148316031762
:040128008901080041
:04400E00E6EFFFFFDB
:00000001FF
