:0400000048EF00F0D5
:10000800FACF8FF0FBCF90F0E9CF91F0EACF92F0E2
:10001800E1CF93F0E2CF94F0D9CF95F0DACF96F014
:10002800F3CF97F0F4CF98F0F6CF99F0F7CF9AF096
:10003800F8CF9BF0F5CF9CF0F2A004D0815081500E
:100048008150F290F0A003D058EC2CF0F0909CC0B6
:10005800F5FF9BC0F8FF9AC0F7FF99C0F6FF98C05C
:10006800F4FF97C0F3FF96C0DAFF95C0D9FF94C09C
:10007800E2FF93C0E1FF92C0EAFF91C0E9FF90C0A0
:0C008800FBFF8FC0FAFF11003FEF38F0C3
:100F000000010000000A00000064000000E8030087
:100F10000010270000A086010040420F0080969834
:100F20000000E1F50500CA9A3B00803FCDCC3DD7DB
:100F3000233C12833AB7D138C62737388635C0D616
:100F400033CC2B32708930E7DB2EE53C1E42A20DFC
:100F500000803F00204100C842007A44401C4650B7
:100F6000C34724744997184BBCBE4C6B6E4E031597
:100F70005079AD60F3497144697374616E63653A89
:100F8000205B636D2F75535D0041636C6D7472203F
:100F900076616C7565733A0053696E6768204265C7
:100FA00020526F73610074656D703A2025312E33C5
:100FB00066006C696768743A20256400526F626548
:100FC00072696E6F0025312E32660025332E33662E
:100FD00000000101010E01010101566F01013D0EEA
:100FE00001010101556FE8EF0EF0010101016A51A5
:100FF000250AD8B40DD039C1D9FF3AC1DAFF0101B1
:101000006AC1DFFF01010101394B3A2BE8EF0EF015
:10101000000E010101015D6F000E01015C6F000E09
:10102000010101015B6F000E01015A6F01013BC11B
:10103000F6FF01013CC1F7FF000EF86E0800F55005
:10104000DFEC35F0D8A050D0000E010101015D6F3A
:10105000000E01015C6F5CC1ADF05DC1AEF0000E31
:1010600000010001B06F0A0E0001AF6FA4EC34F074
:101070000001ADC05CF10001AEC05DF1D00E010118
:10108000406FFF0E416F01013BC1F6FF01013CC102
:10109000F7FF000EF86E0800F5500101426F436B38
:1010A0000101405101014227010141510101432346
:1010B00001014251010101015C270101435101017C
:1010C00001015D23010101013B4B3C2B01013BC1AF
:1010D000F6FF01013CC1F7FF000EF86E0800F55065
:1010E000DFEC35F0D8B0B7D701013BC1F6FF010105
:1010F0003CC1F7FF000EF86E0800F5502E0AD8A488
:101100004CD0010101015B8D010101013B4B3C2BE6
:10111000000E01010101696F000E0101686F2ED000
:1011200068C1ADF069C1AEF0000E00010001B06F02
:101130000A0E0001AF6FA4EC34F001013BC1F6FFD1
:1011400001013CC1F7FF000EF86E0800F5500001E8
:101150000001AD27000E0001AE23D00E00010001FA
:10116000AD2501010101686FFF0E00010001AE21F4
:101170000101696F010101013B4B3C2B01013BC1A6
:10118000F6FF01013CC1F7FF000EF86E0800F550B4
:10119000DFEC35F0D8A010D0C3D7000E010101015B
:1011A000696F000E0101686F010101015B8904D0C4
:1011B000010101015B8527D0010101013B510101C2
:1011C000406F010101013C510101416F01013B4BA5
:1011D0003C2B40C1F6FF41C1F7FF000EF86E08003E
:1011E0000101F5CF6AF101016A51000AD8B403EF99
:1011F0000FF0640AD8B407D0020AD8B4D9D70F0ABE
:10120000D8A4E8EF0EF0070E010101015B15D8B478
:101210001CEF0DF0010101015BA907D0000E0101D7
:101220000101696F060E0101686F55C1D9FF56C1F2
:10123000DAFF0101DECF65F10101DECF66F10101C8
:10124000DDCF67F1030E010101015527000E0101F9
:101250005623010101016751800A800F07E1000E4A
:101260000101665D03E1000E0101655DD8B012D099
:1012700065C19DF066C19EF067C19FF044EC37F0F8
:101280009DC065F19EC066F19FC067F1030E01012C
:1012900001015A13000E01010101646F000E0101EA
:1012A000636F7F0E010101016715010166110101E4
:1012B0006511D8B4B7D0820E0101406FFF0E416FA7
:1012C000010165C142F1010166C143F1010167C13C
:1012D00044F1010168C145F1100E06D00101D8901A
:1012E0004533443343334233E82EF8D701014251AA
:1012F0000101402501010101636F01010101000E9F
:101300004121646F010101016307D8A0640763C133
:10131000ADF064C1AEF0000E00010001B06F030E2D
:101320000001AF6FA4EC34F00001ADC063F1000127
:10133000AEC064F163C1A4F064C1A5F0000E000169
:101340000001A76F0A0E0001A66F92EC2AF00001BF
:10135000A4C063F10001A5C064F101010101645161
:10136000800AF36E800EF35C000ED8B4635DD8B0D3
:1013700005D0010101016307D8A064070101010143
:10138000635100086FEC15F000C157F101C158F12D
:1013900002C159F10101010E01010101016F0101B9
:1013A000570E01010101006F65C102F166C103F131
:1013B00067C104F187EC36F057C19DF058C19EF02B
:1013C00059C19FF0000E00010001A06F800E0001C6
:1013D0000001A16F3F0E00010001A26F63EC2FF02E
:1013E000D8B006D0010101016307D8A064071AD064
:1013F00057C19DF058C19EF059C19FF0000E0001E9
:101400000001A06F200E00010001A16F410E00013C
:101410000001A26F63EC2FF0D8A004D001010101FC
:10142000634B642B010101016951800AF36E800E48
:10143000F35C0D0ED8B4685DD8B017D00101010E71
:10144000010101010D6F0101650E010101010C6F28
:10145000010101016851C7EC1AF000C10EF101C190
:101460000FF102C110F1A8EC36F001010101645145
:10147000800AF36E800EF35C0A0ED8B4635DD8B0B8
:101480002BD07F0E010101016715010166110101D9
:101490006511D8B477D065C107F166C108F167C19D
:1014A00009F169EC26F007C140F108C141F109C119
:1014B00042F10AC143F1010143514011411142116E
:1014C000D8A460D0010101016451800A800F020E8E
:1014D000D8B4635DD8A056D057C19DF058C19EF0D6
:1014E00059C19FF0700E00010001A06F890E00012C
:1014F0000001A16F400E00010001A26F63EC2FF00C
:10150000D8B003D00101F70E02D00101F80E01019D
:101510006327FF0E010164230101010163516FEC98
:1015200015F000C157F101C158F102C159F165C16F
:101530009DF066C19EF067C19FF057C1A0F058C1F1
:10154000A1F059C1A2F09DEC20F09DC049F19EC0D0
:101550004AF19FC04BF1A0C04CF149C15EF14AC1B4
:101560005FF14BC160F14CC161F1000E010101015D
:10157000656F000E01010101666F000E010101019E
:10158000676F33D065C107F166C108F167C109F122
:1015900069EC26F007C15EF108C15FF109C160F195
:1015A0000AC161F10101010E01010101136F010185
:1015B000650E01010101126F5EC1A5F05FC1A6F0C9
:1015C00060C1A7F061C1A8F03EEC32F0A5C014F1F3
:1015D000A6C015F1A7C016F145EC36F0000E0101CA
:1015E0000101646F000E0101636F0101406F010E84
:1015F000010101016A6F01014051010101016A51BC
:101600000A0AD8B424D0010101016A51040D010E67
:10161000F324F66E0F0EF420F76EF86A000EF8222F
:101620000900F550010101015E5D0900F55001015D
:101630005F590900F550010160590900F550010199
:101640006159D8A004D0010101016A2BD6D701014C
:101650006AC140F10101416B40BF41070101010135
:101660006851010140270101010169510101412334
:101670000101010163510101402701010101645190
:101680000101412301014051010101015C5F0101A0
:101690004151010101015D5B0101010169516811C5
:1016A000D8B405D0010101015C07D8A05D07030E85
:1016B000010101015A150101406F000E01010101F4
:1016C0005B150101416F010141514011D8B410D0A7
:1016D0000AD039C1D9FF3AC1DAFF200EDF6E01010D
:1016E0000101394B3A2B010101015C07D8A05D07CC
:1016F000010101015D51800AF36E800EF35C010E61
:10170000D8B45C5DD8B0E5D7030E010101015A15CC
:101710000101406F000E010101015B150101416FE4
:10172000010141514011D8B461D039C1D9FF3AC14A
:10173000DAFF2D0E56D05EC19DF05FC19EF060C1F4
:101740009FF061C1A0F0010101016A51040D010E79
:10175000F324F66E0F0EF420F76EF86A000EF822EE
:1017600009000001F5CFA1F009000001F5CFA2F0BA
:1017700009000001F5CFA3F00A000001F5CFA4F0A5
:1017800067EC2DF09DC04DF19EC04EF19FC04FF112
:10179000A0C050F14DC1ABF04EC1ACF04FC1ADF0A7
:1017A00050C1AEF00A0E00010001AF6F000E000143
:1017B000B06F000E0001B16F000E0001B26FC2ECFD
:1017C00030F0ABC04DF1ACC04EF1ADC04FF1AEC08A
:1017D00050F1010101014D51300F39C1D9FF3AC11A
:1017E000DAFFDF6E01010101394B3A2B01010101E2
:1017F0006A0701016A29D8B410D09DD739C1D9FF31
:101800003AC1DAFF300EDF6E01010101394B3A2B8C
:10181000010101016307D8A06407010101016451BE
:10182000800AF36E800EF35C010ED8B4635DD8B00D
:10183000E5D7010101016951800A800F090ED8B472
:10184000685DD8A009D00101406F080E01010101B7
:101850006A6F0101405102D068C16AF101010101C2
:101860006A5101010101685F000E01016ABFFF0EAC
:1018700001010101695B010101016A51D8B40AD07B
:1018800039C1D9FF3AC1DAFF2E0EDF6E0101010125
:10189000394B3A2B010101016A516FEC15F000C17F
:1018A00046F101C147F102C148F165C1B6F066C118
:1018B000B7F067C1B8F046C1B3F047C1B4F048C152
:1018C000B5F0C8EC23F0B3C007F1B4C008F1B5C05F
:1018D00009F169EC26F007C15EF108C15FF109C1A9
:1018E00060F10AC161F18AD05EC19DF05FC19EF0D6
:1018F00060C19FF061C1A0F0010101016A51040DB6
:10190000010EF324F66E0F0EF420F76EF86A000E47
:10191000F82209000001F5CFA1F009000001F5CF80
:10192000A2F009000001F5CFA3F00A000001F5CFF5
:10193000A4F067EC2DF09DC051F19EC052F19FC004
:1019400053F1A0C054F151C1ABF052C1ACF053C13E
:10195000ADF054C1AEF00A0E00010001AF6F000EF1
:101960000001B06F000E0001B16F000E0001B26FF8
:10197000C2EC30F0ABC051F1ACC052F1ADC053F18C
:10198000AEC054F1010101015151300F39C1D9FFED
:101990003AC1DAFFDF6E01010101394B3A2B5EC11A
:1019A000ABF05FC1ACF060C1ADF061C1AEF0010160
:1019B00001016A51040D010EF324F66E0F0EF4209E
:1019C000F76EF86A000EF82209000001F5CFAFF0BB
:1019D00009000001F5CFB0F009000001F5CFB1F02A
:1019E0000A000001F5CFB2F0C2EC30F0ABC05EF1FE
:1019F000ACC05FF1ADC060F1AEC061F101010101A9
:101A00006A0701016A29D8B410D06ED739C1D9FF4D
:101A10003AC1DAFF300EDF6E01010101394B3A2B7A
:101A2000010101016807D8A069070101010169519D
:101A30006811D8B4CDD1EAD755C1D9FF56C1DAFF64
:101A40000101DECF5EF10101DDCF5FF10101000E8A
:101A500001015FBFFF0E0101606F0101616F020EA6
:101A6000010101015527000E010156230101010169
:101A70006151800A800F0BE1000E0101605D07E1FA
:101A8000000E01015F5D03E1000E01015E5DD8B053
:101A900014D0030E010101015A1301010101611F5C
:101AA0000101601F01015F1F01015E6D000E010158
:101AB0005F230101602301016123010101016951DB
:101AC0006811D8A40CD00101010161515E115F11B0
:101AD0006011D8A404D001010101684B692B0101F8
:101AE000406F010E010101016A6F010140510101C6
:101AF00001016A510A0AD8B424D0010101016A51D6
:101B0000040D010EF324F66E0F0EF420F76EF86A42
:101B1000000EF8220900F550010101015E5D090087
:101B2000F55001015F590900F550010160590900A4
:101B3000F55001016159D8A004D0010101016A2BBF
:101B4000D6D7800E010101016ABF7F0E406F0101EF
:101B500001016851010101016A5D01010101695141
:101B6000800A01014059D8B003D068C16AF120D081
:101B7000010101016951800A0101406F0101010168
:101B80006A5101010101685D800E010101016ABF16
:101B90007F0E01014059D8B00BD0010101016A51FB
:101BA00001010101686F0101696B010168BF6907EB
:101BB000010101015D515C11D8B416D0030E010181
:101BC00001015A150101406F000E010101015B1571
:101BD0000101416F010141514011D8B405D001010B
:101BE00001015C07D8A05D07010101015BAD28D0B0
:101BF000010101016951800A0101406F01010101E8
:101C00005C5101010101685D010101015D51800A22
:101C100001014059D8B00DD0010101016851010105
:101C200001015C5F010101016951010101015D5B7D
:101C300007D0000E010101015D6F000E01015C6F14
:101C4000800E010101016ABF7F0E406F0101010199
:101C50005C51010101016A5D010101015D51800AD0
:101C600001014059D8B00ED0010101016A510101B2
:101C700001015C5F000E01016ABFFF0E010101015D
:101C80005D5B07D0000E010101015D6F000E0101D7
:101C90005C6F010101015D515C11D8B414D039C1F0
:101CA000D9FF3AC1DAFF200EDF6E01010101394B85
:101CB0003A2B010101015C07D8A05D0701015D51CC
:101CC0005C11D8A4ECD7030E010101015A150101E2
:101CD000406F000E010101015B150101416F01011F
:101CE00041514011D8B469D039C1D9FF3AC1DAFFA6
:101CF0002D0EDF6E5ED0010168C140F1010169C1A6
:101D000041F10101D890403741370101D890403767
:101D10004137010E01014025F66E0F0E4121F76E8D
:101D2000F86A000EF82209000001F5CFA1F00900C1
:101D30000001F5CFA2F009000001F5CFA3F00A00E1
:101D40000001F5CFA4F05EC19DF05FC19EF060C1BF
:101D50009FF061C1A0F067EC2DF09DC0ABF09EC07C
:101D6000ACF09FC0ADF0A0C0AEF00A0E00010001C3
:101D7000AF6F000E0001B06F000E0001B16F000EDA
:101D80000001B26FC2EC30F0ABC042F1ACC043F125
:101D9000ADC044F1AEC045F101014251300F010127
:101DA00001016A6F39C1D9FF3AC1DAFF01016AC185
:101DB000DFFF01010101394B3A2B010101016807E5
:101DC000D8A0690701016829D8B46929D8A493D794
:101DD000010101013B510101406F010101013C5131
:101DE0000101416F01013B4B3C2B40C1F6FF41C15A
:101DF000F7FF000EF86E08000101F5CF6AF101014E
:101E00006A67F5EF07F039C1D9FF3AC1DAFF000E72
:101E1000DF6E1200000E00010001706F540E000111
:101E200000016F6F54EF15F0000100018451250A85
:101E3000D8B40BD050C0D9FF51C0DAFF000184C024
:101E4000DFFF504A512A54EF15F0000E0001000147
:101E5000776F000E0001766F000E00010001756FB4
:101E6000000E0001746F52C0F6FF53C0F7FF000E62
:101E7000F86E0800F550DFEC37F0D8A03DD0000E2A
:101E800000010001776F000E0001766F76C011F03F
:101E900077C012F0000E146E0A0E136E61EC37F06C
:101EA00011C076F012C077F0D00E576EFF0E586E4C
:101EB00052C0F6FF53C0F7FF000EF86E0800F55051
:101EC000596E5A6A5750592658505A225950000193
:101ED000000176275A50000100017723524A532A05
:101EE00052C0F6FF53C0F7FF000EF86E0800F55021
:101EF000DFEC37F0D8B0CAD752C0F6FF53C0F7FFB7
:101F0000000EF86E0800F5502E0AD8A43AD0000151
:101F10000001758D524A532A000E00010001836FA3
:101F2000000E0001826F20D082C011F083C012F039
:101F3000000E146E0A0E136E61EC37F052C0F6FFFD
:101F400053C0F7FF000EF86E0800F5501126000E82
:101F50001222D00E112400010001826FFF0E122008
:101F60000001836F524A532A52C0F6FF53C0F7FF55
:101F7000000EF86E0800F550DFEC37F0D8A010D056
:101F8000D3D7000E00010001836F000E0001826FA5
:101F900000010001758904D000010001758520D081
:101FA0005250576E5350586E524A532A57C0F6FF3C
:101FB00058C0F7FF000EF86E08000001F5CF84F05E
:101FC00000018451000AD8B468EF15F0640AD8B44F
:101FD00007D0020AD8B4E0D70F0AD8A454EF15F0FE
:101FE000070E000100017515D8B4B1D3000100013E
:101FF00075A907D0000E00010001836F060E0001D5
:10200000826F6FC0D9FF70C0DAFF0001DECF7FF0B2
:102010000001DECF80F00001DDCF81F0030E000172
:1020200000016F27000E00017023000100018151A3
:10203000800A800F07E1000E0001805D03E1000EC1
:1020400000017F5DD8B012D07FC001F080C002F0E7
:1020500081C003F0F4EC37F001C07FF002C080F0E3
:1020600003C081F0030E000100017413000E000193
:1020700000017E6F000E00017D6F7F0E00010001E8
:1020800081150001801100017F11D8B498D0820E13
:10209000576EFF0E586E00017FC059F0000180C0DE
:1020A0005AF0000181C05BF0000182C05CF0100EAC
:1020B00005D0D8905C325B325A325932E82EF9D7CB
:1020C00059505724000100017D6F0001000E582077
:1020D0007E6F000100017D07D8A07E077DC011F052
:1020E0007EC012F0000E146E030E136E61EC37F01A
:1020F00011C07DF012C07EF07DC008F07EC009F0F6
:10210000000E0B6E0A0E0A6E92EC31F008C07DF0E4
:1021100009C07EF0000100017E51800AF36E800E3E
:10212000F35C000ED8B47D5DD8B005D0000100018D
:102130007D07D8A07E07000100017D5100089EECBC
:1021400018F026C071F027C072F028C073F00001AB
:10215000000E276E0001710E266E7FC028F080C031
:1021600029F081C02AF008EC37F071C00EF072C07F
:102170000FF073C010F0000E116E800E126E3F0E45
:10218000136E71EC33F0D8B006D0000100017D076A
:10219000D8A07E0714D071C00EF072C00FF073C0CB
:1021A00010F0000E116E200E126E410E136E71ECC7
:1021B00033F0D8A004D0000100017D4B7E2B00013C
:1021C00000018351800AF36E800EF35C0D0ED8B4CB
:1021D000825DD8B013D00001000E316E00017F0E79
:1021E000306E00010001825161EC1FF026C032F018
:1021F00027C033F028C034F026EC37F0000100018E
:102200007E51800AF36E800EF35C0A0ED8B47D5DB9
:10221000D8B02AD07F0E0001000181150001801185
:1022200000017F11D8B470D07FC02DF080C02EF097
:1022300081C02FF0E8EC2EF02DC057F02EC058F0E2
:102240002FC059F030C05AF05A505710581059103A
:10225000D8A45AD0000100017E51800A800F020EDE
:10226000D8B47D5DD8A050D071C00EF072C00FF010
:1022700073C010F0700E116E890E126E400E136E48
:1022800071EC33F0D8B003D00001F70E02D000019A
:10229000F80E00017D27FF0E00017E2300010001E2
:1022A0007D519EEC18F026C071F027C072F028C056
:1022B00073F07FC001F080C002F081C003F071C0F4
:1022C00004F072C005F073C006F02DEC2BF001C0D5
:1022D00063F002C064F003C065F004C066F063C040
:1022E00078F064C079F065C07AF066C07BF0000ECB
:1022F000000100017F6F000E00010001806F000EE1
:1023000000010001816F2FD07FC02DF080C02EF022
:1023100081C02FF0E8EC2EF02DC078F02EC079F0BF
:102320002FC07AF030C07BF00001000E1C6E00015F
:102330007F0E1B6E78C009F079C00AF07AC00BF0EE
:102340007BC00CF072EC34F009C01DF00AC01EF026
:102350000BC01FF0EAEC36F0000E000100017E6FAA
:10236000000E00017D6F576E010E00010001846FA9
:1023700057500001000184510A0AD8B424D000014A
:1023800000018451040D010EF324F66E0F0EF420AB
:10239000F76EF86A000EF8220900F55000010001FE
:1023A000785D0900F550000179590900F5500001E8
:1023B0007A590900F55000017B59D8A004D00001DA
:1023C0000001842BD6D7000184C057F0586A57BE4D
:1023D0005806000100018251572600010001835177
:1023E0005822000100017D515726000100017E5155
:1023F0005822575000010001765F5850000100013B
:10240000775B0001000183518211D8B405D000012F
:1024100000017607D8A07707030E000100017415AC
:10242000576E000E000100017515586E5850571078
:10243000D8B40ED008D050C0D9FF51C0DAFF200E5A
:10244000DF6E504A512A000100017607D8A07707B5
:10245000000100017751800AF36E800EF35C010EDB
:10246000D8B4765DD8B0E7D7030E0001000174152B
:10247000576E000E000100017515586E5850571028
:10248000D8B456D050C0D9FF51C0DAFF2D0E4DD070
:1024900078C001F079C002F07AC003F07BC004F08C
:1024A000000100018451040D010EF324F66E0F0E9D
:1024B000F420F76EF86A000EF8220900F5CF05F057
:1024C0000900F5CF06F00900F5CF07F00A00F5CFB7
:1024D00008F0B9EC33F001C067F002C068F003C047
:1024E00069F004C06AF067C00FF068C010F069C0FE
:1024F00011F06AC012F00A0E136E000E146E000E78
:10250000156E000E166E3DEC34F00FC067F010C073
:1025100068F011C069F012C06AF000010001675153
:10252000300F50C0D9FF51C0DAFFDF6E504A512A38
:1025300000010001840700018429D8B40ED0A8D777
:1025400050C0D9FF51C0DAFF300EDF6E504A512A19
:10255000000100017D07D8A07E07000100017E5127
:10256000800AF36E800EF35C010ED8B47D5DD8B0A6
:10257000E7D7000100018351800A800F090ED8B40B
:10258000825DD8A007D0576E080E00010001846F4D
:10259000575002D082C084F0000100018451000134
:1025A0000001825F000E000184BFFF0E00010001E8
:1025B000835B000100018451D8B408D050C0D9FF1A
:1025C00051C0DAFF2E0EDF6E504A512A0001000181
:1025D00084519EEC18F026C060F027C061F028C03E
:1025E00062F07FC01AF080C01BF081C01CF060C098
:1025F00017F061C018F062C019F06CEC2EF017C033
:102600002DF018C02EF019C02FF0E8EC2EF02DC0E0
:1026100078F02EC079F02FC07AF030C07BF07BD0FC
:1026200078C001F079C002F07AC003F07BC004F0FA
:10263000000100018451040D010EF324F66E0F0E0B
:10264000F420F76EF86A000EF8220900F5CF05F0C5
:102650000900F5CF06F00900F5CF07F00A00F5CF25
:1026600008F0B9EC33F001C06BF002C06CF003C0AD
:102670006DF004C06EF06BC00FF06CC010F06DC058
:1026800011F06EC012F00A0E136E000E146E000EE2
:10269000156E000E166E3DEC34F00FC06BF010C0DE
:1026A0006CF011C06DF012C06EF0000100016B51B2
:1026B000300F50C0D9FF51C0DAFFDF6E504A512AA7
:1026C00078C00FF079C010F07AC011F07BC012F022
:1026D000000100018451040D010EF324F66E0F0E6B
:1026E000F420F76EF86A000EF8220900F5CF13F017
:1026F0000900F5CF14F00900F5CF15F00A00F5CF69
:1027000016F03DEC34F00FC078F010C079F011C035
:102710007AF012C07BF000010001840700018429D7
:10272000D8B40ED07DD750C0D9FF51C0DAFF300EDB
:10273000DF6E504A512A000100018207D8A08307AA
:102740000001000183518211D8B4AED1ECD76FC023
:10275000D9FF70C0DAFF0001DECF78F00001DDCFD5
:1027600079F00001000E000179BFFF0E00017A6FC1
:1027700000017B6F020E000100016F27000E0001B7
:102780007023000100017B51800A800F0BE1000ED5
:1027900000017A5D07E1000E0001795D03E1000EA2
:1027A0000001785DD8B014D0030E0001000174134D
:1027B000000100017B1F00017A1F0001791F000149
:1027C000786D000E0001792300017A2300017B233C
:1027D0000001000183518211D8A40CD00001000136
:1027E0007B51781179117A11D8A404D0000100012D
:1027F000824B832B576E010E00010001846F5750EE
:102800000001000184510A0AD8B424D0000100015B
:102810008451040D010EF324F66E0F0EF420F76EB2
:10282000F86A000EF8220900F55000010001785DF9
:102830000900F550000179590900F55000017A5955
:102840000900F55000017B59D8A004D00001000117
:10285000842BD6D7800E0001000184BF7F0E576EF7
:1028600000010001825100010001845D00010001AE
:102870008351800A5758D8B003D082C084F01ED04C
:10288000000100018351800A576E0001000184514C
:1028900000010001825D800E0001000184BF7F0EF7
:1028A0005758D8B00BD0000100018451000100013D
:1028B000826F0001836B000182BF8307000100016A
:1028C00077517611D8B413D0030E000100017415AE
:1028D000576E000E000100017515586E58505710C4
:1028E000D8B405D0000100017607D8A07707000111
:1028F000000175AD26D0000100018351800A576E9A
:1029000000010001765100010001825D000100011B
:102910007751800A5758D8B00DD00001000182517C
:1029200000010001765F00010001835100010001F8
:10293000775B07D0000E00010001776F000E0001E9
:10294000766F800E0001000184BF7F0E576E00017C
:102950000001765100010001845D00010001775102
:10296000800A5758D8B00ED00001000184510001F0
:102970000001765F000E000184BFFF0E0001000120
:10298000775B07D0000E00010001776F000E000199
:10299000766F0001000177517611D8B412D050C083
:1029A000D9FF51C0DAFF200EDF6E504A512A0001D4
:1029B00000017607D8A07707000177517611D8A4D7
:1029C000EED7030E000100017415576E000E0001D2
:1029D00000017515586E58505710D8B45AD050C0D1
:1029E000D9FF51C0DAFF2D0EDF6E51D0000182C039
:1029F00057F0000183C058F0D89057365836D89019
:102A000057365836010E5724F66E0F0E5820F76EC3
:102A1000F86A000EF8220900F5CF05F00900F5CF9D
:102A200006F00900F5CF07F00A00F5CF08F078C0EE
:102A300001F079C002F07AC003F07BC004F0B9EC79
:102A400033F001C00FF002C010F003C011F004C059
:102A500012F00A0E136E000E146E000E156E000EAC
:102A6000166E3DEC34F00FC059F010C05AF011C092
:102A70005BF012C05CF05950300F00010001846F10
:102A800050C0D9FF51C0DAFF000184C0DFFF504AB7
:102A9000512A000100018207D8A083070001822982
:102AA000D8B48329D8A4A2D75250576E5350586E29
:102AB000524A532A57C0F6FF58C0F7FF000EF86E6F
:102AC00008000001F5CF84F00001846714EF0FF0D7
:102AD00050C0D9FF51C0DAFF000EDF6E1200E8CF00
:102AE00006F10101010106AF96D101010101066D58
:102AF000010101010651800A120FD8A0E5D0000E95
:102B000000010001B06F030E0001AF6F000E000165
:102B10000001A76F0A0E0001A66F000E0001000160
:102B2000A06F640E00019F6F0101010106510001B9
:102B300000019D6F00019E6B00019DBF9E07E0ECB0
:102B40002CF000019DC0A4F000019EC0A5F092EC05
:102B50002AF0090E00010001A42500010001AD6F5B
:102B6000000E00010001A5210001AE6FA4EC34F0BD
:102B7000290E00010001AD25F66E0F0E0001AE21F9
:102B8000F76EF86A000EF82209000001F5CFB6F0E2
:102B900009000001F5CFB7F00A000001F5CFB8F049
:102BA000000E00010001B06F030E0001AF6F000EB8
:102BB00000010001A76F640E0001A66F0101010171
:102BC000065100010001A46F0001A56B0001A4BF24
:102BD000A50792EC2AF0120E00010001A4250001C5
:102BE0000001AD6F000E00010001A5210001AE6FD4
:102BF000A4EC34F0290E00010001AD25F66E0F0E95
:102C00000001AE21F76EF86A000EF82209000001FB
:102C1000F5CFB3F009000001F5CFB4F00A000001D0
:102C2000F5CFB5F0C8EC23F0B3C003F1B4C004F1A4
:102C3000B5C005F103C1B3F004C1B4F005C1B5F0EE
:102C4000000E00010001B06F030E0001AF6F000E17
:102C500000010001A06F0A0E00019F6F0101010138
:102C60000651000100019D6F00019E6B00019DBF98
:102C70009E07E0EC2CF000019DC0ADF000019EC06D
:102C8000AEF0A4EC34F0290E00010001AD25F66E83
:102C90000F0E0001AE21F76EF86A000EF82209004F
:102CA0000001F5CFB6F009000001F5CFB7F00A003A
:102CB0000001F5CFB8F0C8EC23F0B3C000F1B4C008
:102CC00001F1B5C002F11200010101010651800AB3
:102CD000750FD8A086D0000E00010001B06F030E62
:102CE0000001AF6F000E00010001A76F0A0E000186
:102CF000A66F01010101065100010001A46F00014E
:102D0000A56B0001A4BFA50792EC2AF0090E0001F3
:102D10000001A42500010001AD6F000E00010001BB
:102D2000A5210001AE6FA4EC34F0290E00010001D2
:102D3000AD25F66E0F0E0001AE21F76EF86A000E9B
:102D4000F82209000001F5CFB3F009000001F5CF2A
:102D5000B4F00A000001F5CFB5F0000E000100014B
:102D6000B06F030E0001AF6F000E00010001A06FF5
:102D70000A0E00019F6F01010101065100010001CF
:102D80009D6F00019E6B00019DBF9E07E0EC2CF043
:102D900000019DC0ADF000019EC0AEF0A4EC34F087
:102DA000290E00010001AD25F66E0F0E0001AE21C7
:102DB000F76EF86A000EF82209000001F5CFB6F0B0
:102DC00009000001F5CFB7F00A000001F5CFB8F017
:102DD000C8EC23F0B3C000F1B4C001F1B5C002F1FA
:102DE0001200010101010651030D290EF324F66EB4
:102DF0000F0EF420F76EF86A000EF82209000101A8
:102E0000F5CF00F109000101F5CF01F10A00010140
:102E1000F5CF02F11200010101010651800A120FE3
:102E2000D8A0E5D0000E00010001B06F030E000134
:102E3000AF6F000E00010001A76F0A0E0001A66F20
:102E4000000E00010001A06F640E00019F6F0101E0
:102E500001010651000100019D6F00019E6B000100
:102E60009DBF9E07E0EC2CF000019DC0A4F0000186
:102E70009EC0A5F092EC2AF0090E00010001A425E5
:102E800000010001AD6F000E00010001A52100014D
:102E9000AE6FA4EC34F0500E00010001AD25F66ECB
:102EA0000F0E0001AE21F76EF86A000EF82209003D
:102EB0000001F5CFB6F009000001F5CFB7F00A0028
:102EC0000001F5CFB8F0000E00010001B06F030E55
:102ED0000001AF6F000E00010001A76F640E00013A
:102EE000A66F01010101065100010001A46F00015C
:102EF000A56B0001A4BFA50792EC2AF0120E0001F9
:102F00000001A42500010001AD6F000E00010001C9
:102F1000A5210001AE6FA4EC34F0500E00010001B9
:102F2000AD25F66E0F0E0001AE21F76EF86A000EA9
:102F3000F82209000001F5CFB3F009000001F5CF38
:102F4000B4F00A000001F5CFB5F0C8EC23F0B3C02F
:102F500003F1B4C004F1B5C005F103C1B3F004C17D
:102F6000B4F005C1B5F0000E00010001B06F030E12
:102F70000001AF6F000E00010001A06F0A0E0001FA
:102F80009F6F010101010651000100019D6F0001C9
:102F90009E6B00019DBF9E07E0EC2CF000019DC0E0
:102FA000ADF000019EC0AEF0A4EC34F0500E000174
:102FB0000001AD25F66E0F0E0001AE21F76EF86A26
:102FC000000EF82209000001F5CFB6F0090000015B
:102FD000F5CFB7F00A000001F5CFB8F0C8EC23F048
:102FE000B3C000F1B4C001F1B5C002F1120001019B
:102FF00001010651800A750FD8A086D0000E00018D
:103000000001B06F030E0001AF6F000E0001000160
:10301000A76F0A0E0001A66F010101010651000110
:103020000001A46F0001A56B0001A4BFA50792ECED
:103030002AF0090E00010001A42500010001AD6F76
:10304000000E00010001A5210001AE6FA4EC34F0D8
:10305000500E00010001AD25F66E0F0E0001AE21ED
:10306000F76EF86A000EF82209000001F5CFB3F000
:1030700009000001F5CFB4F00A000001F5CFB5F06A
:10308000000E00010001B06F030E0001AF6F000ED3
:1030900000010001A06F0A0E00019F6F01010101F4
:1030A0000651000100019D6F00019E6B00019DBF54
:1030B0009E07E0EC2CF000019DC0ADF000019EC029
:1030C000AEF0A4EC34F0500E00010001AD25F66E18
:1030D0000F0E0001AE21F76EF86A000EF82209000B
:1030E0000001F5CFB6F009000001F5CFB7F00A00F6
:1030F0000001F5CFB8F0C8EC23F0B3C000F1B4C0C4
:1031000001F1B5C002F11200010101010651030DE8
:10311000500EF324F66E0F0EF420F76EF86A000ED0
:10312000F82209000101F5CF00F109000101F5CFF6
:1031300001F10A000101F5CF02F11200E8CF2CF0F5
:103140002CAE13D12C6C2C50800A120FD8A09AD020
:10315000000E146E030E136E000E0B6E0A0E0A6E36
:10316000000E046E640E036E2C50016E026A01BEE6
:1031700002068CEC32F001C008F002C009F092ECBB
:1031800031F0090E0824116E000E0920126E61EC58
:1031900037F0290E1124F66E0F0E1220F76EF86A22
:1031A000000EF8220900F5CF1AF00900F5CF1BF048
:1031B0000A00F5CF1CF0000E146E030E136E000E05
:1031C0000B6E640E0A6E2C50086E096A08BE090662
:1031D00092EC31F0120E0824116E000E0920126ECE
:1031E00061EC37F0290E1124F66E0F0E1220F76EE7
:1031F000F86A000EF8220900F5CF17F00900F5CFA4
:1032000018F00A00F5CF19F06CEC2EF017C029F079
:1032100018C02AF019C02BF029C017F02AC018F0E6
:103220002BC019F0000E146E030E136E000E046E08
:103230000A0E036E2C50016E026A01BE02068CEC6F
:1032400032F001C011F002C012F061EC37F0290E2B
:103250001124F66E0F0E1220F76EF86A000EF82297
:103260000900F5CF1AF00900F5CF1BF00A00F5CFE1
:103270001CF06CEC2EF017C026F018C027F019C017
:1032800028F012002C50800A750FD8A059D0000EDB
:10329000146E030E136E000E0B6E0A0E0A6E2C5087
:1032A000086E096A08BE090692EC31F0090E08247E
:1032B000116E000E0920126E61EC37F0290E1124F8
:1032C000F66E0F0E1220F76EF86A000EF822090053
:1032D000F5CF17F00900F5CF18F00A00F5CF19F077
:1032E000000E146E030E136E000E046E0A0E036EB3
:1032F0002C50016E026A01BE02068CEC32F001C055
:1033000011F002C012F061EC37F0290E1124F66EB4
:103310000F0E1220F76EF86A000EF8220900F5CFA2
:103320001AF00900F5CF1BF00A00F5CF1CF06CEC89
:103330002EF017C026F018C027F019C028F0120090
:103340002C50030D290EF324F66E0F0EF420F76EA9
:10335000F86A000EF8220900F5CF26F00900F5CF33
:1033600027F00A00F5CF28F012002C50800A120F27
:10337000D8A09AD0000E146E030E136E000E0B6EC2
:103380000A0E0A6E000E046E640E036E2C50016E5F
:10339000026A01BE02068CEC32F001C008F002C0E5
:1033A00009F092EC31F0090E0824116E000E09208C
:1033B000126E61EC37F0500E1124F66E0F0E1220D3
:1033C000F76EF86A000EF8220900F5CF1AF009002E
:1033D000F5CF1BF00A00F5CF1CF0000E146E030EA3
:1033E000136E000E0B6E640E0A6E2C50086E096A86
:1033F00008BE090692EC31F0120E0824116E000E80
:103400000920126E61EC37F0500E1124F66E0F0E8B
:103410001220F76EF86A000EF8220900F5CF17F0B7
:103420000900F5CF18F00A00F5CF19F06CEC2EF07A
:1034300017C029F018C02AF019C02BF029C017F0C6
:103440002AC018F02BC019F0000E146E030E136E74
:10345000000E046E0A0E036E2C50016E026A01BE4D
:1034600002068CEC32F001C011F002C012F061ECE7
:1034700037F0500E1124F66E0F0E1220F76EF86A18
:10348000000EF8220900F5CF1AF00900F5CF1BF065
:103490000A00F5CF1CF06CEC2EF017C026F018C017
:1034A00027F019C028F012002C50800A750FD8A000
:1034B00059D0000E146E030E136E000E0B6E0A0E22
:1034C0000A6E2C50086E096A08BE090692EC31F0AB
:1034D000090E0824116E000E0920126E61EC37F0FF
:1034E000500E1124F66E0F0E1220F76EF86A000EC1
:1034F000F8220900F5CF17F00900F5CF18F00A00FF
:10350000F5CF19F0000E146E030E136E000E046E4C
:103510000A0E036E2C50016E026A01BE02068CEC8C
:1035200032F001C011F002C012F061EC37F0500E21
:103530001124F66E0F0E1220F76EF86A000EF822B4
:103540000900F5CF1AF00900F5CF1BF00A00F5CFFE
:103550001CF06CEC2EF017C026F018C027F019C034
:1035600028F012002C50030D500EF324F66E0F0EAF
:10357000F420F76EF86A000EF8220900F5CF26F065
:103580000900F5CF27F00A00F5CF28F01200E8CFA8
:1035900009F16D0E010101010965F3D0000E000172
:1035A0000001B06F030E0001AF6F000E00010001BB
:1035B000A76F0A0E0001A66F000E00010001A06FA8
:1035C000640E00019F6F0101000109C19DF000011F
:1035D00000019E6BE0EC2CF000019DC0A4F0000106
:1035E0009EC0A5F092EC2AF0090E00010001A4256E
:1035F00000010001AD6F000E00010001A5210001D6
:10360000AE6FA4EC34F0290E00010001AD25F66E7A
:103610000F0E0001AE21F76EF86A000EF8220900C5
:103620000001F5CFB6F009000001F5CFB7F00A00B0
:103630000001F5CFB8F0000E00010001B06F030EDD
:103640000001AF6F000E00010001A76F640E0001C2
:10365000A66F0101000109C1A4F000010001A56BE2
:1036600092EC2AF0120E00010001A42500010001D5
:10367000AD6F000E00010001A5210001AE6FA4ECAA
:1036800034F0290E00010001AD25F66E0F0E000189
:10369000AE21F76EF86A000EF82209000001F5CF9E
:1036A000B3F009000001F5CFB4F00A000001F5CF36
:1036B000B5F0C8EC23F0B3C006F1B4C007F1B5C053
:1036C00008F1000E00010001B06F030E0001AF6FA2
:1036D000000E00010001A06F0A0E00019F6F0101A2
:1036E000000109C19DF0000100019E6BE0EC2CF08F
:1036F00000019DC0ADF000019EC0AEF0A4EC34F01E
:10370000290E00010001AD25F66E0F0E0001AE215D
:10371000F76EF86A000EF82209000001F5CFB6F046
:1037200009000001F5CFB7F00A000001F5CFB8F0AD
:1037300006C1B3F007C1B4F008C1B5F0C8EC23F07E
:10374000B3C003F1B4C004F1B5C005F103C1B3F0D7
:1037500004C1B4F005C1B5F0000E00010001B66F60
:10376000000E00010001B76F3F0E00010001B86FAD
:10377000C8EC23F0B3C000F1B4C001F1B5C002F150
:1037800012000A0E01010101096598D0000E000126
:103790000001B06F030E0001AF6F000E00010001C9
:1037A000A06F0A0E00019F6F0101000109C19DF089
:1037B000000100019E6BE0EC2CF000019DC0ADF01B
:1037C00000019EC0AEF0A4EC34F0290E000100010F
:1037D000AD25F66E0F0E0001AE21F76EF86A000EF1
:1037E000F82209000001F5CFB6F009000001F5CF7D
:1037F000B7F00A000001F5CFB8F0000E000100019B
:10380000B06F030E0001AF6F000E00010001A76F43
:103810000A0E0001A66F0101000109C1A4F0000118
:103820000001A56B92EC2AF0090E00010001A4250D
:1038300000010001AD6F000E00010001A521000193
:10384000AE6FA4EC34F0290E00010001AD25F66E38
:103850000F0E0001AE21F76EF86A000EF822090083
:103860000001F5CFB3F009000001F5CFB4F00A0074
:103870000001F5CFB5F0C8EC23F0B3C006F1B4C039
:1038800007F1B5C008F106C1B3F007C1B4F008C133
:10389000B5F0000E00010001B66F000E000100013E
:1038A000B76F3F0E00010001B86FC8EC23F0B3C042
:1038B00000F1B4C001F1B5C002F112000101010133
:1038C0000951030D290EF324F66E0F0EF420F76E46
:1038D000F86A000EF82209000001F5CFB3F00900E4
:1038E0000001F5CFB4F00A000001F5CFB5F0000EED
:1038F00000010001B66F000E00010001B76F3F0E1E
:1039000000010001B86FC8EC23F0B3C000F1B4C0EF
:1039100001F1B5C002F11200010102C106F101017D
:10392000076B086B0101010101350101063701E355
:10393000078101010651010101010B6F010105C160
:1039400006F10101076B086B01010101043501015A
:10395000063701E3078101010651010101010A6FE8
:10396000010101010B51D8B416D0010101010A5126
:10397000010101010B5DD8B015D0010101010B510E
:103980000008010101010A250101066F190E01015C
:10399000065DD8A007D003C100F104C101F105C143
:1039A00002F11200010101010A51D8B416D001013F
:1039B00001010B51010101010A5DD8B015D00101CF
:1039C00001010A510008010101010B250101066FE7
:1039D000190E0101065DD8A007D000C100F101C198
:1039E00001F102C102F112000101066F060E010190
:1039F0000101096F010106510101010102AF03D06C
:103A000001010101098F0101010105AF03D001018D
:103A10000101098D01010101018FFF0E0101010169
:103A20000017FF0E010101010117000E0101010144
:103A3000021701010101048FFF0E010101010317AB
:103A4000FF0E010101010417000E0101010105171C
:103A5000010101010A51010101010B5DD8B031D012
:103A60000101D89001010337010104370101053735
:103A7000010101010A07010101010A5101010101CE
:103A80000B19D8B416D001010101090709C106F1CB
:103A9000070E01010617D8B40CD0E2D70101D89067
:103AA0000101023301010133010100330101010170
:103AB0000B2B010101010A51010101010B63EED73A
:103AC00038D0010101010B51010101010A5DD8B09B
:103AD00030D00101D8900101003701010137010107
:103AE0000237010101010B07010101010A51010126
:103AF00001010B19D8B416D001010101090709C150
:103B000006F1070E01010617D8B40CD0E2D7010167
:103B1000D890010105330101043301010333010190
:103B200001010A2B010101010A51010101010B638D
:103B3000EED70101010109AF18D0FF0E010101010B
:103B4000001BFF0E01010101011BFF0E010101011C
:103B5000021B010E010101010027000E01010101FC
:103B60000123000E0101010102230101010109AD40
:103B700018D0FF0E01010101031BFF0E010101011D
:103B8000041BFF0E01010101051B010E01010101D2
:103B90000327000E010101010423000E01010101B0
:103BA00005230101066F000E01010101096F0101EA
:103BB0000651010101010051010101010327010129
:103BC000010101510101010104230101010102511F
:103BD0000101010105230101010105AF20D0FF0E04
:103BE00001010101031BFF0E01010101041BFF0E76
:103BF00001010101051B010E010101010327000E56
:103C0000010101010423000E01010101052301014D
:103C1000066F010E01010101096F0101065103C187
:103C20009DF004C19EF005C19FF00BC1A0F009C139
:103C3000A1F059EC29F09DC000F19EC001F19FC098
:103C400002F1120000019DC0A3F000019EC0A4F08B
:103C500000019FC0A5F00001A0C0A6F0180E06D07C
:103C60000001D890A633A533A433A333E82EF8D7A8
:103C70000001A35100010001AC6F0001AC670ED040
:103C8000000E000100019D6F000E00019E6F000EEE
:103C900000019F6F000E0001A06F12000001A0C084
:103CA000A3F00001A1C0A4F00001A2C0A5F0000192
:103CB000A3C0A6F0180E06D00001D890A633A533F5
:103CC000A433A333E82EF8D70001A351000100016B
:103CD000AB6F0001AB670ED0000E000100019D6FBD
:103CE000000E00019E6F000E00019F6F000E00018C
:103CF000A06F1200000100019F8FFF0E0001000164
:103D00009D17FF0E00019E17FF0E00019F17000E6A
:103D10000001A01700010001A28FFF0E00010001A9
:103D2000A017FF0E0001A117FF0E0001A217000E41
:103D30000001A317000E00010001A76F000E000193
:103D4000A86F000E0001A96F000E0001AA6F7F0E80
:103D500000010001AC5F00010001AB51A00F0001A8
:103D60000001AC5F0001A36F200E00010001AB6FEA
:103D70000001A3510001D8900001A7370001A83726
:103D80000001A9370001AA3700010001A05100017C
:103D900000019D5D00010001A151000100019E593B
:103DA00000010001A251000100019F590001000122
:103DB000A35100010001A059D8A01BD000010001AF
:103DC000A051000100019D5F00010001A15100010F
:103DD00000019E5B00010001A251000100019F5BF8
:103DE00000010001A35100010001A05B00010001DE
:103DF000A7810001D89000019D3700019E37000186
:103E00009F370001A03700010001AB2FB3D700019D
:103E10000001ACAF29D000010001AC51800A0001C3
:103E2000A36FE10E800A0001A35DD8B00ED0000E92
:103E3000000100019D6F000E00019E6F000E000149
:103E40009F6F000E0001A06F12000001D8900001CA
:103E5000AA330001A9330001A8330001A7330001F0
:103E60000001AC3FF2D724D01F0E00010001AC6569
:103E70001BD0000E000100019D6F000E00019E6F1F
:103E8000000E00019F6F000E0001A06F12000001E4
:103E9000D8900001A7370001A8370001A937000119
:103EA000AA3700010001AC0700010001AC67EFD7A1
:103EB000A7C09DF0A8C09EF0A9C09FF0AAC0A0F026
:103EC0001200E8CF2FF06D0E2F64A8D0000E146EF4
:103ED000030E136E000E0B6E0A0E0A6E000E046EB9
:103EE000640E036E2FC001F0026A8CEC32F001C048
:103EF00008F002C009F092EC31F0090E0824116EAE
:103F0000000E0920126E61EC37F0290E1124F66EB6
:103F10000F0E1220F76EF86A000EF8220900F5CF96
:103F20001AF00900F5CF1BF00A00F5CF1CF0000EC7
:103F3000146E030E136E000E0B6E640E0A6E2FC00D
:103F400008F0096A92EC31F0120E0824116E000E8E
:103F50000920126E61EC37F0290E1124F66E0F0E57
:103F60001220F76EF86A000EF8220900F5CF17F05C
:103F70000900F5CF18F00A00F5CF19F06CEC2EF01F
:103F800017C02CF018C02DF019C02EF0000E146EC2
:103F9000030E136E000E046E0A0E036E2FC001F0A6
:103FA000026A8CEC32F001C011F002C012F061EC38
:103FB00037F0290E1124F66E0F0E1220F76EF86AF4
:103FC000000EF8220900F5CF1AF00900F5CF1BF01A
:103FD0000A00F5CF1CF02CC017F02DC018F02EC031
:103FE00019F06CEC2EF017C029F018C02AF019C097
:103FF0002BF029C017F02AC018F02BC019F0000EC2
:104000001A6E000E1B6E3F0E1C6E6CEC2EF017C06D
:1040100026F018C027F019C028F012000A0E2F64ED
:1040200069D0000E146E030E136E000E046E0A0E9D
:10403000036E2FC001F0026A8CEC32F001C011F067
:1040400002C012F061EC37F0290E1124F66E0F0E4B
:104050001220F76EF86A000EF8220900F5CF1AF068
:104060000900F5CF1BF00A00F5CF1CF0000E146E0E
:10407000030E136E000E0B6E0A0E0A6E2FC008F0B0
:10408000096A92EC31F0090E0824116E000E092025
:10409000126E61EC37F0290E1124F66E0F0E12200D
:1040A000F76EF86A000EF8220900F5CF17F0090044
:1040B000F5CF18F00A00F5CF19F06CEC2EF017C010
:1040C0002CF018C02DF019C02EF02CC017F02DC008
:1040D00018F02EC019F0000E1A6E000E1B6E3F0E67
:1040E0001C6E6CEC2EF017C026F018C027F019C01B
:1040F00028F012002F50030D290EF324F66E0F0E38
:10410000F420F76EF86A000EF8220900F5CF17F0D8
:104110000900F5CF18F00A00F5CF19F0000E1A6E5D
:10412000000E1B6E3F0E1C6E6CEC2EF017C026F0BE
:1041300018C027F019C028F0120000019FC0A3F09A
:104140000001A46BA56B000100019E350001A3379F
:1041500001E3A4810001A35100010001AB6F000144
:10416000AB670ED0000E000100019D6F000E000134
:104170009E6F000E00019F6F000E0001A06F1200E5
:104180000001A2C0A3F00001A46BA56B0001000117
:10419000A1350001A33701E3A4810001A35100016F
:1041A0000001AA6F0001AA670ED0000E00010001F5
:1041B0009D6F000E00019E6F000E00019F6F000EAC
:1041C0000001A06F1200000100019E8FFF0E000190
:1041D00000019D17FF0E000100019E17000E000157
:1041E00000019F1700010001A18FFF0E00010001D7
:1041F000A017FF0E00010001A117000E0001000131
:10420000A217000E00010001A66F000E0001A76FAB
:10421000000E0001A86F000E0001A96F7F0E0001C3
:104220000001AB5F00010001AA51980F00010001DD
:10423000AB5F0001A36F180E00010001AA6F00011F
:10424000A3510001D8900001A6370001A737000153
:10425000A8370001A93700010001A05100010001A9
:104260009D5D00010001A151000100019E59000166
:104270000001A251000100019F59D8A015D00001F2
:104280000001A051000100019D5F00010001A1514A
:10429000000100019E5B00010001A251000100012C
:1042A0009F5B00010001A6810001D89000019D37AD
:1042B00000019E3700019F3700010001AA2FC1D7DE
:1042C00000010001ABAF29D000010001AB51800A11
:1042D0000001A36FE90E800A0001A35DD8B00ED0E3
:1042E000000E000100019D6F000E00019E6F000E88
:1042F00000019F6F000E0001A06F12000001D89016
:104300000001A9330001A8330001A7330001A6333F
:1043100000010001AB3FF2D724D0170E00010001CD
:10432000AB651BD0000E000100019D6F000E000167
:104330009E6F000E00019F6F000E0001A06F120023
:104340000001D8900001A6370001A7370001A83767
:104350000001A93700010001AB0700010001AB67B4
:10436000EFD7A6C09DF0A7C09EF0A8C09FF0A9C03F
:10437000A0F01200000ECF6E000ECE6ECD9CCD9C34
:10438000CD88CD9A8A820A0EE82EFED78A9281A421
:10439000FED7CD8081B4FED7CD90CF5001012A6FDA
:1043A000296BCE5001012B6F2C6B010129510101AA
:1043B0002B1100010001A56F01012A5101012C11EF
:1043C0000001A66FFCEC33F0A5C036F1A6C037F1B2
:1043D000A7C038F1660E00010001B66F2E0E000175
:1043E0000001B76F420E00010001B86F36C1B3F093
:1043F00037C1B4F038C1B5F0C8EC23F0B3C00CF14C
:10440000B4C00DF1B5C00EF1FF0E010101010F6F37
:104410007F0E01010101106F470E01010101116FB3
:1044200090EC25F00CC136F10DC137F10EC138F119
:104430003DEC27F01BC12DF11CC12EF11DC12FF148
:10444000400E010101010F6F1C0E01010101106FEF
:10445000460E01010101116FC00E01010101036F40
:10446000A50E01010101046F430E01010101056F59
:104470009A0E00010001B66F190E00010001B76F1E
:104480003F0E00010001B86F2DC1B3F02EC1B4F092
:104490002FC1B5F0C8EC23F0B3C000F1B4C001F1F6
:1044A000B5C002F18CEC1CF000C10CF101C10DF1A2
:1044B00002C10EF190EC25F00CC130F10DC131F1CB
:1044C0000EC132F1000E010101010F6F000E01015A
:1044D0000101106F400E01010101116F36C1B6F0EC
:1044E00037C1B7F038C1B8F030C1B3F031C1B4F062
:1044F00032C1B5F0C8EC23F0B3C00CF1B4C00DF17B
:10450000B5C00EF190EC25F00CC133F10DC134F1C2
:104510000EC135F133C1B3F034C1B4F035C1B5F0DB
:10452000000E00010001B66F7A0E00010001B76FA6
:10453000440E00010001B86FC8EC23F0B3C036F19F
:10454000B4C037F1B5C038F10101010E010101011C
:104550000D6F0101360E010101010C6F660E0101A4
:1045600001010E6FA60E010101010F6F3F0E010147
:104570000101106FA8EC36F036C126F137C127F1E2
:1045800038C128F11200FC0E936E000E956E9268F1
:10459000F28E0F010F0148690F0E0F010F01491331
:1045A000C8EC2BF026EC33F0C30E01017A6FCD0E70
:1045B000E82EFED77A2FFCD700F0C30E01017A6FE8
:1045C000CD0EE82EFED77A2FFCD700F0000E0101A9
:1045D00001017C6F010E01017B6F010101017C5122
:1045E000800A800FB40ED8B47B5DD8B05FD07BC199
:1045F0009DF07CC19EF0F6EC29F0C30E01017A6FAC
:10460000CD0EE82EFED77A2FFCD700F0C30E0101A5
:104610007A6FCD0EE82EFED77A2FFCD700F0C30EAE
:1046200001017A6FCD0EE82EFED77A2FFCD700F06D
:10463000C30E01017A6FCD0EE82EFED77A2FFCD77C
:1046400000F0C30E01017A6FCD0EE82EFED77A2F4F
:10465000FCD700F0C30E01017A6FCD0EE82EFED715
:104660007A2FFCD700F0C30E01017A6FCD0EE82E31
:10467000FED77A2FFCD700F0C30E01017A6FCD0E62
:10468000E82EFED77A2FFCD700F0C30E01017A6F17
:10469000CD0EE82EFED77A2FFCD700F00F0E0101C9
:1046A00001017B27000E01017C2397D7000E010139
:1046B00001017C6FB40E01017B6F010101017C518E
:1046C000800AF36E800EF35C020ED8B47B5DD8A036
:1046D00069D77BC19DF07CC19EF0F6EC29F0C30E3A
:1046E00001017A6FCD0EE82EFED77A2FFCD700F0AD
:1046F000C30E01017A6FCD0EE82EFED77A2FFCD7BC
:1047000000F0C30E01017A6FCD0EE82EFED77A2F8E
:10471000FCD700F0C30E01017A6FCD0EE82EFED754
:104720007A2FFCD700F0C30E01017A6FCD0EE82E70
:10473000FED77A2FFCD700F0C30E01017A6FCD0EA1
:10474000E82EFED77A2FFCD700F0C30E01017A6F56
:10475000CD0EE82EFED77A2FFCD700F0C30E010154
:104760007A6FCD0EE82EFED77A2FFCD700F0C30E5D
:1047700001017A6FCD0EE82EFED77A2FFCD700F01C
:104780000101F10E01017B27FF0E01017C2395D76A
:104790000001B5C0B9F00001BA6BBB6B00010001AC
:1047A000B4350001B93701E3BA810001B951000104
:1047B0000001BC6F0001BC670DD0000E00010001BC
:1047C000B36F000E00010001B46F000E0001000184
:1047D000B56F12000001B8C0B9F00001BA6BBB6B35
:1047E00000010001B7350001B93701E3BA810001CA
:1047F000B95100010001C16F0001C1670DD0000E69
:1048000000010001B36F000E00010001B46F000E43
:1048100000010001B56F120000010001C1517B0FC2
:1048200000010001BC27B5C0C1F000010001B85172
:1048300000010001C11B800E00010001C117000131
:104840000001B48F00010001B78FFF0E00010001CD
:10485000B617FF0E00010001B717000E000100019E
:10486000B817000E00010001BD6F000E000100012D
:10487000BE6F000E00010001BF6F0001B96F070E8F
:1048800000010001C06F0001B95100010001B3A196
:1048900012D000010001B65100010001BD27000146
:1048A0000001B75100010001BE2300010001B85111
:1048B00000010001BF230001D8900001B5330001C1
:1048C000B4330001B3330001D8900001B6370001C2
:1048D000B7370001B83700010001C02FD6D700015B
:1048E000B96F090E00010001C06F0001B95100014C
:1048F0000001B3A112D000010001B6510001000176
:10490000BD2700010001B75100010001BE230001D5
:104910000001B85100010001BF230001D89000013F
:10492000B5330001B4330001B3330001D890000166
:10493000BF330001BE330001BD3300010001C02FB1
:10494000D6D7BDC09DF0BEC09EF0BFC09FF0BCC01A
:10495000A0F0C1C0A1F059EC29F09DC0B3F09EC0F9
:10496000B4F09FC0B5F012000BC00FF0106A116ACE
:104970000A340F3601E310800F50146E0EC00FF092
:10498000106A116A0D340F3601E310800F50136E58
:104990001450D8B40CD01350145CD8B00FD01450AD
:1049A000000813240F6E190E0F5CD8A007D00CC09E
:1049B00009F00DC00AF00EC00BF012001350D8B46D
:1049C0000CD01450135CD8B00FD01350000814242E
:1049D0000F6E190E0F5CD8A007D009C009F00AC0ED
:1049E0000AF00BC00BF012000F6E060E126E0F5085
:1049F0000BBE128E0EBE128C0A8EFF0E0916FF0E13
:104A00000A16000E0B160D8EFF0E0C16FF0E0D165D
:104A1000000E0E161350145CD8B01AD0D8900C3675
:104A20000D360E36130613501418D8B40DD01206D6
:104A300012C00FF0070E0F16D8B406D0EFD7D890DB
:104A40000B320A320932142A13501462F8D71DD0DF
:104A50001450135CD8B019D0D89009360A360B36EA
:104A6000140613501418D8B40DD0120612C00FF04B
:104A7000070E0F16D8B406D0EFD7D8900E320D32ED
:104A80000C32132A13501462F8D712AE0CD0FF0E5A
:104A9000091AFF0E0A1AFF0E0B1A010E0926000E44
:104AA0000A22000E0B2212AC0CD0FF0E0C1AFF0EC5
:104AB0000D1AFF0E0E1A010E0C26000E0D22000E0E
:104AC0000E220F6E000E126E0F5009500C260A5067
:104AD0000D220B500E220EAE10D0FF0E0C1AFF0E40
:104AE0000D1AFF0E0E1A010E0C26000E0D22000EDE
:104AF0000E220F6E010E126E0F500CC001F00DC091
:104B000002F00EC003F014C004F012C005F0EAEC8D
:104B100031F001C009F002C00AF003C00BF012002E
:104B200001010EC112F10101136B146B01010101AE
:104B30000D350101123701E3138101011251010109
:104B40000101196F010119670DD0000E010101016A
:104B50000C6F000E010101010D6F000E010101013A
:104B60000E6F1200010111C112F10101136B146BE0
:104B70000101010110350101123701E31381010127
:104B80001251010101011A6F01011A670DD0000EC7
:104B9000010101010C6F000E010101010D6F000EFA
:104BA000010101010E6F1200000E01010101166FDB
:104BB000000E01010101176F000E01010101186FC4
:104BC000010101011A51890F01010101195F0EC193
:104BD0001AF1010101011151010101011A1B800E9D
:104BE000010101011A17010101010D8FFF0E0101E1
:104BF00001010C17FF0E010101010D17000E01014B
:104C000001010E1701010101108FFF0E01010101C9
:104C10000F17FF0E010101011017000E0101010124
:104C200011170101126F180E01010101156F010129
:104C300012510101D8900101163701011737010106
:104C40001837010101010F51010101010C5D010142
:104C500001011051010101010D5901010101115121
:104C6000010101010E59D8A015D0010101010F5118
:104C7000010101010C5F010101011051010101015C
:104C80000D5B010101011151010101010E5B0101E7
:104C9000010116810101D89001010C3701010D3786
:104CA00001010E3701010101152FC3D716C19DF077
:104CB00017C19EF018C19FF019C1A0F01AC1A1F050
:104CC00059EC29F09DC00CF19EC00DF19FC00EF172
:104CD0001200010109C10BF101010C6B0D6B010107
:104CE0000101083501010B3701E30C8101010B5172
:104CF00001010101156F010115670ED0000E0101C0
:104D00000101076F000E0101086F000E0101096F1C
:104D1000000E01010A6F1200170E01010B6F010155
:104D200007C10CF1010108C10DF1010109C10EF12A
:104D300001010B2901010F6F05D00101D8900E333D
:104D40000D330C3301010F2FF8D701010C51010174
:104D50000101106F01010101088FFF0E0101010126
:104D60000717FF0E010101010817000E01010101E3
:104D7000091701010101075101010101116F010131
:104D8000010108510101126F010109510101136F65
:104D90000101146B8E0E01010101155F010101017A
:104DA00015AF29D0010101011551800A01010B6FD6
:104DB000F10E800A01010B5DD8B00ED0000E01018A
:104DC0000101076F000E0101086F000E0101096F5C
:104DD000000E01010A6F12000101D8900101143385
:104DE00001011333010112330101113301010101EA
:104DF000153FF2D724D0170E0101010115651BD014
:104E0000000E01010101076F000E0101086F000E85
:104E10000101096F000E01010A6F12000101D89013
:104E20000101113701011237010113370101143754
:104E3000010101011507010101011567EFD701010A
:104E400001011051D8B410D001010101141F01015A
:104E5000131F0101121F0101116D000E0101122328
:104E6000010113230101142311C107F112C108F13B
:104E700013C109F114C10AF11200000E0101010170
:104E8000236F000E01010101246F000E01010101D9
:104E9000256F000E01010101226F000E0101216F3B
:104EA000010101012251800A800F050ED8B4215D55
:104EB000D8B02AD0000E000100019E6F000E000144
:104EC0009D6F50EC30F000019DC0A5F000019EC028
:104ED000A6F0FCEC33F0A5C000F1A6C001F1A7C01C
:104EE00002F123C103F124C104F125C105F18CECC9
:104EF0001CF000C123F101C124F102C125F101011F
:104F00000101214B222BCCD723C10CF124C10DF17F
:104F100025C10EF1000E010101010F6FA00E01016C
:104F20000101106F400E01010101116F90EC25F09D
:104F30000CC123F10DC124F10EC125F1330E000186
:104F40000001B66F530E00010001B76F400E000163
:104F50000001B86F23C1B3F024C1B4F025C1B5F08E
:104F6000C8EC23F0B3C00CF1B4C00DF1B5C00EF124
:104F7000000E010101010F6F800E01010101106F90
:104F8000450E01010101116F90EC25F00CC123F1D8
:104F90000DC124F10EC125F1740E00010001B66FA0
:104FA000910E00010001B76F410E00010001B86FC2
:104FB00023C1B3F024C1B4F025C1B5F0C8EC23F08F
:104FC000B3C000F1B4C001F1B5C002F1000E01019F
:104FD0000101036F200E01010101046FC10E0101E7
:104FE0000101056F8CEC1CF000C11EF101C11FF125
:104FF00002C120F11EC11BF11FC11CF120C11DF116
:10500000120001C007F002C008F003C009F004C09C
:105010000AF0180E05D0D8900A3209320832073249
:10502000E82EF9D70750106E106609D0000E016EF9
:10503000000E026E000E036E000E046E120004C01D
:1050400007F005C008F006C009F007C00AF0180E06
:1050500005D0D8900A32093208320732E82EF9D743
:1050600007500F6E0F6609D0000E016E000E026E23
:10507000000E036E000E046E1200038EFF0E01166A
:10508000FF0E0216FF0E0316000E0416068EFF0E0C
:105090000416FF0E0516FF0E0616000E0716000E6C
:1050A0000B6E000E0C6E000E0D6E000E0E6E7F0E5F
:1050B000105E0F50A00F105E076E200E0F6E07508F
:1050C000D8900B360C360D360E360450015C055068
:1050D00002580650035807500458D8A009D004506D
:1050E000015E0550025A0650035A0750045A0B80BD
:1050F000D89001360236033604360F2EE1D710AEB3
:1051000019D01050800A076EE10E800A075CD8B0F3
:1051100009D0000E016E000E026E000E036E000E2E
:10512000046E1200D8900E320D320C320B32103E4B
:10513000F9D714D01F0E10640FD0000E016E000EB0
:10514000026E000E036E000E046E1200D8900B3635
:105150000C360D360E3610061066F8D70BC001F06F
:105160000CC002F00DC003F00EC004F01200000EDF
:1051700000010001A86F000E0001A76F00010001EF
:10518000A851800A800F100ED8B4A75DD8B01ED0E9
:105190000001A66F000E00010001A36F0001A651DF
:1051A00000010001A75106EC35F02D0E16EC38F089
:1051B0004E0E0001A66FEB0EE82EFED7A62FFCD7F1
:1051C00000F000010001A74BA82BD8D7000E00016A
:1051D0000001A86F000E0001A76F00010001A85197
:1051E000800A800F100ED8B4A75DD8B030D000016F
:1051F000A66F000E00010001A36F0001A65100017F
:105200000001A75106EC35F0200E16EC38F0000135
:10521000A66F010E00010001A36F0001A65100015D
:105220000001A7510008100F06EC35F02D0E16EC0A
:1052300038F04E0E0001A66FEB0EE82EFED7A62F1B
:10524000FCD700F000010001A74BA82BC6D7000E29
:1052500000010001A86F000E0001A76F000100010E
:10526000A851800A800F100ED8B4A75DD8B01ED008
:105270000001A66F010E00010001A36F0001A651FD
:1052800000010001A75106EC35F0200E16EC38F0B5
:105290004E0E0001A66FEB0EE82EFED7A62FFCD710
:1052A00000F000010001A74BA82BD8D737EC38F04D
:1052B000120000010001A051D8B409D00001000182
:1052C0009D5100019E1100019F11D8A418D0000E1D
:1052D000000100019D6F000E000100019E6F000E95
:1052E000000100019F6F120000010001A02B0001CE
:1052F000D89000019F3300019E3300019D33000EC2
:10530000000100019D150001A26F000E00010001C7
:105310009E150001A36FFE0E000100019F15000104
:10532000A46F0001A251A311A411D8B418D0DCD7E6
:1053300000010001A02B010E000100019D27000EBD
:10534000000100019E23000E000100019F230001C7
:10535000D89000019F3300019E3300019D33000E61
:10536000000100019D150001A26F000E0001000167
:105370009E150001A36FFF0E000100019F150001A3
:10538000A46F0001A251A311A411D8B40CD0D0D79E
:1053900000010001A0070001D89000019D37000125
:1053A0009E3700019F37000100019EAFF1D7000139
:1053B0000001A0B103D0000100019E9F0001D89020
:1053C000A03300010001A051000100019F13000162
:1053D0000001A151D8B403D0000100019F8F9DC0EE
:1053E0009DF09EC09EF09FC09FF01200000E000135
:1053F0000001A76F000E0001A66F00010001A75178
:10540000800A800F140ED8B4A65DD8B012008A802E
:10541000000E00010001A96F000E0001A86F00013D
:105420000001A951800A800F0A0ED8B4A85DD8B037
:1054300008D0190EE82EFED700010001A84BA92BB9
:10544000EED7000E00010001A36F000E0001A26F55
:1054500007D0040EE82EFED700010001A24BA32BBB
:1054600000010001A351800A00019F6F00019D51BE
:1054700000010001A25D000100019E51800A0001AF
:105480009F59D8A0E6D78A90000E00010001A56FB1
:10549000000E0001A46F07D0030EE82EFED7000116
:1054A0000001A44BA52B00019DC09FF000019EC0F0
:1054B000A0F000019F1FA01F9F4BA02BB40E000166
:1054C0009F27000EA02300010001A551800A0001C2
:1054D000A16F9F5100010001A45D0001A051800A4D
:1054E0000001A159D8A0D8D7000E00010001AB6F70
:1054F000000E0001AA6F00010001AB51800A7A0F73
:10550000EF0ED8B4AA5DD8B008D00A0EE82EFED7A8
:1055100000010001AA4BAB2BEED700010001A64B06
:10552000A72B6BD70001A86F000E00010001AA6F26
:105530000001A85100010001A751800AF36E800EFE
:10554000F35C000ED8B4A65DD8B00FD00001000106
:10555000A66D0001A71FD8B0A72B0001A86F010EF0
:1055600000010001AA6F0001A85100010001A5512E
:10557000800AF36E800EF35C000ED8B4A45DD8B040
:105580000BD000010001A46D0001A51FD8B0A52B10
:10559000010E00010001AA1B000E00010001AC6F0A
:1055A000000E0001AB6F00010001A751A611D8B495
:1055B00043D00001A86F010E00010001A96F000196
:1055C000A85109D0000100010001D890A637A737E3
:1055D00000010001A92B00010001A7AFF3D70001D2
:1055E00000010001D890AB37AC3700010001A65193
:1055F00000010001A45D00010001A75100010001AC
:10560000A559D8A00FD000010001A651000100014A
:10561000A45F00010001A75100010001A55B00018A
:105620000001AB81000100010001D890A733A6332F
:1056300000010001A92FD3D700010001AA51D8B45D
:1056400007D000010001AB6D0001AC1FD8B0AC2B3E
:10565000ABC0A4F0ACC0A5F0120003C007F0086A0C
:10566000096A0234073601E3088007500F6E0F669F
:1056700009D0000E016E000E026E000E036E000EC9
:10568000046E120006C007F0086A096A053407367E
:1056900001E3088007500E6E0E6609D0000E016E01
:1056A000000E026E000E036E000E046E1200028EDB
:1056B000FF0E0116FF0E0216000E0316058EFF0EDA
:1056C0000416FF0E0516000E0616000E0A6E000EDA
:1056D0000B6E000E0C6E000E0D6E7F0E0F5E0E50E8
:1056E000980F0F5E076E180E0E6E0750D8900A3690
:1056F0000B360C360D360450015C0550025806502E
:105700000358D8A007D00450015E0550025A065035
:10571000035A0A80D8900136023603360E2EE6D799
:105720000FAE19D00F50800A076EE90E800A075C91
:10573000D8B009D0000E016E000E026E000E036E8E
:10574000000E046E1200D8900D320C320B320A3269
:105750000F3EF9D714D0170E0F640FD0000E016E54
:10576000000E026E000E036E000E046E1200D89042
:105770000A360B360C360D360F060F66F8D70AC000
:1057800001F00BC002F00CC003F00DC004F01200D9
:10579000959095929594959696908D9096928D92DF
:1057A0003B0E0001AC6F700EE82EFED7AC2FFCD77D
:1057B0008D90030EC9EC36F0000E00010001AE6FB3
:1057C000000E0001AD6F00010001AE51800A800F94
:1057D000640ED8B4AD5DD8B008D0290EE82EFED73F
:1057E00000010001AD4BAE2BEED7030EC9EC36F035
:1057F000000E00010001B06F000E0001AF6F00014C
:105800000001B051800A800F0A0ED8B4AF5DD8B045
:1058100008D00C0EE82EFED700010001AF4BB02BD4
:10582000EED7030EC9EC36F0000E00010001B26F96
:10583000000E0001B16F00010001B251800A800F1B
:105840000A0ED8B4B15DD8B008D00C0EE82EFED741
:1058500000010001B14BB22BEED7020EC9EC36F0BD
:10586000000E00010001B46F000E0001B36F0001D3
:105870000001B451800A800F0A0ED8B4B35DD8B0CD
:1058800008D00C0EE82EFED700010001B34BB42B5C
:10589000EED7280E65EC35F0010E65EC35F0060EFE
:1058A00065EC35F00C0E65EC35F0DAEC32F01200F8
:1058B0003BEC38F00F0E056E890E046E91EC35F05E
:1058C0005D6E010E076E5D50000E01EC36F00001BA
:1058D000000E516E0001850E506E0F0E536EC50EF8
:1058E000526E000E416E020E406E000E426E200E91
:1058F000436E410E446EECEC2DF040C054F041C0BC
:1059000055F042C056F00AEC0FF00001000E056E93
:105910000001850E046E91EC35F0200E2DEC38F070
:105920000001000E516E0001850E506E0F0E536E79
:10593000C50E526E000E416E030E406E000E426E9A
:10594000200E436E410E446EECEC2DF040C054F03E
:1059500041C055F042C056F00AEC0FF00001000EB5
:10596000056E0001850E046E91EC35F0200E2DECD5
:1059700038F00001000E516E0001850E506E0F0EC2
:10598000536EC50E526E000E416E040E406E000E38
:10599000426E200E436E410E446EECEC2DF040C082
:1059A00054F041C055F042C056F00AEC0FF000012F
:1059B000000E056E0001850E046E91EC35F01200AC
:1059C0000001A16F000E00010001A36F0001A151B1
:1059D000000100019E51800AF36E800EF35C000E00
:1059E000D8B49D5DD8B00FD0000100019D6D0001BD
:1059F0009E1FD8B09E2B0001A16F010E0001000177
:105A0000A36F0001A15100010001A051800AF36EB3
:105A1000800EF35C000ED8B49F5DD8B007D00001B3
:105A200000019F6D0001A01FD8B0A02B0001000154
:105A3000A0519F11D8B43AD00001A16F010E00010E
:105A40000001A26F0001A15109D000010001000175
:105A5000D8909F37A03700010001A22B0001000160
:105A6000A0AFF3D7000100019F51000100019D5D2F
:105A700000010001A051000100019E59D8A00CD0E6
:105A8000000100019F51000100019D5F0001000124
:105A9000A051000100019E5B000100010001D890AF
:105AA000A0339F3300010001A22FDCD700010001C9
:105AB000A351D8B407D0000100019D6D00019E1FC5
:105AC000D8B09E2B9DC09DF09EC09EF01200000E8F
:105AD00000010001A66F000E0001A76F000E00017B
:105AE000A86F000E0001A96F00010001A451A111CF
:105AF000A211A311D8B467D00001A56F010E000157
:105B00000001AA6F0001A5510DD00001D89000013D
:105B1000A1370001A2370001A3370001A43700011B
:105B20000001AA2B00010001A4AFEFD70001D8901B
:105B30000001A6370001A7370001A8370001A937E7
:105B400000010001A151000100019D5D0001000163
:105B5000A251000100019E5900010001A351000162
:105B600000019F5900010001A45100010001A0594A
:105B7000D8A01BD000010001A151000100019D5FD0
:105B800000010001A251000100019E5B0001000123
:105B9000A351000100019F5B00010001A45100011D
:105BA0000001A05B00010001A6810001D890000166
:105BB000A4330001A3330001A2330001A13300018B
:105BC0000001AA2FB3D7A6C09DF0A7C09EF0A8C021
:105BD0009FF0A9C0A0F01200000E4D6E000E4E6E98
:105BE000000E4F6E000E4C6E000E4B6E4BC009F057
:105BF0004CC00AF0C9EC37F009C00EF00AC00FF033
:105C00000BC010F042C011F043C012F044C013F0BA
:105C100071EC33F0D8B037D040C03BF041C03CF01D
:105C2000B2EC37F03BC045F03CC046F03DC047F019
:105C30004DC009F04EC00AF04FC00BF045C00CF04B
:105C400046C00DF047C00EF0B4EC24F009C04DF092
:105C50000AC04EF00BC04FF04B4A4C2A4BC009F023
:105C60004CC00AF0C9EC37F009C00EF00AC00FF0C2
:105C70000BC010F042C011F043C012F044C013F04A
:105C800071EC33F0C7D74DC026F04EC027F04FC09F
:105C900028F042C029F043C02AF044C02BF0DDECCC
:105CA0002FF026C048F027C049F028C04AF0000E67
:105CB0004D6E000E4E6E000E4F6E48C035F049C05E
:105CC00036F04AC037F0BCEC35F035C040F036C095
:105CD00041F037C042F0120019C01DF01E6A1F6A61
:105CE00018341D3601E31E801D50206E206607D03B
:105CF000000E176E000E186E000E196E12001CC0FA
:105D00001DF01E6A1F6A1B341D3601E31E801D50E4
:105D1000256E256607D0000E176E000E186E000E59
:105D2000196E120025507B0F202619C025F01C503B
:105D3000251A800E2516188E1B8EFF0E1A16FF0EC2
:105D40001B16000E1C16000E216E000E226E000E99
:105D5000236E1D6E070E246E1D5017A006D01A501C
:105D600021261B5022221C502322D890193218328F
:105D70001732D8901A361B361C36242EEED71D6EDD
:105D8000090E246E1D5017A006D01A5021261B5054
:105D900022221C502322D890193218321732D89060
:105DA000233222322132242EEED721C001F022C02C
:105DB00002F023C003F020C004F025C005F0EAEC97
:105DC00031F001C017F002C018F003C019F0120042
:105DD0002FC031F0326A336A2E34313601E332801B
:105DE00031503B6E3B6609D0000E2D6E000E2E6EBC
:105DF000000E2F6E000E306E1200170E316E2DC089
:105E000032F02EC033F02FC034F03128356E04D07C
:105E1000D890343233323232352EFAD73250366E91
:105E20002E8EFF0E2D16FF0E2E16000E2F162D5045
:105E3000376E2E50386E2F50396E3A6A8E0E3B5E9A
:105E40003BAE19D03B50800A316EF10E800A315CB6
:105E5000D8B009D0000E2D6E000E2E6E000E2F6EE3
:105E6000000E306E1200D8903A3239323832373262
:105E70003B3EF9D714D0170E3B640FD0000E2D6EA9
:105E8000000E2E6E000E2F6E000E306E1200D89097
:105E90003736383639363A363B063B66F8D7365011
:105EA000D8B408D03A1E391E381E376C000E38227E
:105EB00039223A2237C02DF038C02EF039C02FF0E9
:105EC0003AC030F01200000100019FAF21D0000164
:105ED0009DC0A3F000019EC0A4F000019FC0A5F0EA
:105EE0000001A31FA41FA51FA32B000EA423A523FD
:105EF000000E0001A325000100019D6F000E0001AE
:105F0000A42100019E6F800E0001A52100019F6F5A
:105F100000010001A2AF21D00001A0C0A3F0000148
:105F2000A1C0A4F00001A2C0A5F00001A31FA41FFE
:105F3000A51FA32B000EA423A523000E0001A3255B
:105F400000010001A06F000E0001A4210001A16F5B
:105F5000800E0001A5210001A26F000E00010001CA
:105F60009D1B000E000100019E1B800E0001000120
:105F70009F1B000E00010001A01B000E000100018C
:105F8000A11B800E00010001A21B00010001A05115
:105F9000000100019D5D00010001A151000100010F
:105FA0009E5900010001A251000100019F59D8B083
:105FB00002D0D8901200D880120028C02CF02D6A90
:105FC0002E6A27342C3601E32D802C50336E336635
:105FD00007D0000E266E000E276E000E286E1200EF
:105FE0002BC02CF02D6A2E6A2A342C3601E32D802A
:105FF0002C50346E346607D0000E266E000E276ECD
:10600000000E286E1200000E306E000E316E000E73
:10601000326E3450890F335E28C034F02B50341A5E
:10602000800E3416278EFF0E2616FF0E2716000E42
:1060300028162A8EFF0E2916FF0E2A16000E2B1682
:106040002C6E180E2F6E2C50D890303631363236DA
:106050002950265C2A5027582B502858D8A007D002
:106060002950265E2A50275A2B50285A3080D89023
:106070002636273628362F2EE7D730C001F031C01C
:1060800002F032C003F033C004F034C005F0EAEC93
:1060900031F001C026F002C027F003C028F0120042
:1060A000000E00010001A26F000E0001A16F2CD0B4
:1060B000C294C296C298C29A0F010F0148911FD094
:1060C000C284C296C298C29A0F010F01489317D09A
:1060D000C294C286C298C29A0F010F0148950FD090
:1060E000C284C286C298C29A0F010F01489707D096
:1060F000C284C286C288C29A0F010F01489F0F0E48
:106100000F010F0149131CD000019DC09FF0000139
:106110009EC0A0F00001A051000AD8A411D0000137
:106120009F51000AD8B4C4D7010AD8B4C9D7030A0A
:10613000D8B4CED7010AD8B4D3D7070AD8B4D8D7A1
:10614000C29CC29EC18EC196C188C18AC190C192B3
:10615000C194C280C282C2B2FED7C4500001A06FF7
:106160009F6BC35000019F2500010001A16F000E2D
:106170000001A0210001A26FC290A1C09DF0A2C0A9
:106180009EF0120000010001B251AF11B011B11127
:10619000D8B45AD00001B36F010E00010001B46FF2
:1061A0000001B3510DD00001D8900001AF370001BC
:1061B000B0370001B1370001B23700010001B42B44
:1061C00000010001B2AFEFD700010001AF510001A3
:1061D0000001AB5D00010001B05100010001AC59AC
:1061E00000010001B15100010001AD5900010001A1
:1061F000B25100010001AE59D8A018D00001000131
:10620000AF5100010001AB5F00010001B05100017E
:106210000001AC5B00010001B15100010001AD5B68
:1062200000010001B25100010001AE5B0001D890F5
:106230000001B2330001B1330001B0330001AF33CC
:1062400000010001B42FC0D7ABC0ABF0ACC0ACF0C4
:10625000ADC0ADF0AEC0AEF01200000E066E000E86
:10626000056E2CD0C294C296C298C29A0F010F013B
:1062700048911FD0C284C296C298C29A0F010F01E2
:10628000489317D0C294C286C298C29A0F010F01D8
:1062900048950FD0C284C286C298C29A0F010F01DE
:1062A000489707D0C284C286C288C29A0F010F01E4
:1062B000489F0F0E0F010F01491318D001C003F0C2
:1062C00002C004F00450000AD8A410D00350000A01
:1062D000D8B4C8D7010AD8B4CDD7030AD8B4D2D716
:1062E000010AD8B4D7D7070AD8B4DCD7C29CC29E5B
:1062F000C18EC196C188C18AC190C192C194C28029
:10630000C282C2B2FED7C450046E036AC3500324D3
:10631000056E000E0420066EC29005C001F006C096
:1063200002F012000C6E000E0E6E0C500B50800A24
:10633000F36E800EF35C000ED8B40A5CD8B008D0BF
:106340000A6C0B1ED8B00B2A0C6E010E0E6E0C5090
:106350000950800AF36E800EF35C000ED8B4085C1E
:10636000D8B006D0086C091ED8B0092A010E0E1A42
:10637000000E106E000E0F6E0B500A10D8B41ED017
:106380000C6E010E0D6E0C5004D0D8900A360B36F0
:106390000D2A0BAEFAD7D8900F3610360A50085C8B
:1063A0000B500958D8A005D00A50085E0B50095A66
:1063B0000F80D8900B320A320D2EEDD70E50D8B484
:1063C00004D00F6C101ED8B0102A0FC008F010C0F7
:1063D00009F012000450D8B405D001500210031087
:1063E000D8A40CD0000E016E000E026E000E036EDB
:1063F0001200042AD890033202320132000E011436
:10640000066E000E0214076EFE0E0314086E065090
:1064100007100810D8B40CD0ECD7042A010E0126BE
:10642000000E0222000E0322D89003320232013203
:10643000000E0114066E000E0214076EFF0E031408
:10644000086E065007100810D8B406D0E6D7040628
:10645000D89001360236033602AEF9D704A0029E68
:10646000D8900432045003120550D8A4038E01C002
:1064700001F002C002F003C003F012000001A96F96
:106480008E0E00010001AD6F0001A9510DD0000179
:10649000D8900001A8330001A7330001A633000102
:1064A000A53300010001AD2B000E00010001A51570
:1064B0000001A96F000E00010001A6150001AA6FDE
:1064C000000E00010001A7150001AB6FFF0E0001D7
:1064D0000001A8150001AC6F0001AC51A911AA116F
:1064E000AB11D8A4D4D7A5C09DF0A6C09EF0A7C07C
:1064F0009FF0ADC0A0F00001A96F000E00010001E7
:10650000A16F0001A95159EC29F09DC0A5F09EC0D2
:10651000A6F09FC0A7F01200056E000E076E055092
:106520000250800AF36E800EF35C000ED8B4015C5A
:10653000D8B008D0016C021ED8B0022A056E010E38
:10654000076E05500450800AF36E800EF35C000E57
:10655000D8B4035CD8B004D0036C041ED8B0042AAD
:1065600004500310D8B41AD0056E010E066E055003
:1065700004D0D89003360436062A04AEFAD7035066
:10658000015C04500258D8A004D00350015E0450AE
:10659000025AD89004320332062EF1D70750D8B4ED
:1065A00004D0016C021ED8B0022A01C001F002C062
:1065B00002F012000001A96F000E00010001A36F9C
:1065C0000001A951000E06EC35F00F0E000100018C
:1065D000A16FBC0E00010001A06FD5EC34F00001EA
:1065E000A96F010E00010001A36F0001A951000E67
:1065F00006EC35F00F0E00010001A16F980E0001AE
:106600000001A06FD5EC34F0000E00010001AB6F6B
:10661000000E0001AA6F00010001AB51800A800F3B
:10662000640ED8B4AA5DD8B00ED0C30E0001A96F15
:10663000CD0EE82EFED7A92FFCD700F000010001F7
:10664000AA4BAB2BE8D7B7EC28F0120037EC38F0A8
:106650000001C26F000E00010001A36F0001C251D2
:10666000000E06EC35F00F0E00010001A16F770E51
:1066700000010001A06FD5EC34F00001C26F010EE3
:1066800000010001A36F0001C251000E06EC35F0BD
:106690000101010E010101013A6F01016B0E0101BF
:1066A0000101396F0F0E010101013C6FCB0E010199
:1066B00001013B6FBAEC21F026C13DF127C13EF14B
:1066C00028C13FF1E9EC07F00101010E00010001D2
:1066D000A16F01016B0E00010001A06FD5EC34F039
:1066E000120010AE16D00EC014F00FC015F010C07E
:1066F00016F0141E151E161E142A000E1522162240
:10670000000E14240E6E000E15200F6E800E162043
:10671000106E13AE16D011C014F012C015F013C0D5
:1067200016F0141E151E161E142A000E152216220F
:10673000000E1424116E000E1520126E800E16200D
:10674000136E000E0E1A000E0F1A800E101A000E95
:10675000111A000E121A800E131A11500E5C1250EC
:106760000F5813501058D8B002D0D8901200D880CB
:106770001200000E0A6E000E0B6E000E0C6E000E64
:106780000D6E0850051006100710D8B42CD0096EF5
:10679000010E0E6E095006D0D89005360636073623
:1067A00008360E2A08AEF8D7D8900A360B360C36C3
:1067B0000D360550015C065002580750035808502A
:1067C0000458D8A009D00550015E0650025A07505F
:1067D000035A0850045A0A80D89008320732063209
:1067E00005320E2EE1D70AC001F00BC002F00CC03A
:1067F00003F00DC004F012000001A86F000E0001AC
:106800000001A96F0001A85100010001A651800AF2
:10681000F36E800EF35C000ED8B4A55DD8B00FD037
:1068200000010001A56D0001A61FD8B0A62B000134
:10683000A86F010E00010001A96F0001A85100011D
:106840000001A5C09DF000010001A6C09EF000015E
:1068500000019F6B0001A86F8E0E00010001A06F68
:106860000001A851A9C0A1F059EC29F09DC0A5F0E4
:106870009EC0A6F09FC0A7F012001650131014106F
:106880001510D8B426D0176E010E186E175006D00A
:10689000D8901336143615361636182A16AEF8D791
:1068A00013500F5C145010581550115816501258B0
:1068B000D8A008D013500F5E1450105A1550115A1A
:1068C0001650125AD8901632153214321332182E2E
:1068D000E7D70FC00FF010C010F011C011F012C0B8
:1068E00012F012000D6E8E0E116E0D5006D0D89063
:1068F0000C320B320A320932112A000E09140D6EC5
:10690000000E0A140E6E000E0B140F6EFF0E0C1408
:10691000106E10500D100E100F10D8A4E8D709C03B
:1069200001F00AC002F00BC003F011C004F00D6EBC
:10693000000E056E0D50EAEC31F001C009F002C006
:106940000AF003C00BF0120000010001AD5100017C
