:040000004AEF00F0D3
:10000800FACF9CF0FBCF9DF0E9CF9EF0EACF9FF0AE
:10001800E1CFA0F0E2CFA1F0D9CFA2F0DACFA3F0E0
:10002800F3CFA4F0F4CFA5F0F6CFA6F0F7CFA7F062
:10003800F8CFA8F0F5CFA9F0F2A00BD0640EE82E07
:10004800FED781A8CAEC19F081AA40EC14F08150BF
:10005800F290A9C0F5FFA8C0F8FFA7C0F7FFA6C097
:10006800F6FFA5C0F4FFA4C0F3FFA3C0DAFFA2C047
:10007800D9FFA1C0E2FFA0C0E1FF9FC0EAFF9EC078
:10008800E9FF9DC0FBFF9CC0FAFF11004DEF1FF078
:100F000000010000000A00000064000000E8030087
:100F10000010270000A086010040420F0080969834
:100F20000000E1F50500CA9A3B00803FCDCC3DD7DB
:100F3000233C12833AB7D138C62737388635C0D616
:100F400033CC2B32708930E7DB2EE53C1E42A20DFC
:100F500000803F00204100C842007A44401C4650B7
:100F6000C34724744997184BBCBE4C6B6E4E031597
:100F70005079AD60F3497141636C6D747220766194
:100F80006C7565733A0053696E676820426520523C
:100F90006F73610074656D703A2025312E336600E1
:100FA0006C696768743A20256400526F62657269E3
:100FB0006E6F0025312E326600000001000E000128
:100FC00000017D6F0001640E000100017C6F85EF60
:100FD0000EF0000100019151250AD8B40DD060C077
:100FE000D9FF61C0DAFF000191C0DFFF00010001FD
:100FF000604B612B85EF0EF0000E00010001846F45
:10100000000E0001836F000E00010001826F000ED0
:101010000001816F000162C0F6FF000163C0F7FFAD
:10102000000EF86E0800F550DDEC1EF0D8A04BD095
:10103000000E00010001846F000E0001836F83C069
:1010400011F084C012F0000E146E0A0E136E5FECE5
:101050001EF011C083F012C084F0D00E0001676F43
:10106000FF0E686F000162C0F6FF000163C0F7FF6A
:10107000000EF86E0800F5500001696F6A6B000100
:101080006751000169270001685100016A230001CE
:10109000695100010001832700016A51000100012C
:1010A000842300010001624B632B000162C0F6FF44
:1010B000000163C0F7FF000EF86E0800F550DDEC8C
:1010C0001EF0D8B0BCD7000162C0F6FF000163C0BB
:1010D000F7FF000EF86E0800F5502E0AD8A442D093
:1010E00000010001828D00010001624B632B000EA4
:1010F00000010001906F000E00018F6F24D08FC09F
:1011000011F090C012F0000E146E0A0E136E5FEC18
:101110001EF0000162C0F6FF000163C0F7FF000E81
:10112000F86E0800F5501126000E1222D00E112480
:10113000000100018F6FFF0E12200001906F00016F
:101140000001624B632B000162C0F6FF000163C027
:10115000F7FF000EF86E0800F550DDEC1EF0D8A089
:1011600010D0CDD7000E00010001906F000E0001DD
:101170008F6F00010001828904D000010001828587
:1011800027D00001000162510001676F00010001DA
:1011900063510001686F0001624B632B67C0F6FF6B
:1011A00068C0F7FF000EF86E08000001F5CF91F05F
:1011B00000019151000AD8B4A0EF0EF0640AD8B42F
:1011C00007D0020AD8B4D9D70F0AD8A485EF0EF0F9
:1011D000070E000100018215D8B4D4D3000100012C
:1011E00082A907D0000E00010001906F060E0001D9
:1011F0008F6F7CC0D9FF7DC0DAFF0001DECF8CF09D
:101200000001DECF8DF00001DDCF8EF0030E000176
:1012100000017C27000E00017D23000100018E519A
:10122000800A800F07E1000E00018D5D03E1000ED2
:1012300000018C5DD8B012D08CC001F08DC002F0DE
:101240008EC003F0F2EC1EF001C08CF002C08DF0F5
:1012500003C08EF0030E000100018113000E000197
:1012600000018B6F000E00018A6F7F0E00010001EC
:101270008E1500018D1100018C11D8B49DD0820E05
:101280000001676FFF0E686F00018CC069F00001FC
:101290008DC06AF000018EC06BF000018FC06CF051
:1012A000100E06D00001D8906C336B336A3369336B
:1012B000E82EF8D7000169510001672500010001FF
:1012C0008A6F00010001000E68218B6F0001000190
:1012D0008A07D8A08B078AC011F08BC012F0000ECD
:1012E000146E030E136E5FEC1EF011C08AF012C074
:1012F0008BF08AC008F08BC009F0000E0B6E0A0E4E
:101300000A6E72EC19F008C08AF009C08BF0000177
:1013100000018B51800AF36E800EF35C000ED8B48E
:101320008A5DD8B005D0000100018A07D8A08B07DC
:10133000000100018A510008A7EC0EF026C07EF0E3
:1013400027C07FF028C080F00001000E276E00014A
:101350007E0E266E8CC028F08DC029F08EC02AF03B
:1013600023EC1EF07EC00EF07FC00FF080C010F0A6
:10137000000E116E800E126E3F0E136E0FEC1BF0FE
:10138000D8B006D0000100018A07D8A08B0714D07E
:101390007EC00EF07FC00FF080C010F0000E116E06
:1013A000200E126E410E136E0FEC1BF0D8A004D06D
:1013B000000100018A4B8B2B000100019051800A33
:1013C000F36E800EF35C0D0ED8B48F5DD8B013D0E1
:1013D0000001000E336E00018C0E326E0001000120
:1013E0008F51D0EC10F026C034F027C035F028C063
:1013F00036F041EC1EF0000100018B51800AF36EC3
:10140000800EF35C0A0ED8B48A5DD8B02BD07F0E64
:10141000000100018E1500018D1100018C11D8B45E
:1014200071D08CC02DF08DC02EF08EC02FF01FEC2F
:1014300018F02DC067F02EC068F02FC069F030C0E2
:101440006AF000016A51671168116911D8A45AD075
:10145000000100018B51800A800F020ED8B48A5D12
:10146000D8A050D07EC00EF07FC00FF080C010F02A
:10147000700E116E890E126E400E136E0FEC1BF083
:10148000D8B003D00001F70E02D00001F80E000121
:101490008A27FF0E00018B23000100018A51A7EC6F
:1014A0000EF026C07EF027C07FF028C080F08CC0F0
:1014B00001F08DC002F08EC003F07EC004F07FC04A
:1014C00005F080C006F0E0EC14F001C070F002C03E
:1014D00071F003C072F004C073F070C085F071C089
:1014E00086F072C087F073C088F0000E0001000122
:1014F0008C6F000E000100018D6F000E00010001D5
:101500008E6F2FD08CC02DF08DC02EF08EC02FF09E
:101510001FEC18F02DC085F02EC086F02FC087F08C
:1015200030C088F00001000E396E00018C0E386E5C
:1015300085C009F086C00AF087C00BF088C00CF0A7
:101540000FEC1CF009C03AF00AC03BF00BC03CF0B5
:1015500005EC1EF0000E000100018B6F000E000173
:101560008A6F0001676F010E00010001916F000199
:1015700067510001000191510A0AD8B424D000013A
:1015800000019151040D010EF324F66E0F0EF420AC
:10159000F76EF86A000EF8220900F550000100010C
:1015A000855D0900F550000186590900F5500001DC
:1015B00087590900F55000018859D8A004D00001CE
:1015C0000001912BD6D7000191C067F00001686B34
:1015D00067BF6807000100018F5100016727000104
:1015E0000001905100016823000100018A510001AF
:1015F0006727000100018B5100016823000167513A
:1016000000010001835F0001685100010001845B5B
:101610000001000190518F11D8B405D000010001E4
:101620008307D8A08407030E000100018115000183
:10163000676F000E0001000182150001686F000154
:1016400068516711D8B410D00AD060C0D9FF61C00A
:10165000DAFF200EDF6E00010001604B612B0001FC
:1016600000018307D8A08407000100018451800A8B
:10167000F36E800EF35C010ED8B4835DD8B0E5D76D
:10168000030E0001000181150001676F000E0001CB
:10169000000182150001686F000168516711D8B41C
:1016A00058D060C0D9FF61C0DAFF2D0E4DD085C083
:1016B00001F086C002F087C003F088C004F000018A
:1016C00000019151040D010EF324F66E0F0EF4206B
:1016D000F76EF86A000EF8220900F5CF05F0090050
:1016E000F5CF06F00900F5CF07F00A00F5CF08F0B6
:1016F00057EC1BF001C074F002C075F003C076F027
:1017000004C077F074C00FF075C010F076C011F00F
:1017100077C012F00A0E136E000E146E000E156ED6
:10172000000E166EDAEC1BF00FC074F010C075F0EE
:1017300011C076F012C077F0000100017451300F33
:1017400060C0D9FF61C0DAFFDF6E00010001604BAD
:10175000612B00010001910700019129D8B410D03C
:10176000A6D760C0D9FF61C0DAFF300EDF6E00017E
:101770000001604B612B000100018A07D8A08B0794
:10178000000100018B51800AF36E800EF35C010EA4
:10179000D8B48A5DD8B0E5D7000100019051800A25
:1017A000800F090ED8B48F5DD8A009D00001676FF3
:1017B000080E00010001916F0001675102D08FC037
:1017C00091F0000100019151000100018F5F000EB6
:1017D000000191BFFF0E00010001905B00010001BC
:1017E0009151D8B40AD060C0D9FF61C0DAFF2E0E83
:1017F000DF6E00010001604B612B0001000191517F
:10180000A7EC0EF026C06DF027C06EF028C06FF078
:101810008CC01AF08DC01BF08EC01CF06DC017F08C
:101820006EC018F06FC019F0A3EC17F017C02DF0C0
:1018300018C02EF019C02FF01FEC18F02DC085F045
:101840002EC086F02FC087F030C088F07DD085C0D4
:1018500001F086C002F087C003F088C004F00001E8
:1018600000019151040D010EF324F66E0F0EF420C9
:10187000F76EF86A000EF8220900F5CF05F00900AE
:10188000F5CF06F00900F5CF07F00A00F5CF08F014
:1018900057EC1BF001C078F002C079F003C07AF079
:1018A00004C07BF078C00FF079C010F07AC011F05E
:1018B0007BC012F00A0E136E000E146E000E156E31
:1018C000000E166EDAEC1BF00FC078F010C079F045
:1018D00011C07AF012C07BF0000100017851300F86
:1018E00060C0D9FF61C0DAFFDF6E00010001604B0C
:1018F000612B85C00FF086C010F087C011F088C042
:1019000012F0000100019151040D010EF324F66E56
:101910000F0EF420F76EF86A000EF8220900F5CFDA
:1019200013F00900F5CF14F00900F5CF15F00A0007
:10193000F5CF16F0DAEC1BF00FC085F010C086F082
:1019400011C087F012C088F000010001910700016A
:101950009129D8B410D07BD760C0D9FF61C0DAFF1D
:10196000300EDF6E00010001604B612B00010001B1
:101970008F07D8A090070001000190518F11D8B4B3
:10198000C4D1EAD77CC0D9FF7DC0DAFF0001DECF29
:1019900085F00001DDCF86F00001000E000186BF5A
:1019A000FF0E0001876F0001886F020E0001000129
:1019B0007C27000E00017D23000100018851800A70
:1019C000800F0BE1000E0001875D07E1000E0001B2
:1019D000865D03E1000E0001855DD8B014D0030ED2
:1019E00000010001811300010001881F0001871F11
:1019F0000001861F0001856D000E00018623000195
:101A00008723000188230001000190518F11D8A481
:101A10000CD0000100018851851186118711D8A4CE
:101A200004D0000100018F4B902B0001676F010E65
:101A300000010001916F0001675100010001915107
:101A40000A0AD8B424D0000100019151040D010EFE
:101A5000F324F66E0F0EF420F76EF86A000EF822EB
:101A60000900F55000010001855D0900F5500001F5
:101A700086590900F550000187590900F550000109
:101A80008859D8A004D000010001912BD6D7800E30
:101A90000001000191BF7F0E676F000100018F51AF
:101AA00000010001915D000100019051800A0001D8
:101AB0006759D8B003D08FC091F020D00001000149
:101AC0009051800A0001676F0001000191510001EF
:101AD00000018F5D800E0001000191BF7F0E0001AB
:101AE0006759D8B00BD000010001915100010001ED
:101AF0008F6F0001906B00018FBF90070001000104
:101B000084518311D8B416D0030E00010001811551
:101B10000001676F000E0001000182150001686F6F
:101B2000000168516711D8B405D000010001830796
:101B3000D8A084070001000182AD28D00001000177
:101B40009051800A0001676F00010001835100017C
:101B500000018F5D000100018451800A0001675976
:101B6000D8B00DD0000100018F5100010001835F4A
:101B700000010001905100010001845B07D0000EBC
:101B800000010001846F000E0001836F800E0001D0
:101B9000000191BF7F0E676F0001000183510001BA
:101BA0000001915D000100018451800A0001675924
:101BB000D8B00ED000010001915100010001835FF7
:101BC000000E000191BFFF0E00010001845B07D0F1
:101BD000000E00010001846F000E0001836F000100
:101BE000000184518311D8B414D060C0D9FF61C002
:101BF000DAFF200EDF6E00010001604B612B000157
:101C000000018307D8A08407000184518311D8A460
:101C1000ECD7030E0001000181150001676F000E73
:101C20000001000182150001686F00016851671111
:101C3000D8B460D060C0D9FF61C0DAFF2D0EDF6E6E
:101C400055D000018FC067F0000190C068F000011E
:101C5000D890673768370001D89067376837010E2A
:101C600000016725F66E0F0E6821F76EF86A000E08
:101C7000F8220900F5CF05F00900F5CF06F00900BC
:101C8000F5CF07F00A00F5CF08F085C001F086C057
:101C900002F087C003F088C004F057EC1BF001C0CD
:101CA0000FF002C010F003C011F004C012F00A0ED1
:101CB000136E000E146E000E156E000E166EDAEC2A
:101CC0001BF00FC069F010C06AF011C06BF012C0B9
:101CD0006CF000016951300F00010001916F60C08C
:101CE000D9FF61C0DAFF000191C0DFFF00010001F0
:101CF000604B612B000100018F07D8A09007000105
:101D00008F29D8B49029D8A49CD700010001625132
:101D10000001676F0001000163510001686F00015D
:101D2000624B632B67C0F6FF68C0F7FF000EF86ECA
:101D300008000001F5CF91F000019167E9EF07F08D
:101D400060C0D9FF61C0DAFF000EDF6E1200E8CF7D
:101D50002CF02CAE13D12C6C2C50800A120FD8A072
:101D60009AD0000E146E030E136E000E0B6E0A0E48
:101D70000A6E000E046E640E036E2C50016E026A31
:101D800001BE020675EC1AF001C008F002C009F0AD
:101D900072EC19F0090E0824116E000E0920126E63
:101DA0005FEC1EF0290E1124F66E0F0E1220F76E56
:101DB000F86A000EF8220900F5CF1AF00900F5CFF5
:101DC0001BF00A00F5CF1CF0000E146E030E136E0C
:101DD000000E0B6E640E0A6E2C50086E096A08BE67
:101DE000090672EC19F0120E0824116E000E09207B
:101DF000126E5FEC1EF0290E1124F66E0F0E1220EB
:101E0000F76EF86A000EF8220900F5CF17F0090006
:101E1000F5CF18F00A00F5CF19F0A3EC17F017C0B2
:101E200029F018C02AF019C02BF029C017F02AC0D9
:101E300018F02BC019F0000E146E030E136E000E76
:101E4000046E0A0E036E2C50016E026A01BE020679
:101E500075EC1AF001C011F002C012F05FEC1EF038
:101E6000290E1124F66E0F0E1220F76EF86A000E7E
:101E7000F8220900F5CF1AF00900F5CF1BF00A008F
:101E8000F5CF1CF0A3EC17F017C026F018C027F010
:101E900019C028F012002C50800A750FD8A059D014
:101EA000000E146E030E136E000E0B6E0A0E0A6EF9
:101EB0002C50086E096A08BE090672EC19F0090E6A
:101EC0000824116E000E0920126E5FEC1EF0290E20
:101ED0001124F66E0F0E1220F76EF86A000EF8222B
:101EE0000900F5CF17F00900F5CF18F00A00F5CF7B
:101EF00019F0000E146E030E136E000E046E0A0E1F
:101F0000036E2C50016E026A01BE020675EC1AF0D7
:101F100001C011F002C012F05FEC1EF0290E112476
:101F2000F66E0F0E1220F76EF86A000EF822090006
:101F3000F5CF1AF00900F5CF1BF00A00F5CF1CF021
:101F4000A3EC17F017C026F018C027F019C028F02E
:101F500012002C50030D290EF324F66E0F0EF42000
:101F6000F76EF86A000EF8220900F5CF26F0090096
:101F7000F5CF27F00A00F5CF28F012002C50800A88
:101F8000120FD8A09AD0000E146E030E136E000E1E
:101F90000B6E0A0E0A6E000E046E640E036E2C5059
:101FA000016E026A01BE020675EC1AF001C008F06B
:101FB00002C009F072EC19F0090E0824116E000E2F
:101FC0000920126E5FEC1EF0500E1124F66E0F0EFB
:101FD0001220F76EF86A000EF8220900F5CF1AF009
:101FE0000900F5CF1BF00A00F5CF1CF0000E146EAF
:101FF000030E136E000E0B6E640E0A6E2C50086EEC
:10200000096A08BE090672EC19F0120E0824116E56
:10201000000E0920126E5FEC1EF0500E1124F66EB9
:102020000F0E1220F76EF86A000EF8220900F5CFA5
:1020300017F00900F5CF18F00A00F5CF19F0A3EC5E
:1020400017F017C029F018C02AF019C02BF029C0CA
:1020500017F02AC018F02BC019F0000E146E030EF2
:10206000136E000E046E0A0E036E2C50016E026A8F
:1020700001BE020675EC1AF001C011F002C012F0A8
:102080005FEC1EF0500E1124F66E0F0E1220F76E4C
:10209000F86A000EF8220900F5CF1AF00900F5CF12
:1020A0001BF00A00F5CF1CF0A3EC17F017C026F0C8
:1020B00018C027F019C028F012002C50800A750FA4
:1020C000D8A059D0000E146E030E136E000E0B6EC6
:1020D0000A0E0A6E2C50086E096A08BE090672ECD8
:1020E00019F0090E0824116E000E0920126E5FEC23
:1020F0001EF0500E1124F66E0F0E1220F76EF86AC5
:10210000000EF8220900F5CF17F00900F5CF18F0FE
:102110000A00F5CF19F0000E146E030E136E000EB8
:10212000046E0A0E036E2C50016E026A01BE020696
:1021300075EC1AF001C011F002C012F05FEC1EF055
:10214000500E1124F66E0F0E1220F76EF86A000E74
:10215000F8220900F5CF1AF00900F5CF1BF00A00AC
:10216000F5CF1CF0A3EC17F017C026F018C027F02D
:1021700019C028F012002C50030D500EF324F66EF7
:102180000F0EF420F76EF86A000EF8220900F5CF62
:1021900026F00900F5CF27F00A00F5CF28F012004D
:1021A000E8CF2FF06D0E2F64A8D0000E146E030E32
:1021B000136E000E0B6E0A0E0A6E000E046E640E95
:1021C000036E2FC001F0026A75EC1AF001C008F02E
:1021D00002C009F072EC19F0090E0824116E000E0D
:1021E0000920126E5FEC1EF0290E1124F66E0F0E00
:1021F0001220F76EF86A000EF8220900F5CF1AF0E7
:102200000900F5CF1BF00A00F5CF1CF0000E146E8C
:10221000030E136E000E0B6E640E0A6E2FC008F0D4
:10222000096A72EC19F0120E0824116E000E0920D2
:10223000126E5FEC1EF0290E1124F66E0F0E1220A6
:10224000F76EF86A000EF8220900F5CF17F00900C2
:10225000F5CF18F00A00F5CF19F0A3EC17F017C06E
:102260002CF018C02DF019C02EF0000E146E030EC5
:10227000136E000E046E0A0E036E2FC001F0026A88
:1022800075EC1AF001C011F002C012F05FEC1EF004
:10229000290E1124F66E0F0E1220F76EF86A000E4A
:1022A000F8220900F5CF1AF00900F5CF1BF00A005B
:1022B000F5CF1CF02CC017F02DC018F02EC019F06F
:1022C000A3EC17F017C029F018C02AF019C02BF0A2
:1022D00029C017F02AC018F02BC019F0000E1A6E92
:1022E000000E1B6E3F0E1C6EA3EC17F017C026F0FD
:1022F00018C027F019C028F012000A0E2F6469D008
:10230000000E146E030E136E000E046E0A0E036EA2
:102310002FC001F0026A75EC1AF001C011F002C082
:1023200012F05FEC1EF0290E1124F66E0F0E122033
:10233000F76EF86A000EF8220900F5CF1AF00900CE
:10234000F5CF1BF00A00F5CF1CF0000E146E030E43
:10235000136E000E0B6E0A0E0A6E2FC008F0096A8B
:1023600072EC19F0090E0824116E000E0920126E8D
:102370005FEC1EF0290E1124F66E0F0E1220F76E80
:10238000F86A000EF8220900F5CF17F00900F5CF22
:1023900018F00A00F5CF19F0A3EC17F017C02CF0D5
:1023A00018C02DF019C02EF02CC017F02DC018F059
:1023B0002EC019F0000E1A6E000E1B6E3F0E1C6E22
:1023C000A3EC17F017C026F018C027F019C028F0AA
:1023D00012002F50030D290EF324F66E0F0EF42079
:1023E000F76EF86A000EF8220900F5CF17F0090021
:1023F000F5CF18F00A00F5CF19F0000E1A6E000E96
:102400001B6E3F0E1C6EA3EC17F017C026F018C011
:1024100027F019C028F0120028C02CF02D6A2E6A6F
:1024200027342C3601E32D802C50316E2BC02CF03C
:102430002D6A2E6A2A342C3601E32D802C50306E02
:102440003150D8B40CD03050315CD8B00FD03150AE
:10245000000830242C6E190E2C5CD8A007D029C09F
:1024600026F02AC027F02BC028F012003050D8B434
:102470000CD03150305CD8B00FD03050000831242F
:102480002C6E190E2C5CD8A007D026C026F027C0D1
:1024900027F028C028F012002C6E060E2F6E2C504C
:1024A00028BE2F8E2BBE2F8C278EFF0E2616FF0EDA
:1024B0002716000E28162A8EFF0E2916FF0E2A1642
:1024C000000E2B163050315CD8B01AD0D890293677
:1024D0002A362B36300630503118D8B40DD02F069E
:1024E0002FC02CF0070E2C16D8B406D0EFD7D890FA
:1024F000283227322632312A30503162F8D71DD0A7
:102500003150305CD8B019D0D890263627362836CE
:10251000310630503118D8B40DD02F062FC02CF012
:10252000070E2C16D8B406D0EFD7D8902B322A320B
:102530002932302A30503162F8D72FAE0CD0FF0E3E
:10254000261AFF0E271AFF0E281A010E2626000E45
:102550002722000E28222FAC0CD0FF0E291AFF0EC6
:102560002A1AFF0E2B1A010E2926000E2A22000E0F
:102570002B222C6E000E2F6E2C5026502926275011
:102580002A2228502B222BAE10D0FF0E291AFF0E24
:102590002A1AFF0E2B1A010E2926000E2A22000EDF
:1025A0002B222C6E010E2F6E2C5029C001F02AC058
:1025B00002F02BC003F031C004F02FC005F021EC75
:1025C0001AF001C026F002C027F003C028F0120064
:1025D00001C007F002C008F003C009F004C00AF00F
:1025E000180E05D0D8900A32093208320732E82E88
:1025F000F9D70750106E106609D0000E016E000E5C
:10260000026E000E036E000E046E120004C007F08E
:1026100005C008F006C009F007C00AF0180E05D082
:10262000D8900A32093208320732E82EF9D707501B
:102630000F6E0F6609D0000E016E000E026E000EC6
:10264000036E000E046E1200038EFF0E0116FF0EC5
:102650000216FF0E0316000E0416068EFF0E041659
:10266000FF0E0516FF0E0616000E0716000E0B6E67
:10267000000E0C6E000E0D6E000E0E6E7F0E105EC4
:102680000F50A00F105E076E200E0F6E0750D890EF
:102690000B360C360D360E360450015C05500258D0
:1026A0000650035807500458D8A009D00450015EC2
:1026B0000550025A0650035A0750045A0B80D8900E
:1026C00001360236033604360F2EE1D710AE19D08C
:1026D0001050800A076EE10E800A075CD8B009D05E
:1026E000000E016E000E026E000E036E000E046EF0
:1026F0001200D8900E320D320C320B32103EF9D748
:1027000014D01F0E10640FD0000E016E000E026E6A
:10271000000E036E000E046E1200D8900B360C36BD
:102720000D360E3610061066F8D70BC001F00CC03F
:1027300002F00DC003F00EC004F01200000E000104
:102740000001B56F000E0001B46F00010001B5512A
:10275000800A800F100ED8B4B45DD8B01ED000012E
:10276000B36F000E00010001B06F0001B351000112
:102770000001B45172EC1CF02D0E24EC1FF04E0E33
:102780000001B36FEB0EE82EFED7B32FFCD700F09D
:1027900000010001B44BB52BD8D7000E0001000199
:1027A000B56F000E0001B46F00010001B551800A41
:1027B000800F100ED8B4B45DD8B030D00001B36F24
:1027C000000E00010001B06F0001B35100010001D3
:1027D000B45172EC1CF0200E24EC1FF00001B36F1A
:1027E000010E00010001B06F0001B35100010001B2
:1027F000B4510008100F72EC1CF02D0E24EC1FF0E9
:102800004E0E0001B36FEB0EE82EFED7B32FFCD7B0
:1028100000F000010001B44BB52BC6D7000E00013B
:102820000001B56F000E0001B46F00010001B55149
:10283000800A800F100ED8B4B45DD8B01ED000014D
:10284000B36F010E00010001B06F0001B351000130
:102850000001B45172EC1CF0200E24EC1FF04E0E5F
:102860000001B36FEB0EE82EFED7B32FFCD700F0BC
:1028700000010001B44BB52BD8D745EC1FF0120076
:1028800049EC1FF00F0E056E770E046E28EC1DF05C
:102890005C6E010E076E5C50000EA0EC1DF0000196
:1028A000000E00010001616F0001920E00010001A5
:1028B000606F0F0E00010001636FB30E0001000195
:1028C000626F000E4D6E020E4C6E000E4E6E200EAC
:1028D0004F6E410E506E23EC17F04CC064F04DC0AB
:1028E00065F04EC066F0DDEC07F00001000E056EED
:1028F0000001920E046E28EC1DF0200E3BEC1FF040
:102900000001000E00010001616F0001920E000144
:102910000001606F0F0E00010001636FB30E000134
:102920000001626F000E4D6E030E4C6E000E4E6E77
:10293000200E4F6E410E506E23EC17F04CC064F029
:102940004DC065F04EC066F0DDEC07F00001000EF2
:10295000056E0001920E046E28EC1DF0200E3BEC7B
:102960001FF00001000E00010001616F0001920ED6
:1029700000010001606F0F0E00010001636FB30ED4
:1029800000010001626F000E4D6E040E4C6E000ED1
:102990004E6E200E4F6E410E506E23EC17F04CC061
:1029A00064F04DC065F04EC066F0DDEC07F000014C
:1029B000000E056E0001920E046E28EC1DF0120050
:1029C00003C007F0086A096A0234073601E3088089
:1029D00007500F6E0F6609D0000E016E000E026EDA
:1029E000000E036E000E046E120006C007F0086AA7
:1029F000096A0534073601E3088007500E6E0E663B
:102A000009D0000E016E000E026E000E036E000E65
:102A1000046E1200028EFF0E0116FF0E0216000E4B
:102A20000316058EFF0E0416FF0E0516000E061681
:102A3000000E0A6E000E0B6E000E0C6E000E0D6E78
:102A40007F0E0F5E0E50980F0F5E076E180E0E6E03
:102A50000750D8900A360B360C360D360450015C00
:102A60000550025806500358D8A007D00450015E04
:102A70000550025A0650035A0A80D8900136023691
:102A800003360E2EE6D70FAE19D00F50800A076E10
:102A9000E90E800A075CD8B009D0000E016E000E66
:102AA000026E000E036E000E046E1200D8900D32FE
:102AB0000C320B320A320F3EF9D714D0170E0F64C6
:102AC0000FD0000E016E000E026E000E036E000E9F
:102AD000046E1200D8900A360B360C360D360F06EF
:102AE0000F66F8D70AC001F00BC002F00CC003F06B
:102AF0000DC004F01200000E496E000E4A6E000E6A
:102B00004B6E000E486E000E476E4850800A800FD4
:102B1000050ED8B4475CD8B023D0000E026E000E6C
:102B2000016E0DEC19F001C009F002C00AF053EC7F
:102B30001DF009C026F00AC027F00BC028F049C0DC
:102B400029F04AC02AF04BC02BF00CEC12F026C042
:102B500049F027C04AF028C04BF0474A482AD5D749
:102B600049C032F04AC033F04BC034F0000E356E2D
:102B7000A00E366E400E376E9AEC18F032C049F057
:102B800033C04AF034C04BF0330E1A6E530E1B6E36
:102B9000400E1C6E49C017F04AC018F04BC019F027
:102BA000A3EC17F017C032F018C033F019C034F09E
:102BB000000E356E800E366E450E376E9AEC18F0AC
:102BC00032C049F033C04AF034C04BF0740E1A6E74
:102BD000910E1B6E410E1C6E49C017F04AC018F0D2
:102BE0004BC019F0A3EC17F017C026F018C027F05F
:102BF00019C028F0000E296E200E2A6EC10E2B6E11
:102C00000CEC12F026C044F027C045F028C046F076
:102C100044C041F045C042F046C043F012009590D8
:102C200095929594959696908D9096928D923B0E56
:102C30000101036F700EE82EFED7032FFCD78D9095
:102C4000030EE4EC1DF0000E01010101056F000E02
:102C50000101046F010101010551800A800F640E1A
:102C6000D8B4045DD8B008D0290EE82EFED70101F3
:102C70000101044B052BEED7030EE4EC1DF0000E12
:102C800001010101076F000E0101066F0101010141
:102C90000751800A800F0A0ED8B4065DD8B008D05C
:102CA0000C0EE82EFED701010101064B072BEED7D3
:102CB000030EE4EC1DF0000E01010101096F000E8E
:102CC0000101086F010101010951800A800F0A0EFC
:102CD000D8B4085DD8B008D00C0EE82EFED701019C
:102CE0000101084B092BEED7020EE4EC1DF0000E9B
:102CF000010101010B6F000E01010A6F01010101C9
:102D00000B51800A800F0A0ED8B40A5DD8B008D0E3
:102D10000C0EE82EFED7010101010A4B0B2BEED75A
:102D2000280ED1EC1CF0010ED1EC1CF0060ED1ECFB
:102D30001CF00C0ED1EC1CF0C3EC1AF01200156E56
:102D4000000E176E15501450800A800F08E1000E17
:102D5000135C05E1000E125C02E1000E115CD8B0BC
:102D60000CD0141E131E121E116C000E1222132200
:102D70001422156E010E176E15501050800A800F28
:102D800008E1000E0F5C05E1000E0E5C02E1000E92
:102D90000D5CD8B00AD0101E0F1E0E1E0D6C000E5A
:102DA0000E220F221022010E171A000E186E000EAE
:102DB000196E000E1A6E000E1B6E145011101210B8
:102DC0001310D8B42CD0156E010E166E155006D007
:102DD000D8901136123613361436162A14AEF8D798
:102DE000D890183619361A361B3611500D5C125011
:102DF0000E5813500F5814501058D8A009D0115025
:102E00000D5E12500E5A13500F5A1450105A18805B
:102E1000D8901432133212321132162EE1D71750D5
:102E2000D8B408D01B1E1A1E191E186C000E1922C9
:102E30001A221B2218C00DF019C00EF01AC00FF094
:102E40001BC010F01200000E596E000E5A6E000EDC
:102E50005B6E000E586E000E576E57C009F058C0DA
:102E60000AF0C7EC1EF009C00EF00AC00FF00BC04C
:102E700010F04EC011F04FC012F050C013F00FEC24
:102E80001BF0D8B037D04CC047F04DC048F0B0EC84
:102E90001EF047C051F048C052F049C053F059C02D
:102EA00026F05AC027F05BC028F051C029F052C06C
:102EB0002AF053C02BF00CEC12F026C059F027C0BA
:102EC0005AF028C05BF0574A582A57C009F058C03A
:102ED0000AF0C7EC1EF009C00EF00AC00FF00BC0DC
:102EE00010F04EC011F04FC012F050C013F00FECB4
:102EF0001BF0C7D759C032F05AC033F05BC034F072
:102F00004EC035F04FC036F050C037F09AEC18F094
:102F100032C054F033C055F034C056F0000E596E34
:102F2000000E5A6E000E5B6E54C041F055C042F068
:102F300056C043F07DEC1DF041C04CF042C04DF056
:102F400043C04EF0120019C01DF01E6A1F6A1834EB
:102F50001D3601E31E801D50206E206607D0000E36
:102F6000176E000E186E000E196E12001CC01DF0B8
:102F70001E6A1F6A1B341D3601E31E801D50256E1C
:102F8000256607D0000E176E000E186E000E196E23
:102F9000120025507B0F202619C025F01C50251A41
:102FA000800E2516188E1B8EFF0E1A16FF0E1B168E
:102FB000000E1C16000E216E000E226E000E236EF7
:102FC0001D6E070E246E1D5017A006D01A50212624
:102FD0001B5022221C502322D8901932183217324B
:102FE000D8901A361B361C36242EEED71D6E090ECD
:102FF000246E1D5017A006D01A5021261B502222E5
:103000001C502322D890193218321732D89023320C
:1030100022322132242EEED721C001F022C002F04C
:1030200023C003F020C004F025C005F021EC1AF005
:1030300001C017F002C018F003C019F012002FC031
:1030400031F0326A336A2E34313601E33280315046
:103050003B6E3B6609D0000E2D6E000E2E6E000EEC
:103060002F6E000E306E1200170E316E2DC032F032
:103070002EC033F02FC034F03128356E04D0D890F4
:10308000343233323232352EFAD73250366E2E8EFB
:10309000FF0E2D16FF0E2E16000E2F162D50376E1A
:1030A0002E50386E2F50396E3A6A8E0E3B5E3BAE14
:1030B00019D03B50800A316EF10E800A315CD8B0D5
:1030C00009D0000E2D6E000E2E6E000E2F6E000E1B
:1030D000306E1200D8903A323932383237323B3EB5
:1030E000F9D714D0170E3B640FD0000E2D6E000ED2
:1030F0002E6E000E2F6E000E306E1200D8903736F6
:10310000383639363A363B063B66F8D73650D8B4AF
:1031100008D03A1E391E381E376C000E382239226C
:103120003A2237C02DF038C02EF039C02FF03AC007
:1031300030F0120034C038F0396A3A6A3334383625
:1031400001E3398038503F6E3F6607D0000E326E83
:10315000000E336E000E346E120037C038F0396A3C
:103160003A6A3634383601E339803850406E40666A
:1031700007D0000E326E000E336E000E346E120059
:10318000000E3C6E000E3D6E000E3E6E4050890FEC
:103190003F5E34C040F03750401A800E4016338EE8
:1031A000FF0E3216FF0E3316000E3416368EFF0E4B
:1031B0003516FF0E3616000E3716386E180E3B6E9B
:1031C0003850D8903C363D363E363550325C36501D
:1031D000335837503458D8A007D03550325E365067
:1031E000335A3750345A3C80D890323633363436DE
:1031F0003B2EE7D73CC001F03DC002F03EC003F0DB
:103200003FC004F040C005F021EC1AF001C032F0DC
:1032100002C033F003C034F01200000E066E000E40
:10322000056E2CD0C294C296C298C29A0F010F01AB
:1032300048911FD0C284C296C298C29A0F010F0152
:10324000489317D0C294C286C298C29A0F010F0148
:1032500048950FD0C284C286C298C29A0F010F014E
:10326000489707D0C284C286C288C29A0F010F0154
:10327000489F0F0E0F010F01491318D001C003F032
:1032800002C004F00450000AD8A410D00350000A71
:10329000D8B4C8D7010AD8B4CDD7030AD8B4D2D786
:1032A000010AD8B4D7D7070AD8B4DCD7C29CC29ECB
:1032B000C18EC196C188C18AC190C192C194C28099
:1032C000C282C2B2FED7C450046E036AC350032444
:1032D000056E000E0420066EC29005C001F006C007
:1032E00002F012000C6E000E0E6E0C500B50800A95
:1032F000F36E800EF35C000ED8B40A5CD8B008D030
:103300000A6C0B1ED8B00B2A0C6E010E0E6E0C5000
:103310000950800AF36E800EF35C000ED8B4085C8E
:10332000D8B006D0086C091ED8B0092A010E0E1AB2
:10333000000E106E000E0F6E0B500A10D8B41ED087
:103340000C6E010E0D6E0C5004D0D8900A360B3660
:103350000D2A0BAEFAD7D8900F3610360A50085CFB
:103360000B500958D8A005D00A50085E0B50095AD6
:103370000F80D8900B320A320D2EEDD70E50D8B4F4
:1033800004D00F6C101ED8B0102A0FC008F010C067
:1033900009F0120049EC1FF05C6E000E076E5C50E5
:1033A000000EA0EC1DF00001000E00010001616F95
:1033B0000001920E00010001606F0F0E000100017C
:1033C000636F940E00010001626F7BEC15F041C049
:1033D00064F042C065F043C066F0DDEC07F0000128
:1033E000000E056E0001920E046E28EC1DF05C6E5E
:1033F000010E076E5C50000EA0EC1DF00001000EE7
:1034000000010001616F0001920E00010001606F78
:103410000F0E00010001636FA00E00010001626F3A
:103420009AEC1BF01CC064F01DC065F0DDEC07F0E9
:103430000001000E056E0001920E046E28EC1DF0D6
:1034400012000450D8B405D0015002100310D8A4C3
:103450000CD0000E016E000E026E000E036E120004
:10346000042AD890033202320132000E0114066E93
:10347000000E0214076EFE0E0314086E06500710AD
:103480000810D8B40CD0ECD7042A010E0126000E87
:103490000222000E0322D890033202320132000EC3
:1034A0000114066E000E0214076EFF0E0314086E60
:1034B000065007100810D8B406D0E6D70406D890F6
:1034C00001360236033602AEF9D704A0029ED89028
:1034D0000432045003120550D8A4038E01C001F039
:1034E00002C002F003C003F01200056E000E076E6A
:1034F00005500250800AF36E800EF35C000ED8B4C3
:10350000015CD8B008D0016C021ED8B0022A056E4A
:10351000010E076E05500450800AF36E800EF35CB6
:10352000000ED8B4035CD8B004D0036C041ED8B02D
:10353000042A04500310D8B41AD0056E010E066E8A
:10354000055004D0D89003360436062A04AEFAD7C4
:103550000350015C04500258D8A004D00350015E0F
:103560000450025AD89004320332062EF1D7075085
:10357000D8B404D0016C021ED8B0022A01C001F0F8
:1035800002C002F012000101006F000E00010001F4
:10359000B06F01010051000E72EC1CF00F0E000123
:1035A0000001AE6FAA0E00010001AD6F41EC1CF0EE
:1035B0000101006F010E00010001B06F0101005117
:1035C000000E72EC1CF00F0E00010001AE6F860EB3
:1035D00000010001AD6F41EC1CF0000E0101010182
:1035E000026F000E0101016F010101010251800A09
:1035F000800F640ED8B4015DD8B00ED0C30E0101A7
:10360000006FCD0EE82EFED7002FFCD700F0010191
:103610000101014B022BE8D79EEC13F0120010AE13
:1036200016D00EC014F00FC015F010C016F0141E06
:10363000151E161E142A000E15221622000E142422
:103640000E6E000E15200F6E800E1620106E13AE3B
:1036500016D011C014F012C015F013C016F0141ECD
:10366000151E161E142A000E15221622000E1424F2
:10367000116E000E1520126E800E1620136E000EB5
:103680000E1A000E0F1A800E101A000E111A000EDC
:10369000121A800E131A11500E5C12500F5813504C
:1036A0001058D8B002D0D8901200D8801200000E66
:1036B0000A6E000E0B6E000E0C6E000E0D6E0850A2
:1036C000051006100710D8B42CD0096E010E0E6E2E
:1036D000095006D0D89005360636073608360E2A29
:1036E00008AEF8D7D8900A360B360C360D36055092
:1036F000015C065002580750035808500458D8A0DF
:1037000009D00550015E0650025A0750035A08506E
:10371000045A0A80D89008320732063205320E2E3B
:10372000E1D70AC001F00BC002F00CC003F00DC0DD
:1037300004F01200000E026E010E016E0DEC19F085
:1037400001C022F002C023F0000E23BEFF0E246E43
:10375000256E640E056E000E066E000E076E000EDE
:10376000086E22C001F023C002F024C003F025C07F
:1037700004F0FDEC1CF001C00DF002C00EF003C01F
:103780000FF004C010F0000E116E100E126E000E3D
:10379000136E000E146E9FEC16F00DC01EF00EC0DE
:1037A0001FF00FC020F010C021F01EC01CF01FC081
:1037B0001DF012001650131014101510D8B426D096
:1037C000176E010E186E175006D0D89013361436A7
:1037D00015361636182A16AEF8D713500F5C14504B
:1037E00010581550115816501258D8A008D0135020
:1037F0000F5E1450105A1550115A1650125AD89084
:103800001632153214321332182EE7D70FC00FF0CC
:1038100010C010F011C011F012C012F012000D6EA5
:103820008E0E116E0D5006D0D8900C320B320A322B
:103830000932112A000E09140D6E000E0A140E6EC4
:10384000000E0B140F6EFF0E0C14106E10500D10A6
:103850000E100F10D8A4E8D709C001F00AC002F07A
:103860000BC003F011C004F00D6E000E056E0D507C
:1038700021EC1AF001C009F002C00AF003C00BF0FD
:10388000120019D00001ADC0F6FF0001AEC0F7FF75
:10389000000EF86E0E0EF76403D00800F55005D048
:1038A000F6CFE9FFF7CFEAFFEF5024EC1FF000015D
:1038B0000001AD4BAE2B0001ADC0F6FF0001AEC064
:1038C000F7FF000EF86E0E0EF76403D00800F550F7
:1038D00005D0F6CFE9FFF7CFEAFFEF500009D8B4E3
:1038E0001200D0D7E8CFB2F015D0B2C0B1F021D0DD
:1038F00000010001B251400F09D000010001B25196
:10390000140F04D000010001B251540F0001000156
:10391000B16F0FD000010001B051000AD8B4E5D753
:10392000010AD8B4E5D7030AD8B4E7D7010AD8B456
:10393000E9D700010001B18F00010001B151D1ECC4
:103940001CF0120041C009F042C00AF0C7EC1EF0A2
:1039500009C044F00AC045F00BC046F0330E1A6EA1
:10396000530E1B6E400E1C6E44C017F045C018F07D
:1039700046C019F0A3EC17F017C032F018C033F0AE
:1039800019C034F0000E356E800E366E450E376E5F
:103990009AEC18F032C041F033C042F034C043F02A
:1039A0001200E8CFADF08D9000010001AD5115EC93
:1039B0001FF0ADC0ACF0FC0E0001AC17D8A419D0BC
:1039C000000E00010001AF6F000E0001AE6F00019C
:1039D0000001AF51800A800F640ED8B4AE5DD8B03C
:1039E0001200100EE82EFED700010001AE4BAF2BE7
:1039F000EED72B0EE82EFED71200000E096E000E39
:103A00000A6E000E0B6E000E0C6E01A008D0055061
:103A1000092606500A2207500B2208500C22D89083
:103A20000536063607360836D8900432033202329D
:103A300001320450011002100310D8A4E6D709C0C7
:103A400001F00AC002F00BC003F00CC004F0120039
:103A500015D004C0F6FF05C0F7FF000EF86E0E0E7D
:103A6000F76403D00800F55005D0F6CFE9FFF7CF93
:103A7000EAFFEF503BEC1FF0044A052A04C0F6FFB2
:103A800005C0F7FF000EF86E0E0EF76403D00800B5
:103A9000F55005D0F6CFE9FFF7CFEAFFEF50000968
:103AA000D8B41200D6D70C6E000E0D6E0C500A5012
:103AB000800AF36E800EF35C000ED8B4095CD8B0B7
:103AC00008D0096C0A1ED8B00A2A0C6E010E0D6EC1
:103AD0000C5009C001F00AC002F0036A0C6E8E0E91
:103AE000046E0C500DC005F021EC1AF001C009F075
:103AF00002C00AF003C00BF01200330E296ED30E81
:103B00002A6EBF0E2B6E41C026F042C027F043C084
:103B100028F00CEC12F026C032F027C033F028C099
:103B200034F09A0E356E990E366E3E0E376E9AEC64
:103B300018F032C041F033C042F034C043F01200FC
:103B4000E8CF09F00DD009C008F017D00950400F98
:103B500005D00950140F02D00950540F086E0DD033
:103B60000750000AD8B4EFD7010AD8B4EFD7030A38
:103B7000D8B4EFD7010AD8B4EFD7088E0850C2ECFA
:103B80001DF01200E8CF04F08D90045030EC1FF0CF
:103B900004C003F0FC0E0316D8A412D0000E066E6B
:103BA000000E056E0650800A800F640ED8B4055CC6
:103BB000D8B01200100EE82EFED7054A062AF2D71A
:103BC0002B0EE82EFED71200E8CFAAF08D8200015E
:103BD0000001AAA102D08C8001D08C9000010001CC
:103BE000AAA302D08C8201D08C9200010001AAA568
:103BF00002D08C8401D08C9400010001AAA702D0CD
:103C00008C8601D08C968D92120038C0D9FF39C0B5
:103C1000DAFFDECF32F0DECF33F0DDCF34F03AC062
:103C200035F03BC036F03CC037F07CEC1EF038C0BD
:103C3000D9FF39C0DAFF32C0DEFF33C0DEFF34C047
:103C4000DDFFDD52120026C0D9FF27C0DAFFDECF2C
:103C500017F0DECF18F0DDCF19F028C01AF029C018
:103C60001BF02AC01CF0A3EC17F026C0D9FF27C018
:103C7000DAFF17C0DEFF18C0DEFF19C0DDFFDD521E
:103C8000120032C0D9FF33C0DAFFDECF26F0DECF1C
:103C900027F0DDCF28F034C029F035C02AF036C037
:103CA0002BF00CEC12F032C0D9FF33C0DAFF26C083
:103CB000DEFF27C0DEFF28C0DDFFDD5212001150FD
:103CC0001302F3CF15F0F4CF16F011501402F3CF16
:103CD000F4FFF36AF3501526F45016221250130223
:103CE000F3CFF4FFF36AF3501526F450162215C0F3
:103CF00011F016C012F01200000E351A000E361A1E
:103D0000800E371A32C026F033C027F034C028F0B6
:103D100035C029F036C02AF037C02BF00CEC12F079
:103D200026C032F027C033F028C034F01200E8CFAC
:103D300001F08D8201A002D08C8001D08C9001A274
:103D400002D08C8201D08C9201A402D08C8401D04C
:103D50008C9401A602D08C8601D08C968D92120094
:103D600047C001F048C002F00DEC19F001C04AF064
:103D700002C04BF04AC041F04BC042F0A2EC1CF034
:103D800041C047F042C048F043C049F0120009C0AA
:103D900001F00AC002F0036A0C6E8E0E046E0C5025
:103DA0000D6E000E056E0D5021EC1AF001C009F0E9
:103DB00002C00AF003C00BF01200E8CF03F0016E5E
:103DC000000E026E01503A0E035CD8B007D02F0EE1
:103DD000036404D0016E010E026E015002C001F0B6
:103DE000013012007F0E031402100110D8B406D067
:103DF000000E011A000E021A800E031A01C001F013
:103E000002C002F003C003F012009368000E956E2A
:103E10009268F286F28E0F010F0148690F0E0F01B2
:103E20000F0149130FEC16F0FFD7E8CFABF00001FC
:103E30000001AB390F0BE4EC1DF000010001AB51A8
:103E40000F0BE4EC1DF01200E8CFACF08D80000108
:103E50000001AC5115EC1FF02B0EE82EFED712001E
:103E6000E8CF02F002380F0B97EC1EF002500F0B58
:103E700097EC1EF01200E8CF03F08D80035030EC79
:103E80001FF02B0EE82EFED71200010ED1EC1CF015
:103E90001200010EC2EC1DF01200000105EF1FF030
:020000040001F9
:08FFF8009EF7DCFFF7F8FFFBA8
:00000001FF
