:100000008A11FB2F00308A000408840A820700341A
:10001000003480343F34723431343F34FE3475342C
:100020003E34583463343D3495341D343C34C53447
:10003000AE343A347934213439349434803437341A
:100040009334A73435345634153434340034003402
:100050000034003480343F34F034FF34BE34E234B2
:10006000A9343E3483347634BE34AE342B343E343B
:100070003C34C334BD34D23413343D347834D334B7
:02008000BB348F
:100EFE00831603130F168F160F178601FF308312FA
:100F0E0003138600F601F7017708803AFF0081305F
:100F1E007F02031D942FF43076020318B02F1A307F
:100F2E00F500F830F400F40B9A2FF50B9A2F000011
:100F3E000130F6070318F70A0030F7077708803AF2
:100F4E00FF0081307F02031DAE2FF4307602031CAA
:100F5E00962FFF30831203138600F801F9017908EA
:100F6E00803AFF0080307F02031DBF2F643078026D
:100F7E000318DB2F1A30F500F830F400F40BC52FF0
:100F8E00F50BC52F00000130F8070318F90A0030E1
:100F9E00F9077908803AFF0080307F02031DD92FB0
:100FAE0064307802031CC12F831203138601FA01E9
:100FBE00FB017B08803AFF0080307F02031DE92F82
:100FCE0064307A020318B02F1A30F500F830F400AE
:100FDE00F40BEF2FF50BEF2F00000130FA0703187B
:100FEE00FB0A0030FB07E02FFC01FD0183018A1193
:020FFE007F2F43
:04400E0070FFFFFF41
:00000001FF
