:040000003FEF00F0DE
:10000800FACF01F0FBCF02F0E9CF03F0EACF04F01A
:10001800E1CF05F0E2CF06F0D9CF07F0DACF08F04C
:10002800F3CF09F0F4CF0AF0F6CF0BF0F7CF0CF0CE
:10003800F8CF0DF0F5CF0EF0F0B0F0900EC0F5FF50
:100048000DC0F8FF0CC0F7FF0BC0F6FF0AC0F4FFA5
:1000580009C0F3FF08C0DAFF07C0D9FF06C0E2FFF6
:1000680005C0E1FF04C0EAFF03C0E9FF02C0FBFFCF
:0A00780001C0FAFF1100EBEF97F052
:10FE580000010000000A00000064000000E8030040
:10FE68000010270000A086010040420F00809698ED
:10FE78000000E1F50500CA9A3B00803FCDCC3DD794
:10FE8800233C12833AB7D138C62737388635C0D6CF
:10FE980033CC2B32708930E7DB2EE53C1E42A20DB5
:10FEA80000803F00204100C842007A44401C465070
:10FEB800C34724744997184BBCBE4C6B6E4E031550
:10FEC8005079AD60F349715465737420416E74695B
:10FED800636C6F636B776973652000446973746141
:10FEE8006E63653A205B636D2F75535D002020209B
:10FEF800202070617373656420202020200020205A
:10FF080020202074657374696E67202020200020EB
:10FF18002020204D61696E7461696E2020202000C8
:10FF28002020204D6F746F72205445535420202098
:10FF3800002020204D6F746F72206D6F7665202031
:10FF480020002020416363656C65726174696E6787
:10FF58002020002020446563656C65726174696EB9
:10FF68006720200020466F72776172642073706585
:10FF780065643A20007475726E207269676874202F
:10FF88007370656564004A6F686E6E792056302E0E
:10FF9800303030303031005465737420436C6F63F7
:10FFA8006B7769736520007475726E206C65667472
:10FFB8002073706565640041636C6D7472207661AE
:10FFC8006C7565733A0074656D703A2025312E336F
:10FFD80066006C696768743A2025640053696E6727
:10FFE800682042650025312E32660025332E33669F
:08FFF800002530356400000013
:020000040001F9
:100000000001000E000100019B6F0001820E000143
:1000100000019A6F33EF87F000010001AF51250A0C
:10002000D8B40DD07EC0D9FF7FC0DAFF0001AFC0C9
:10003000DFFF000100017E4B7F2B33EF87F0000EC6
:1000400000010001A96F000E0001A86F000E000161
:100050000001A76F000E0001A66F07D0000100018C
:10006000A68500010001804B812B000180C0F6FFB6
:10007000000181C0F7FF000EF86E0800F550300A4D
:10008000D8B4ECD7000180C0F6FF000181C0F7FFB3
:10009000000EF86E0800F550AAEC97F0D8A04BD0EF
:1000A000000E00010001A96F000E0001A86FA8C09A
:1000B0001FF0A9C020F0000E226E0A0E216E28EC5F
:1000C00097F01FC0A8F020C0A9F0D00E0001856FE6
:1000D000FF0E866F000180C0F6FF000181C0F7FFB0
:1000E000000EF86E0800F5500001876F886B000164
:1000F00085510001872700018651000188230001F6
:10010000875100010001A82700018851000100016A
:10011000A92300010001804B812B000180C0F6FF64
:10012000000181C0F7FF000EF86E0800F550AAEC40
:1001300097F0D8B0BCD7000180C0F6FF000181C0A5
:10014000F7FF000EF86E0800F5502E0AD8A442D032
:1001500000010001A78D00010001804B812B000EE2
:1001600000010001AE6F000E0001AD6F24D0ADC0E4
:100170001FF0AEC020F0000E226E0A0E216E28EC99
:1001800097F0000180C0F6FF000181C0F7FF000E6C
:10019000F86E0800F5501F26000E2022D00E1F24F6
:1001A00000010001AD6FFF0E20200001AE6F0001C5
:1001B0000001804B812B000180C0F6FF000181C04F
:1001C000F7FF000EF86E0800F550AAEC97F0D8A0E3
:1001D00010D0CDD7000E00010001AE6F000E00015F
:1001E000AD6F00010001A78904D000010001A785BF
:1001F00027D00001000180510001856F000100013E
:1002000081510001866F0001804B812B85C0F6FF74
:1002100086C0F7FF000EF86E08000001F5CFAFF0C2
:100220000001AF51000AD8B44EEF87F0640AD8B489
:1002300007D0020AD8B4D9D70F0AD8A433EF87F071
:10024000070E00010001A715D8B43BEF85F00001AF
:100250000001A7A907D0000E00010001AE6F060E35
:100260000001AD6F9AC0D9FF9BC0DAFF0001DECF5D
:10027000AAF00001DECFABF00001DDCFACF0030E41
:10028000000100019A27000E00019B2300010001DC
:10029000AC51800A800F07E1000E0001AB5D03E165
:1002A000000E0001AA5DD8B012D0AAC00FF0ABC0FA
:1002B00010F0ACC011F0BFEC97F00FC0AAF010C066
:1002C000ABF011C0ACF0030E00010001A613000E4C
:1002D00000010001A56F000E0001A46F7F0E000158
:1002E0000001AC150001AB110001AA11D8B49DD0DA
:1002F000820E0001856FFF0E866F0001AAC087F095
:100300000001ABC088F00001ACC089F00001ADC0B5
:100310008AF0100E06D00001D8908A3389338833D2
:100320008733E82EF8D700018751000185250001A9
:100330000001A46F00010001000E8621A56F0001DD
:100340000001A407D8A0A507A4C01FF0A5C020F0F5
:10035000000E226E030E216E28EC97F01FC0A4F051
:1003600020C0A5F0A4C016F0A5C017F0000E196EAD
:100370000A0E186E2EEC93F016C0A4F017C0A5F06C
:1003800000010001A551800AF36E800EF35C000E9F
:10039000D8B4A45DD8B005D000010001A407D8A04E
:1003A000A50700010001A451000855EC87F034C0F6
:1003B0009CF035C09DF036C09EF00001000E356EF9
:1003C00000019C0E346EAAC036F0ABC037F0ACC052
:1003D00038F0CEEC96F09CC01CF09DC01DF09EC085
:1003E0001EF0000E1F6E800E206E3F0E216E28EC58
:1003F00094F0D8B006D000010001A407D8A0A5074A
:1004000014D09CC01CF09DC01DF09EC01EF0000EBC
:100410001F6E200E206E410E216E28EC94F0D8A0A5
:1004200004D000010001A44BA52B00010001AE5136
:10043000800AF36E800EF35C0D0ED8B4AD5DD8B0BB
:1004400013D00001000E416E0001AA0E406E0001A3
:100450000001AD517EEC89F034C042F035C043F06C
:1004600036C044F0ECEC96F000010001A551800A82
:10047000F36E800EF35C0A0ED8B4A45DD8B02BD016
:100480007F0E00010001AC150001AB110001AA11A3
:10049000D8B471D0AAC03BF0ABC03CF0ACC03DF0CA
:1004A0008DEC91F03BC085F03CC086F03DC087F0FC
:1004B0003EC088F000018851851186118711D8A4AB
:1004C0005AD000010001A551800A800F020ED8B455
:1004D000A45DD8A050D09CC01CF09DC01DF09EC053
:1004E0001EF0700E1F6E890E206E400E216E28ECDD
:1004F00094F0D8B003D00001F70E02D00001F80E3E
:100500000001A427FF0E0001A52300010001A45152
:1005100055EC87F034C09CF035C09DF036C09EF09D
:10052000AAC00FF0ABC010F0ACC011F09CC012F02C
:100530009DC013F09EC014F046EC8EF00FC08EF0FC
:1005400010C08FF011C090F012C091F08EC09FF0DB
:100550008FC0A0F090C0A1F091C0A2F0000E0001E9
:100560000001AA6F000E00010001AB6F000E000138
:100570000001AC6F2FD0AAC03BF0ABC03CF0ACC0C8
:100580003DF08DEC91F03BC09FF03CC0A0F03DC031
:10059000A1F03EC0A2F00001000E476E0001AA0EBD
:1005A000466E9FC017F0A0C018F0A1C019F0A2C0FD
:1005B0001AF068EC95F017C048F018C049F019C05F
:1005C0004AF0B0EC96F0000E00010001A56F000E9D
:1005D0000001A46F0001856F010E00010001AF6FE3
:1005E0000001855100010001AF510A0AD8B424D09E
:1005F00000010001AF51040D590EF324F66EFE0EFA
:10060000F420F76EF86A000EF8220900F550000198
:1006100000019F5D0900F5500001A0590900F55047
:100620000001A1590900F5500001A259D8A004D039
:1006300000010001AF2BD6D70001AFC085F000014B
:10064000866B85BF860700010001AD51000185273B
:1006500000010001AE510001862300010001A451F8
:100660000001852700010001A5510001862300013A
:10067000855100010001A85F0001865100010001C1
:10068000A95B00010001AE51AD11D8B405D0000145
:100690000001A807D8A0A907030E00010001A615B4
:1006A0000001856F000E00010001A7150001866F93
:1006B000000186518511D8B405D000010001A807BA
:1006C000D8A0A90700010001A6A547D0030E00018C
:1006D0000001A6150001856F000E00010001A7159D
:1006E0000001866F000186518511D8B41AD07EC0F2
:1006F000D9FF7FC0DAFF2D0EDF6E000100017E4BB7
:100700007F2B0FD07EC0D9FF7FC0DAFF300EDF6EA7
:10071000000100017E4B7F2B00010001A807D8A03B
:10072000A90700010001A951800AF36E800EF35C55
:10073000010ED8B4A85DD8A085D0E4D77EC0D9FF7B
:100740007FC0DAFF200EDF6E000100017E4B7F2BA1
:1007500000010001A807D8A0A90700010001A951C4
:10076000800AF36E800EF35C010ED8B4A85DD8B099
:10077000E5D7030E00010001A6150001856F000EEC
:1007800000010001A7150001866F00018651851147
:10079000D8B458D07EC0D9FF7FC0DAFF2D0E4DD01F
:1007A0009FC00FF0A0C010F0A1C011F0A2C012F0C5
:1007B00000010001AF51040D590EF324F66EFE0E38
:1007C000F420F76EF86A000EF8220900F5CF13F056
:1007D0000900F5CF14F00900F5CF15F00A00F5CFA8
:1007E00016F070EC94F00FC092F010C093F011C0AE
:1007F00094F012C095F092C01DF093C01EF094C00A
:100800001FF095C020F00A0E216E000E226E000E21
:10081000236E000E246E33EC95F01DC092F01EC0C6
:1008200093F01FC094F020C095F000010001925198
:10083000300F7EC0D9FF7FC0DAFFDF6E00010001FC
:100840007E4B7F2B00010001AF070001AF29D8B418
:1008500010D0A6D77EC0D9FF7FC0DAFF300EDF6E82
:10086000000100017E4B7F2B00010001A407D8A0EE
:10087000A50700010001A551800AF36E800EF35C0C
:10088000010ED8B4A45DD8B0E5D700010001AE5187
:10089000800A800F090ED8B4AD5DD8A009D0000140
:1008A000856F080E00010001AF6F0001855102D075
:1008B000ADC0AFF000010001AF5100010001AD5F1C
:1008C000000E0001AFBFFF0E00010001AE5B000192
:1008D0000001AF51D8B40AD07EC0D9FF7FC0DAFF83
:1008E0002E0EDF6E000100017E4B7F2B0001000108
:1008F000AF5155EC87F034C08BF035C08CF036C06A
:100900008DF0AAC028F0ABC029F0ACC02AF08BC093
:1009100025F08CC026F08DC027F011EC91F025C099
:100920003BF026C03CF027C03DF08DEC91F03BC081
:100930009FF03CC0A0F03DC0A1F03EC0A2F07DD031
:100940009FC00FF0A0C010F0A1C011F0A2C012F023
:1009500000010001AF51040D590EF324F66EFE0E96
:10096000F420F76EF86A000EF8220900F5CF13F0B4
:100970000900F5CF14F00900F5CF15F00A00F5CF06
:1009800016F070EC94F00FC096F010C097F011C004
:1009900098F012C099F096C01DF097C01EF098C054
:1009A0001FF099C020F00A0E216E000E226E000E7C
:1009B000236E000E246E33EC95F01DC096F01EC021
:1009C00097F01FC098F020C099F0000100019651E7
:1009D000300F7EC0D9FF7FC0DAFFDF6E000100015B
:1009E0007E4B7F2B9FC01DF0A0C01EF0A1C01FF04A
:1009F000A2C020F000010001AF51040D590EF324F4
:100A0000F66EFE0EF420F76EF86A000EF82209006A
:100A1000F5CF21F00900F5CF22F00900F5CF23F042
:100A20000A00F5CF24F033EC95F01DC09FF01EC0F6
:100A3000A0F01FC0A1F020C0A2F000010001AF078C
:100A40000001AF29D8B410D07BD77EC0D9FF7FC0BA
:100A5000DAFF300EDF6E000100017E4B7F2B0001BC
:100A60000001AD07D8A0AE0700010001AE51AD11E5
:100A7000D8B4F9D1EAD79AC0D9FF9BC0DAFF0001F8
:100A8000DECF9FF00001DDCFA0F00001000E0001DD
:100A9000A0BFFF0E0001A16F0001A26F020E0001B6
:100AA00000019A27000E00019B2300010001A251C2
:100AB000800A800F0BE1000E0001A15D07E1000E2E
:100AC0000001A05D03E1000E00019F5DD8B014D0CD
:100AD000030E00010001A61300010001A21F000186
:100AE000A11F0001A01F00019F6D000E0001A023A7
:100AF0000001A1230001A22300010001AE51AD11AC
:100B0000D8A40CD000010001A2519F11A011A11185
:100B1000D8A404D000010001AD4BAE2B0001856FBD
:100B2000010E00010001AF6F0001855100010001BD
:100B3000AF510A0AD8B424D000010001AF51040D0E
:100B4000590EF324F66EFE0EF420F76EF86A000ECE
:100B5000F8220900F550000100019F5D0900F550E1
:100B60000001A0590900F5500001A1590900F550F4
:100B70000001A259D8A004D000010001AF2BD6D7A4
:100B8000800E00010001AFBF7F0E856F00010001E4
:100B9000AD5100010001AF5D00010001AE51800ABE
:100BA00000018559D8B003D0ADC0AFF020D000010E
:100BB0000001AE51800A0001856F00010001AF51B4
:100BC00000010001AD5D800E00010001AFBF7F0E8E
:100BD00000018559D8B00BD000010001AF510001D0
:100BE0000001AD6F0001AE6B0001ADBFAE070001AB
:100BF0000001A951A811D8B416D0030E00010001BC
:100C0000A6150001856F000E00010001A715000167
:100C1000866F000186518511D8B405D0000100010E
:100C2000A807D8A0A90700010001A7AD28D000019E
:100C30000001AE51800A0001856F00010001A8513A
:100C400000010001AD5D00010001A951800A000111
:100C50008559D8B00DD000010001AD51000100014F
:100C6000A85F00010001AE5100010001A95B07D09F
:100C7000000E00010001A96F000E0001A86F800E98
:100C800000010001AFBF7F0E856F00010001A85178
:100C900000010001AF5D00010001A951800A0001BF
:100CA0008559D8B00ED000010001AF5100010001FC
:100CB000A85F000E0001AFBFFF0E00010001A95B9D
:100CC00007D0000E00010001A96F000E0001A86FFF
:100CD00000010001A6A531D0030E00010001A615F8
:100CE0000001856F000E00010001A7150001866F4D
:100CF000000186518511D8B40AD07EC0D9FF7FC0CB
:100D0000DAFF2D0EDF6E000100017E4B7F2B00010C
:100D10000001A951A811D8B49BD07EC0D9FF7FC0D3
:100D2000DAFF300EDF6E000100017E4B7F2B0001E9
:100D30000001A807D8A0A907EBD700010001A9511D
:100D4000A811D8B414D07EC0D9FF7FC0DAFF200E1E
:100D5000DF6E000100017E4B7F2B00010001A80720
:100D6000D8A0A9070001A951A811D8A4ECD7030E57
:100D700000010001A6150001856F000E00010001B1
:100D8000A7150001866F000186518511D8B460D087
:100D90007EC0D9FF7FC0DAFF2D0EDF6E55D0000177
:100DA000ADC085F00001AEC086F00001D890853757
:100DB00086370001D89085378637590E0001852582
:100DC000F66EFE0E8621F76EF86A000EF822090014
:100DD000F5CF13F00900F5CF14F00900F5CF15F0A9
:100DE0000A00F5CF16F09FC00FF0A0C010F0A1C010
:100DF00011F0A2C012F070EC94F00FC01DF010C002
:100E00001EF011C01FF012C020F00A0E216E000E5D
:100E1000226E000E236E000E246E33EC95F01DC082
:100E200087F01EC088F01FC089F020C08AF0000142
:100E30008751300F00010001AF6F7EC0D9FF7FC026
:100E4000DAFF0001AFC0DFFF000100017E4B7F2B06
:100E500000010001AD07D8A0AE070001AD29D8B44C
:100E6000AE29D8A49CD70001000180510001856FF4
:100E70000001000181510001866F0001804B812B30
:100E800085C0F6FF86C0F7FF000EF86E080000016F
:100E9000F5CFAFF00001AF670CEF80F07EC0D9FF57
:100EA0007FC0DAFF000EDF6E1200E8CF3AF03AAEF4
:100EB00013D13A6C3A50800A120FD8A09AD0000E83
:100EC000226E030E216E000E196E0A0E186E000EB1
:100ED000126E640E116E3A500F6E106A0FBE10063D
:100EE000DAEC93F00FC016F010C017F02EEC93F070
:100EF000090E16241F6E000E1720206E28EC97F0A6
:100F0000810E1F24F66EFE0E2020F76EF86A000E8A
:100F1000F8220900F5CF28F00900F5CF29F00A00E2
:100F2000F5CF2AF0000E226E030E216E000E196E10
:100F3000640E186E3A50166E176A16BE17062EEC1F
:100F400093F0120E16241F6E000E1720206E28EC50
:100F500097F0810E1F24F66EFE0E2020F76EF86AC1
:100F6000000EF8220900F5CF25F00900F5CF26F094
:100F70000A00F5CF27F011EC91F025C037F026C01C
:100F800038F027C039F037C025F038C026F039C016
:100F900027F0000E226E030E216E000E126E0A0E56
:100FA000116E3A500F6E106A0FBE1006DAEC93F015
:100FB0000FC01FF010C020F028EC97F0810E1F2406
:100FC000F66EFE0E2020F76EF86A000EF822090079
:100FD000F5CF28F00900F5CF29F00A00F5CF2AF067
:100FE00011EC91F025C034F026C035F027C036F062
:100FF00012003A50800A750FD8A059D0000E226E08
:10100000030E216E000E196E0A0E186E3A50166EFF
:10101000176A16BE17062EEC93F0090E16241F6EE3
:10102000000E1720206E28EC97F0810E1F24F66E1C
:10103000FE0E2020F76EF86A000EF8220900F5CFA8
:1010400025F00900F5CF26F00A00F5CF27F0000EB5
:10105000226E030E216E000E126E0A0E116E3A50B1
:101060000F6E106A0FBE1006DAEC93F00FC01FF07F
:1010700010C020F028EC97F0810E1F24F66EFE0EB3
:101080002020F76EF86A000EF8220900F5CF28F04C
:101090000900F5CF29F00A00F5CF2AF011EC91F004
:1010A00025C034F026C035F027C036F012003A5083
:1010B000030D810EF324F66EFE0EF420F76EF86A2F
:1010C000000EF8220900F5CF34F00900F5CF35F015
:1010D0000A00F5CF36F012003A50800A120FD8A05D
:1010E0009AD0000E226E030E216E000E196E0A0EAB
:1010F000186E000E126E640E116E3A500F6E106A6A
:101100000FBE1006DAEC93F00FC016F010C017F007
:101110002EEC93F0090E16241F6E000E1720206E81
:1011200028EC97F0A80E1F24F66EFE0E2020F76E16
:10113000F86A000EF8220900F5CF28F00900F5CF73
:1011400029F00A00F5CF2AF0000E226E030E216E60
:10115000000E196E640E186E3A50166E176A16BE9F
:1011600017062EEC93F0120E16241F6E000E172099
:10117000206E28EC97F0A80E1F24F66EFE0E20209D
:10118000F76EF86A000EF8220900F5CF25F0090085
:10119000F5CF26F00A00F5CF27F011EC91F025C02D
:1011A00037F026C038F027C039F037C025F038C0F6
:1011B00026F039C027F0000E226E030E216E000EBD
:1011C000126E0A0E116E3A500F6E106A0FBE1006A4
:1011D000DAEC93F00FC01FF010C020F028EC97F06D
:1011E000A80E1F24F66EFE0E2020F76EF86A000E81
:1011F000F8220900F5CF28F00900F5CF29F00A0000
:10120000F5CF2AF011EC91F025C034F026C035F06E
:1012100027C036F012003A50800A750FD8A059D076
:10122000000E226E030E216E000E196E0A0E186E4D
:101230003A50166E176A16BE17062EEC93F0090E7A
:1012400016241F6E000E1720206E28EC97F0A80EB3
:101250001F24F66EFE0E2020F76EF86A000EF822AC
:101260000900F5CF25F00900F5CF26F00A00F5CFEB
:1012700027F0000E226E030E216E000E126E0A0E73
:10128000116E3A500F6E106A0FBE1006DAEC93F032
:101290000FC01FF010C020F028EC97F0A80E1F24FC
:1012A000F66EFE0E2020F76EF86A000EF822090096
:1012B000F5CF28F00900F5CF29F00A00F5CF2AF084
:1012C00011EC91F025C034F026C035F027C036F07F
:1012D00012003A50030DA80EF324F66EFE0EF42011
:1012E000F76EF86A000EF8220900F5CF34F0090015
:1012F000F5CF35F00A00F5CF36F01200E8CF3DF01B
:101300006D0E3D64A8D0000E226E030E216E000EFD
:10131000196E0A0E186E000E126E640E116E3DC02C
:101320000FF0106ADAEC93F00FC016F010C017F04F
:101330002EEC93F0090E16241F6E000E1720206E5F
:1013400028EC97F0810E1F24F66EFE0E2020F76E1B
:10135000F86A000EF8220900F5CF28F00900F5CF51
:1013600029F00A00F5CF2AF0000E226E030E216E3E
:10137000000E196E640E186E3DC016F0176A2EEC42
:1013800093F0120E16241F6E000E1720206E28EC0C
:1013900097F0810E1F24F66EFE0E2020F76EF86A7D
:1013A000000EF8220900F5CF25F00900F5CF26F050
:1013B0000A00F5CF27F011EC91F025C03AF026C0D5
:1013C0003BF027C03CF0000E226E030E216E000E93
:1013D000126E0A0E116E3DC00FF0106ADAEC93F037
:1013E0000FC01FF010C020F028EC97F0810E1F24D2
:1013F000F66EFE0E2020F76EF86A000EF822090045
:10140000F5CF28F00900F5CF29F00A00F5CF2AF032
:101410003AC025F03BC026F03CC027F011EC91F01B
:1014200025C037F026C038F027C039F037C025F086
:1014300038C026F039C027F0000E286E000E296E45
:101440003F0E2A6E11EC91F025C034F026C035F025
:1014500027C036F012000A0E3D6469D0000E226EDD
:10146000030E216E000E126E0A0E116E3DC00FF0BB
:10147000106ADAEC93F00FC01FF010C020F028ECD7
:1014800097F0810E1F24F66EFE0E2020F76EF86A8C
:10149000000EF8220900F5CF28F00900F5CF29F059
:1014A0000A00F5CF2AF0000E226E030E216E000E08
:1014B000196E0A0E186E3DC016F0176A2EEC93F0E6
:1014C000090E16241F6E000E1720206E28EC97F0D0
:1014D000810E1F24F66EFE0E2020F76EF86A000EB5
:1014E000F8220900F5CF25F00900F5CF26F00A0013
:1014F000F5CF27F011EC91F025C03AF026C03BF073
:1015000027C03CF03AC025F03BC026F03CC027F095
:10151000000E286E000E296E3F0E2A6E11EC91F01F
:1015200025C034F026C035F027C036F012003D50FB
:10153000030D810EF324F66EFE0EF420F76EF86AAA
:10154000000EF8220900F5CF25F00900F5CF26F0AE
:101550000A00F5CF27F0000E286E000E296E3F0E10
:101560002A6E11EC91F025C034F026C035F027C06A
:1015700036F0120036C03AF03B6A3C6A35343A36EF
:1015800001E33B803A503F6E39C03AF03B6A3C6A17
:1015900038343A3601E33B803A503E6E3F50D8B47F
:1015A0000CD03E503F5CD8B00FD03F5000083E24D6
:1015B0003A6E190E3A5CD8A007D037C034F038C064
:1015C00035F039C036F012003E50D8B40CD03F5040
:1015D0003E5CD8B00FD03E5000083F243A6E190E42
:1015E0003A5CD8A007D034C034F035C035F036C0EE
:1015F00036F012003A6E060E3D6E3A5036BE3D8E03
:1016000039BE3D8C358EFF0E3416FF0E3516000E9A
:101610003616388EFF0E3716FF0E3816000E3916A6
:101620003E503F5CD8B01AD0D8903736383639366D
:101630003E063E503F18D8B40DD03D063DC03AF0AE
:10164000070E3A16D8B406D0EFD7D89036323532D6
:1016500034323F2A3E503F62F8D71DD03F503E5CA7
:10166000D8B019D0D8903436353636363F063E508D
:101670003F18D8B40DD03D063DC03AF0070E3A16DB
:10168000D8B406D0EFD7D8903932383237323E2A24
:101690003E503F62F8D73DAE0CD0FF0E341AFF0E1D
:1016A000351AFF0E361A010E3426000E3522000EB2
:1016B00036223DAC0CD0FF0E371AFF0E381AFF0E43
:1016C000391A010E3726000E3822000E39223A6EE2
:1016D000000E3D6E3A503450372635503822365081
:1016E000392239AE10D0FF0E371AFF0E381AFF0E0E
:1016F000391A010E3726000E3822000E39223A6EB2
:10170000010E3D6E3A5037C00FF038C010F039C0AE
:1017100011F03FC012F03DC013F086EC93F00FC003
:1017200034F010C035F011C036F01200E7EC97F03D
:10173000FF0E136EBF0E126EF4EC95F00001B06F49
:10174000010E156E0001B051000E6CEC96F0000118
:10175000000E000100017F6F0001B10E00010001C9
:101760007E6FFF0E00010001816FED0E0001000190
:10177000806F000E000100016F6F020E00016E6F9E
:10178000000E00010001706F200E00010001716F5A
:10179000410E00010001726FE1EC8EF06EC082F02C
:1017A0006FC083F070C084F000EC80F00001000E88
:1017B000136E0001B10E126EF4EC95F0200EDDEC0C
:1017C00097F00001000E000100017F6F0001B10ED3
:1017D000000100017E6FFF0E00010001816FED0E20
:1017E00000010001806F000E000100016F6F030E09
:1017F00000016E6F000E00010001706F200E0001ED
:101800000001716F410E00010001726FE1EC8EF07A
:101810006EC082F06FC083F070C084F000EC80F086
:101820000001000E136E0001B10E126EF4EC95F083
:10183000200EDDEC97F00001000E000100017F6F2B
:101840000001B10E000100017E6FFF0E00010001DA
:10185000816FED0E00010001806F000E000100019C
:101860006F6F040E00016E6F000E00010001706FBB
:10187000200E00010001716F410E00010001726F26
:10188000E1EC8EF06EC082F06FC083F070C084F027
:1018900000EC80F00001000E136E0001B10E126E1C
:1018A000F4EC95F012000FC015F010C016F011C046
:1018B00017F012C018F0180E05D0D8901832173251
:1018C00016321532E82EF9D715501E6E1E6609D055
:1018D000000E0F6E000E106E000E116E000E126ED6
:1018E000120012C015F013C016F014C017F015C086
:1018F00018F0180E05D0D89018321732163215325B
:10190000E82EF9D715501D6E1D6609D0000E0F6E1A
:10191000000E106E000E116E000E126E1200118E6F
:10192000FF0E0F16FF0E1016FF0E1116000E1216E8
:10193000148EFF0E1216FF0E1316FF0E1416000E55
:101940001516000E196E000E1A6E000E1B6E000E9C
:101950001C6E7F0E1E5E1D50A00F1E5E156E200EAB
:101960001D6E1550D89019361A361B361C3612507B
:101970000F5C135010581450115815501258D8A01D
:1019800009D012500F5E1350105A1450115A1550AE
:10199000125A1980D8900F361036113612361D2E75
:1019A000E1D71EAE19D01E50800A156EE10E800AD6
:1019B000155CD8B009D0000E0F6E000E106E000E30
:1019C000116E000E126E1200D8901C321B321A32A9
:1019D00019321E3EF9D714D01F0E1E640FD0000E10
:1019E0000F6E000E106E000E116E000E126E1200C1
:1019F000D89019361A361B361C361E061E66F8D7C6
:101A000019C00FF01AC010F01BC011F01CC012F06A
:101A10001200000E00010001686F000E00010001BD
:101A2000696F000E000100016A6F000E00010001E5
:101A3000676F000E0001666F000100016751800AA8
:101A4000800F050ED8B4665DD8B025D0000E106E9C
:101A5000000E0F6EAAEC8DF00FC017F010C018F03A
:101A60001FEC96F017C034F018C035F019C036F0EE
:101A700068C037F069C038F06AC039F0BAEC8AF053
:101A800034C068F035C069F036C06AF0000100016A
:101A9000664B672BD1D768C040F069C041F06AC07F
:101AA00042F0000E436EA00E446E400E456E72EC86
:101AB0008FF040C068F041C069F042C06AF0330E58
:101AC000286E530E296E400E2A6E68C025F069C03C
:101AD00026F06AC027F011EC91F025C040F026C036
:101AE00041F027C042F0000E436E800E446E450E5A
:101AF000456E72EC8FF040C068F041C069F042C0A2
:101B00006AF0740E286E910E296E410E2A6E68C01E
:101B100025F069C026F06AC027F011EC91F025C0CD
:101B200034F026C035F027C036F0000E376E200E98
:101B3000386EC10E396EBAEC8AF034C068F035C028
:101B400069F036C06AF068C049F069C04AF06AC0FE
:101B50004BF01200000E146E000E136E96909494CB
:101B60009598959C32D08D9001D08D808B9402D029
:101B70008D9004D08C988C9C61D08D808B84FAD70A
:101B80008D9001D08D808B9402D08D9003D08C8865
:101B9000F2D78D808B84FBD78D9001D08D808B9474
:101BA00002D08D9004D08C988C8C48D08D808B8402
:101BB000FAD78D9001D08D808B9402D08D9003D078
:101BC0008C88F2D78D808B84FBD70FC011F010C0AA
:101BD00012F01250000AD8A431D01150000AD8B423
:101BE000C2D7010AD8B4C1D7030AD8B4C1D7010AF1
:101BF000D8B4C3D7070AD8B4C3D7010AD8B4C2D758
:101C0000030AD8B4C2D7010AD8B4C3D70F0AD8B4CC
:101C1000C3D7010AD8B4C2D7030AD8B4C2D7010ABD
:101C2000D8B4C4D7070AD8B4C4D7010AD8B4C3D724
:101C3000030AD8B4C3D7010AD8B4C4D7C294C29691
:101C4000C288C29A928A0F010F0148990F0E0F01A4
:101C50000F014913C29CC29EC18EC196C188C18A20
:101C6000C190C192C194C280C282C2B2FED7C45098
:101C7000126E116AC3501124136E000E1220146EDE
:101C8000C29013C00FF014C010F0120011C015F074
:101C9000166A176A1034153601E3168015501D6E4A
:101CA0001D6609D0000E0F6E000E106E000E116E34
:101CB000000E126E120014C015F0166A176A133463
:101CC000153601E3168015501C6E1C6609D0000EF7
:101CD0000F6E000E106E000E116E000E126E1200CE
:101CE000108EFF0E0F16FF0E1016000E1116138E1B
:101CF000FF0E1216FF0E1316000E1416000E186EAD
:101D0000000E196E000E1A6E000E1B6E7F0E1D5E09
:101D10001C50980F1D5E156E180E1C6E1550D89035
:101D2000183619361A361B3612500F5C13501058DD
:101D300014501158D8A007D012500F5E1350105AEB
:101D40001450115A1880D8900F36103611361C2EA8
:101D5000E6D71DAE19D01D50800A156EE90E800A17
:101D6000155CD8B009D0000E0F6E000E106E000E7C
:101D7000116E000E126E1200D8901B321A321932F8
:101D800018321D3EF9D714D0170E1D640FD0000E67
:101D90000F6E000E106E000E116E000E126E12000D
:101DA000D890183619361A361B361D061D66F8D718
:101DB00018C00FF019C010F01AC011F01BC012F0BB
:101DC0001200000E000100017B6F000E00010001F7
:101DD0007C6F000E000100017D6F000E000100010C
:101DE0007A6F000E0001796F79C017F07AC018F091
:101DF00094EC97F017C01CF018C01DF019C01EF02D
:101E000070C01FF071C020F072C021F028EC94F077
:101E1000D8B039D06EC069F06FC06AF07DEC97F031
:101E200069C073F06AC074F06BC075F07BC034F0A9
:101E30007CC035F07DC036F073C037F074C038F028
:101E400075C039F0BAEC8AF034C07BF035C07CF054
:101E500036C07DF000010001794B7A2B79C017F074
:101E60007AC018F094EC97F017C01CF018C01DF061
:101E700019C01EF070C01FF071C020F072C021F0B8
:101E800028EC94F0C5D77BC040F07CC041F07DC009
:101E900042F070C043F071C044F072C045F072EC83
:101EA0008FF040C076F041C077F042C078F0000E6D
:101EB000000100017B6F000E000100017C6F000E2D
:101EC000000100017D6F76C049F077C04AF078C00C
:101ED0004BF049EC96F049C06EF04AC06FF04BC031
:101EE00070F0120042C046F0476A486A41344636F4
:101EF00001E34780465000010001646F0001646700
:101F000007D0000E406E000E416E000E426E1200B1
:101F100045C046F0476A486A4434463601E3478084
:101F2000465000010001656F0001656707D0000E93
:101F3000406E000E416E000E426E1200000E000157
:101F40000001616F000E00010001626F000E0001D0
:101F50000001636F000100016551890F000100015C
:101F6000645F42C065F0455000010001651B800EB2
:101F7000000100016517418EFF0E4016FF0E41164D
:101F8000000E4216448EFF0E4316FF0E4416000E3E
:101F90004516466E180E00010001606F46500001A4
:101FA000D890000161370001623700016337435068
:101FB000405C4450415845504258D8A009D0435045
:101FC000405E4450415A4550425A0001000161812F
:101FD000D89040364136423600010001602FDFD7ED
:101FE00061C00FF062C010F063C011F064C012F065
:101FF00065C013F086EC93F00FC040F010C041F0C4
:1020000011C042F0120045EC97F0D4EC92F008ECCD
:1020100092F0EEEC97F0000E00010001C66F000E8A
:102020000001C56F00010001C651800A800FB40E87
:10203000D8B4C55DD8B02FD0C5C00FF0C6C010F061
:10204000F3EC94F079EC92F0000E00010001C26F05
:10205000000E0001C16F00010001C251800A800F13
:10206000140ED8B4C15DD8B00ED0270E0001C06FD9
:10207000F50EE82EFED7C02FFCD700F000010001BE
:10208000C14BC22BE8D70A0E00010001C527000E84
:102090000001C623C7D7000E00010001C86FB40EAF
:1020A0000001C76F00010001C851800AF36E800E65
:1020B000F35C010ED8B4C75DD8A0ADD7C7C00FF090
:1020C000C8C010F0F3EC94F096EC8BF0000E000119
:1020D0000001C46F000E0001C36F00010001C45174
:1020E000800A800F140ED8B4C35DD8B00ED0270E6E
:1020F0000001C06FF50EE82EFED7C02FFCD700F010
:1021000000010001C34BC42BE8D70001F60E00010B
:10211000C727FF0E0001C823C5D7236E000E256E0A
:1021200023502250800A800F08E1000E215C05E157
:10213000000E205C02E1000E1F5CD8B00CD0221E05
:10214000211E201E1F6C000E202221222222236E1F
:10215000010E256E23501E50800A800F08E1000EEC
:102160001D5C05E1000E1C5C02E1000E1B5CD8B09A
:102170000AD01E1E1D1E1C1E1B6C000E1C221D22C2
:102180001E22010E251A000E266E000E276E000E6E
:10219000286E000E296E22501F1020102110D8B476
:1021A0002CD0236E010E246E235006D0D8901F36FB
:1021B000203621362236242A22AEF8D7D890263669
:1021C0002736283629361F501B5C20501C582150BA
:1021D0001D5822501E58D8A009D01F501B5E2050F9
:1021E0001C5A21501D5A22501E5A2680D890223245
:1021F000213220321F32242EE1D72550D8B408D006
:10220000291E281E271E266C000E2722282229227E
:1022100026C01BF027C01CF028C01DF029C01EF0EE
:10222000120027C02BF02C6A2D6A26342B3601E3CE
:102230002C802B502E6E2E6607D0000E256E000EC1
:10224000266E000E276E12002AC02BF02C6A2D6A13
:1022500029342B3601E32C802B50336E336607D0A4
:10226000000E256E000E266E000E276E12003350F3
:102270007B0F2E2627C033F02A50331A800E3316D8
:10228000268E298EFF0E2816FF0E2916000E2A16FE
:10229000000E2F6E000E306E000E316E2B6E070E8C
:1022A000326E2B5025A006D028502F2629503022E0
:1022B0002A503122D890273226322532D89028361B
:1022C00029362A36322EEED72B6E090E326E2B505F
:1022D00025A006D028502F26295030222A503122FE
:1022E000D890273226322532D890313230322F32F0
:1022F000322EEED72FC00FF030C010F031C011F0E9
:102300002EC012F033C013F086EC93F00FC025F00E
:1023100010C026F011C027F012003DC03FF0406A07
:10232000416A3C343F3601E340803F50496E496684
:1023300009D0000E3B6E000E3C6E000E3D6E000E8E
:102340003E6E1200170E3F6E3BC040F03CC041F0A5
:102350003DC042F03F28436E04D0D8904232413213
:102360004032432EFAD74050446E3C8EFF0E3B164F
:10237000FF0E3C16000E3D163B50456E3C50466E1F
:102380003D50476E486A8E0E495E49AE19D049509D
:10239000800A3F6EF10E800A3F5CD8B009D0000E73
:1023A0003B6E000E3C6E000E3D6E000E3E6E120047
:1023B000D8904832473246324532493EF9D714D098
:1023C000170E49640FD0000E3B6E000E3C6E000EDF
:1023D0003D6E000E3E6E1200D890453646364736AA
:1023E000483649064966F8D74450D8B408D0481E44
:1023F000471E461E456C000E46224722482245C015
:102400003BF046C03CF047C03DF048C03EF01200F3
:10241000959095929594959694908B9094928B929A
:102420003B0E156E700EE82EFED7152EFCD78B9046
:10243000030E0AEC97F0000E176E000E166E175082
:10244000800A800F640ED8B4165CD8B006D0290E6E
:10245000E82EFED7164A172AF2D7030E0AEC97F099
:10246000000E196E000E186E1950800A800F0A0EA9
:10247000D8B4185CD8B006D00C0EE82EFED7184A97
:10248000192AF2D7030E0AEC97F0000E1B6E000E0D
:102490001A6E1B50800A800F0A0ED8B41A5CD8B08E
:1024A00006D00C0EE82EFED71A4A1B2AF2D7020ECF
:1024B0000AEC97F0000E1D6E000E1C6E1D50800A77
:1024C000800F0A0ED8B41C5CD8B006D00C0EE82ED3
:1024D000FED71C4A1D2AF2D7280E8EEC96F0010E6C
:1024E0008EEC96F0060E8EEC96F00C0E8EEC96F0BE
:1024F0001200E7EC97F00001B06F000E156E0001BE
:10250000B051000E6CEC96F00001000E00010001CD
:102510007F6F0001B10E000100017E6FFF0E000110
:102520000001816FCE0E00010001806F09EC8DF07B
:1025300049C082F04AC083F04BC084F000EC80F0C8
:102540000001000E136E0001B10E126EF4EC95F056
:102550000001B06F010E156E0001B051000E6CEC61
:1025600096F00001000E000100017F6F0001B10E26
:10257000000100017E6FFF0E00010001816FDA0E85
:1025800000010001806FB3EC94F02AC082F02BC0F0
:1025900083F000EC80F00001000E136E0001B10E1C
:1025A000126EF4EC95F01200938C938E93909392AC
:1025B000939493968A908A928A948A96CB680F0E07
:1025C0000F010F01136F0F010F0112890F010F018E
:1025D000128B9398CA90CA92CA840F010F01128578
:1025E0000F010F0112870F010F01518577680F0E40
:1025F0000F010F01106F0F010F010F890F010F0164
:102600000F8B939A7690769276840F010F010F8547
:102610000F010F010F87000E0F010F01136F000E46
:102620000F010F01106FE60E4F6E010E506E430E3C
:10263000516E000E406EB40E416E430E426E4FC09E
:1026400043F050C044F051C045F072EC8FF040C0F0
:102650004CF041C04DF042C04EF012001A6E000E18
:102660001C6E1A501950800AF36E800EF35C000E37
:10267000D8B4185CD8B008D0186C191ED8B0192A74
:102680001A6E010E1C6E1A501750800AF36E800EDF
:10269000F35C000ED8B4165CD8B006D0166C171ECA
:1026A000D8B0172A010E1C1A000E1E6E000E1D6EE9
:1026B00019501810D8B41ED01A6E010E1B6E1A5085
:1026C00004D0D890183619361B2A19AEFAD7D890EC
:1026D0001D361E361850165C19501758D8A005D054
:1026E0001850165E1950175A1D80D890193218329A
:1026F0001B2EEDD71C50D8B404D01D6C1E1ED8B0B4
:102700001E2A1DC016F01EC017F012001250D8B4B9
:1027100005D00F5010101110D8A40CD0000E0F6E61
:10272000000E106E000E116E1200122AD890113297
:1027300010320F32000E0F14146E000E1014156EAE
:10274000FE0E1114166E145015101610D8B40CD0BD
:10275000ECD7122A010E0F26000E1022000E1122B5
:10276000D890113210320F32000E0F14146E000E7A
:102770001014156EFF0E1114166E1450151016104D
:10278000D8B406D0E6D71206D8900F3610361136D8
:1027900010AEF9D712A0109ED8901232125011121A
:1027A0001350D8A4118E0FC00FF010C010F011C03C
:1027B00011F01200136E000E156E13501050800AA7
:1027C000F36E800EF35C000ED8B40F5CD8B008D066
:1027D0000F6C101ED8B0102A136E010E156E135018
:1027E0001250800AF36E800EF35C000ED8B4115CB8
:1027F000D8B004D0116C121ED8B0122A1250111089
:10280000D8B41AD0136E010E146E135004D0D890A1
:1028100011361236142A12AEFAD711500F5C12502C
:102820001058D8A004D011500F5E1250105AD890F2
:1028300012321132142EF1D71550D8B404D00F6CC7
:10284000101ED8B0102A0FC00FF010C010F01200E8
:102850001EAE16D01CC022F01DC023F01EC024F0F6
:10286000221E231E241E222A000E23222422000EB2
:1028700022241C6E000E23201D6E800E24201E6E4E
:1028800021AE16D01FC022F020C023F021C024F0BA
:10289000221E231E241E222A000E23222422000E82
:1028A00022241F6E000E2320206E800E2420216E15
:1028B000000E1C1A000E1D1A800E1E1A000E1F1A82
:1028C000000E201A800E211A1F501C5C20501D582B
:1028D00021501E58D8B002D0D8901200D8801200D3
:1028E000000E186E000E196E000E1A6E000E1B6E92
:1028F0001650131014101510D8B42CD0176E010EEA
:102900001C6E175006D0D89013361436153616366E
:102910001C2A16AEF8D7D890183619361A361B3638
:1029200013500F5C1450105815501158165012586F
:10293000D8A009D013500F5E1450105A1550115AD8
:102940001650125A1880D89016321532143213329B
:102950001C2EE1D718C00FF019C010F01AC011F0EA
:102960001BC012F01200000E106E010E0F6EAAECCA
:102970008DF00FC02CF010C02DF0000E2DBEFF0EFC
:102980002E6E2F6E640E136E000E146E000E156EFA
:10299000000E166E2CC00FF02DC010F02EC011F0DE
:1029A0002FC012F0C9EC95F00FC01BF010C01CF046
:1029B00011C01DF012C01EF0000E1F6E100E206E12
:1029C000000E216E000E226E8DEC90F01BC02CF0DC
:1029D0001CC02DF01DC02EF01EC02FF02CC02AF000
:1029E0002DC02BF01200959A000E156E000E146E7D
:1029F0001550800A800F320ED8B4145CD8B0120083
:102A00008C8A000E176E000E166E1750800A800F0B
:102A1000640ED8B4165CD8B006D000D000D000D078
:102A2000164A172AF2D7000E136E000E126E05D04A
:102A3000050EE82EFED7124A132A1350800A116E93
:102A40000F50125C1050800A1158D8A0F1D78C9A00
:102A50004E0E116EEB0EE82EFED7112EFCD700F0B5
:102A6000144A152AC5D72450211022102310D8B497
:102A700026D0256E010E266E255006D0D890213620
:102A8000223623362436262A24AEF8D721501D5C60
:102A900022501E5823501F5824502058D8A008D028
:102AA00021501D5E22501E5A23501F5A2450205A76
:102AB000D8902432233222322132262EE7D71DC06D
:102AC0001DF01EC01EF01FC01FF020C020F012001D
:102AD0001B6E8E0E1F6E1B5006D0D8901A32193204
:102AE000183217321F2A000E17141B6E000E18140E
:102AF0001C6E000E19141D6EFF0E1A141E6E1E5051
:102B00001B101C101D10D8A4E8D717C00FF018C058
:102B100010F019C011F01FC012F01B6E000E136EE2
:102B20001B5086EC93F00FC017F010C018F011C0C6
:102B300019F0120049C017F04AC018F094EC97F051
:102B400017C066F018C067F019C068F0330E286E21
:102B5000530E296E400E2A6E66C025F067C026F01F
:102B600068C027F011EC91F025C040F026C041F07C
:102B700027C042F0000E436E800E446E450E456E37
:102B800072EC8FF040C049F041C04AF042C04BF0B7
:102B90001200000E176E000E186E000E196E000E59
:102BA0001A6E0FA008D01350172614501822155073
:102BB000192216501A22D8901336143615361636A6
:102BC000D8901232113210320F3212500F101010F2
:102BD0001110D8A4E6D717C00FF018C010F019C014
:102BE00011F01AC012F0120015D012C0F6FF13C077
:102BF000F7FF000EF86E0E0EF76403D00800F550D4
:102C000005D0F6CFE9FFF7CFEAFFEF50DDEC97F004
:102C1000124A132A12C0F6FF13C0F7FF000EF86E17
:102C20000E0EF76403D00800F55005D0F6CFE9FF8B
:102C3000F7CFEAFFEF500009D8B41200D6D71A6ECA
:102C4000000E1B6E1A501850800AF36E800EF35C53
:102C5000000ED8B4175CD8B008D0176C181ED8B0C6
:102C6000182A1A6E010E1B6E1A5017C00FF018C0EA
:102C700010F0116A1A6E8E0E126E1A501BC013F0ED
:102C800086EC93F00FC017F010C018F011C019F0C7
:102C90001200330E376ED30E386EBF0E396E49C038
:102CA00034F04AC035F04BC036F0BAEC8AF034C08C
:102CB00040F035C041F036C042F09A0E436E990E96
:102CC000446E3E0E456E72EC8FF040C049F041C03C
:102CD0004AF042C04BF01200E8CF17F00DD017C0F9
:102CE00016F017D01750400F05D01750140F02D010
:102CF0001750540F166E0DD01550000AD8B4EFD7E8
:102D0000010AD8B4EFD7030AD8B4EFD7010AD8B470
:102D1000EFD7168E16508EEC96F01200E8CF12F018
:102D20008B901250D2EC97F012C011F0FC0E1116DD
:102D3000D8A412D0000E146E000E136E1450800A28
:102D4000800F640ED8B4135CD8B01200100EE82EB9
:102D5000FED7134A142AF2D72B0EE82EFED7120004
:102D600046C0D9FF47C0DAFFDECF40F0DECF41F0EA
:102D7000DDCF42F048C043F049C044F04AC045F0BE
:102D800062EC97F046C0D9FF47C0DAFF40C0DEFFD3
:102D900041C0DEFF42C0DDFFDD52120034C0D9FF6A
:102DA00035C0DAFFDECF25F0DECF26F0DDCF27F00D
:102DB00036C028F037C029F038C02AF011EC91F065
:102DC00034C0D9FF35C0DAFF25C0DEFF26C0DEFFE4
:102DD00027C0DDFFDD52120040C0D9FF41C0DAFF3D
:102DE000DECF34F0DECF35F0DDCF36F042C037F045
:102DF00043C038F044C039F0BAEC8AF040C0D9FF83
:102E000041C0DAFF34C0DEFF35C0DEFF36C0DDFF73
:102E1000DD521200E8CF0FF08B8200F000D00FA03F
:102E200002D08C8001D08C900FA202D08C8201D075
:102E30008C920FA402D08C8401D08C940FA602D067
:102E40008C8601D08C9600D000D000D08B921200DE
:102E50001F502102F3CF23F0F4CF24F01F502202A1
:102E6000F3CFF4FFF36AF3502326F45024222050CA
:102E70002102F3CFF4FFF36AF3502326F450242207
:102E800023C01FF024C020F01200550EA76EAA0E1A
:102E9000A76E0E010E01BF91180E0E010E01E16F1B
:102EA000550EA76EAA0EA76E0E010E01BF81F18A04
:102EB000F086F28E0F010F0148690F0E0F010F010E
:102EC00049131200000E431A000E441A800E451AD0
:102ED00040C034F041C035F042C036F043C037F056
:102EE00044C038F045C039F0BAEC8AF034C040F044
:102EF00035C041F036C042F0120069C00FF06AC020
:102F000010F0AAEC8DF00FC06CF010C06DF06CC02A
:102F100049F06DC04AF09AEC95F049C069F04AC09A
:102F20006AF04BC06BF0120017C00FF018C010F021
:102F3000116A1A6E8E0E126E1A501B6E000E136EF0
:102F40001B5086EC93F00FC017F010C018F011C0A2
:102F500019F01200E8CF11F00F6E000E106E0F5036
:102F60003A0E115CD8B007D02F0E116404D00F6E4A
:102F7000010E106E0F5010C00FF00F3012007F0EB8
:102F8000111410100F10D8B406D0000E0F1A000E36
:102F9000101A800E111A0FC00FF010C010F011C0DF
:102FA00011F01200E8CF10F010380F0B0AEC97F078
:102FB00010500F0B0AEC97F01200E8CF11F08B8045
:102FC0001150D2EC97F02B0EE82EFED71200010E16
:102FD0008EEC96F01200000103EF90F0969296842A
:022FE0001200DD
:08FFF8009EF7DCFFF7F8FFFBA8
:00000001FF
