:060000000A128A11122809
:10000800FE00030EF2000408F3000A08F40083124D
:1000180003137F08F5000A168A11762F0A128A112F
:100028001528F601F701F801F90183160313E90110
:10003800EA0183160317900191019201930194013B
:10004800950196019701980199019A019B019C01DC
:10005800831603130A168A1145260A128A11E60026
:100068000A168A1146260A128A11E7000A168A1108
:1000780047260A128A11E8000A128A11FE270A1274
:100088008A11FA000A128A11FF27FB0083010A1657
:100098008A11B02E83120313670866046504031DD2
:1000A8005C280030E5000030E6000030E70008007A
:1000B80067087F39EA00EB010310EA0DEB0D6A08C7
:1000C800E8070318E90A6B08E907660D660D0139A8
:1000D800EA00EB016A08E8070318E90A6B08E90770
:1000E800E91F8528223083160313E9000030EA004F
:1000F800003083120313E5000030E6000030E7000B
:1001080008006908803AFF0081307F02031D8E28AD
:1001180000306802031CCE28223083160313E9003E
:100128000030EA00831203136508A0006608A100E6
:100138006708A2000030A3000030A4000030A5002A
:100148000A128A157C200A128A110318C528FF3062
:1001580083120313EC007F30ED007F30EE006C0853
:10016800A0006D08A1006E08A2000A128A11F420EE
:10017800831203132008E5002108E6002208E7009F
:100188000800FF3083120313E5007F30E6007F305C
:10019800E7000800831203136908EB006808EA0007
:1001A8006B0DEB0CEA0C67086A0680396A06E700F3
:1001B80068080139EA00EA0CEA0C66086A067F3921
:1001C8006A06E6000800831603130F168F160F172A
:1001D8000F14831603178901831603138712080067
:1001E8008312031322082104200403190800803015
:0401F800A206080053
:10020000FF0001308A007F08820705290A168A113B
:10021000BB2F0A128A110B2E0A128A15752C83160F
:100220000313340833043204031D1D290030B200C7
:100230008030B3003F30B4000800723083120313E3
:10024000A0003130A1004430A2008316031332080D
:1002500083120313A30083160313330883120313BB
:10026000A40083160313340883120313A5000A1293
:100270008A157C200A128A1103184B292230831612
:100280000313E9000030EA00FF30B2007F30B30012
:100290007F30B4000800831603133208831203135F
:1002A000A00083160313330883120313A1008316DF
:1002B0000313340883120313A2004930A3003A3019
:1002C000A400C430A5000A128A157C200A128A11E3
:1002D00003187729223083160313E9000030EA005F
:1002E0000030B2000030B3000030B40008008316C4
:1002F0000313320883120313A00083160313330879
:1003000083120313A100831603133408831203130B
:10031000A2000030A3000030A4000030A5000A12A3
:100320008A157C200A128A110030031C01308316C2
:100330000313B5003508BE003E080319C62932086C
:1003400083120313A00083160313330883120313CD
:10035000A10083160313340883120313A2000A12A8
:100360008A11F4200A128A118312031320088316BB
:100370000313B20083120313210883160313B3007F
:1003800083120313220883160313B400AA308312C6
:100390000313AE00B830AF003F30B0008316031334
:1003A000320883120313B100831603133308831238
:1003B0000313B20083160313340883120313B3002C
:1003C0000A128A1118270A128A11831203132E089F
:1003D00083160313B200831203132F08831603132B
:1003E000B30083120313300883160313B4003208DA
:1003F000AA003308AB003408AC000A128A150A269A
:100400000A128A11831603132A08B6002B08B700B4
:100410002C08B800360883120313E3008316031375
:10042000370883120313E40083160313380883127A
:100430000313E5000A128A15B3230A128A118312E4
:100440000313640883160313BD01BD07831203134E
:10045000630883160313BC01BC073D088312031312
:10046000A901A907831603133C0883120313A801EB
:10047000A8070A168A1164260A128A118312031326
:100480002808DB002908DC002A08DD008316031396
:10049000320883120313DE0083160313330883121A
:1004A0000313DF0083160313340883120313E000E1
:1004B0000A168A1148260A128A11831203135B084E
:1004C00083160313B200831203135C08831603130D
:1004D000B300831203135D0883160313B4003208BC
:1004E00083120313DB0083160313330883120313F1
:1004F000DC0083160313340883120313DD0001307C
:1005000083160313B500350883120313DE00093088
:10051000DF000030E0000A128A1545210A128A1114
:10052000831203135B08E5005C08E6005D08E70042
:10053000831603133D0883120313E901E9078316A9
:1005400003133C0883120313E801E8070A128A1117
:100550004E200A128A1183120313650883160313AF
:10056000B20083120313660883160313B3008312C9
:100570000313670883160313B4003E080319080029
:10058000FF30B9007F30BA007F30BB0034083B0633
:10059000031DD02A33083A06031DD02A3208390633
:1005A000031DD92A0030B2000030B3000030B4007F
:1005B0000800320883120313BE00831603133308A6
:1005C00083120313BF00831603133408831203132B
:1005D000C0000030C1008030C2003F30C3000A12AA
:1005E0008A153F22831203133E0883160313B200B9
:1005F000831203133F0883160313B30083120313FC
:10060000400883160313B400080083160313CC01BB
:10061000410840043F04031D3D2B003083120313A7
:10062000A0000030A1000030A2008316031342088E
:1006300083120313A30083160313430883120313C7
:10064000A40083160313440883120313A5000A129F
:100650008A157C200A128A11031C342B2130831640
:100660000313E9000030EA00003083160313BF00D3
:100670000030C0000030C1000800440843044204B8
:10068000031D492B0030BF008030C0003F30C10047
:1006900008003F0883120313A000831603134008C9
:1006A00083120313A100831603134108831203135B
:1006B000A2000030A3000030A4000030A5000A1200
:1006C0008A157C200A128A110318032C831603133F
:1006D000420883120313E3008316031343088312B3
:1006E0000313E40083160313440883120313E50085
:1006F0000A128A15B3230A128A1183120313660899
:1007000083160313D00083120313650883160313A3
:10071000CF0083120313640883160313CE008312E1
:100720000313630883160313CD00500883120313C9
:10073000AB00831603134F0883120313AA0083161A
:1007400003134E0883120313A900831603134D08E5
:1007500083120313A8000A168A1105270A128A11A8
:10076000831603134408831203132A06031DC62BA2
:10077000831603134308831203132906031DC62B94
:100780008316031342088312031328060319D52B7B
:10079000213083160313E9000030EA000030BF0067
:1007A0000030C0000030C1000800831603134D085C
:1007B0000139C5004508CC003F0883120313A0008F
:1007C00083160313400883120313A1008316031337
:1007D000410883120313A2000A128A11F4200A129C
:1007E0008A1183120313200883160313BF00831298
:1007F0000313210883160313C00083120313220876
:1008000083160313C100831603133F0883120313D7
:10081000E50083160313400883120313E6008316D2
:100820000313410883120313E7000A128A153A25BD
:100830000A128A1183120313650883160313C60074
:1008400083120313660883160313C700831203136E
:10085000670883160313C800420883120313AE000F
:1008600083160313430883120313AF008316031385
:10087000440883120313B00083160313460883123F
:100880000313B10083160313470883120313B20046
:1008900083160313480883120313B3000A128A1144
:1008A00018270A128A11831203132E0883160313C2
:1008B000C900831203132F0883160313CA0083127F
:1008C0000313300883160313CB004908B2004A080B
:1008D000B3004B08B4000A128A110F210A128A11C0
:1008E000831603133208BF003308C0003408C10068
:1008F0004C08031908003F0883120313A000831655
:100900000313400883120313A10083160313410845
:1009100083120313A2000A128A11F4208312031314
:10092000200883160313BF008312031321088316C4
:100930000313C00083120313220883160313C1009C
:10094000080083160313DE00FE2D0A128A15752493
:100950000A128A11831203135B08E3005C08E400A7
:100960005D08E5000A128A15B3230A128A11831260
:100970000313630883160313DD005D088316031752
:1009800091000A128A1575240A128A118312031320
:100990005B08E3005C08E4005D08E5000A128A15C4
:1009A000B32383120313640883160313DD005D0869
:1009B00083160317920008000A128A110B260A12E6
:1009C0008A11831603135108DF005208E000530810
:1009D000E1005F0883120313E3008316031360082A
:1009E00083120313E40083160313610883120313B5
:1009F000E5000A128A15B3230A128A11831203131F
:100A0000630883160313DD005D088316031799003E
:100A10000A128A110B260A128A118316031351082F
:100A2000DF005208E0005308E1005F08831203135F
:100A3000E30083160313600883120313E400831694
:100A40000313610883120313E5000A128A15B32306
:100A500083120313640883160313DD005D088316F5
:100A600003179A000800093083120313D1000030E5
:100A7000D2000A168A11BB270A128A1183120313A5
:100A80005108E3005208E4005308E5000A128A15F1
:100A9000B3230A128A118312031363088316031304
:100AA000DD005D08831603179300093083120313DA
:100AB000D1000030D2000A168A11BB270A128A110F
:100AC000831203135108E3005208E4005308E500C1
:100AD0000A128A15B3230A128A11831203136408B7
:100AE00083160313DD005D088316031794000B3093
:100AF00083120313D1000030D2000A168A11BB27DB
:100B00000A128A11831203135108E3005208E40009
:100B10005308E5000A128A15B3230A128A118312B8
:100B20000313630883160313DD005D0883160317A0
:100B300095000B3083120313D1000030D2000A1647
:100B40008A11BB270A128A11831203135108E3008A
:100B50005208E4005308E5000A128A15B3230A126A
:100B60008A1183120313640883160313DD005D08E2
:100B70008316031796000D3083120313D100003043
:100B8000D2000A168A11BB270A128A118312031394
:100B90005108E3005208E4005308E5000A128A15E0
:100BA000B3230A128A1183120313630883160313F3
:100BB000DD005D088316031797000D3083120313C1
:100BC000D1000030D2000A168A11BB270A128A11FE
:100BD000831203135108E3005208E4005308E500B0
:100BE0000A128A15B32383120313640883160313AE
:100BF000DD005D08831603179800080003135E08E4
:100C0000003A0319A52C013A0319DC2C033A031905
:100C1000332D0A2E080083120313A2010130A00015
:100C20000030A1000A128A15F7220A128A118312D3
:100C300003132108A901A9072008A801A8070A167B
:100C40008A1164260A128A11831203132808CE001F
:100C50002908CF002A08D0000A168A11D8260A12BD
:100C60008A11831203134E0883160313D4008312D0
:100C700003134F0883160313D50083120313500880
:100C800083160313D600003083120313AE008030A6
:100C9000AF00C030B000831603135408831203134F
:100CA000B10083160313550883120313B200831691
:100CB0000313560883120313B3000A128A1118276C
:100CC0000A128A11831203132E0883160313DA0003
:100CD000831203132F0883160313DB0083120313FD
:100CE000300883160313DC00003083120313CE0098
:100CF0002030CF004130D0001430BE000E30BF0095
:100D00004030C000831603135A0883120313C10036
:100D1000831603135B0883120313C20083160313A5
:100D20005C0883120313C3000A128A153F220A12B9
:100D30008A11831203133E08D1003F08D2004008F5
:100D4000D3000A128A15F7260A128A118312031396
:100D50004E0883160313DA00831203134F08831619
:100D60000313DB0083120313500883160313DC0004
:100D70005C085B045A040319042F5A0883120313F6
:100D8000BE00831603135B0883120313BF00831690
:100D900003135C0883120313C0000030C1007830D5
:100DA000C2004230C3000A128A153F220A128A1179
:100DB000831203133E0883160313D7008312031311
:100DC0003F0883160313D8008312031340088316C9
:100DD0000313D9005708BF005808C0005908C100C4
:100DE000CD30C2004C30C3003E30C4000A128A111C
:100DF00005230A128A11831603133F08DA004008FC
:100E0000DB004108DC00112F0713831203130717BF
:100E1000003083160313D1002030D200C130D3003C
:100E200008005A08D1005B08D2005C08D300080013
:100E3000831203132E08B4002F08B5003008B60043
:100E40000310350D360DB7003708B800B808031D7C
:100E5000302F0030AE000030AF000030B00008008E
:100E60003108B4003208B5003308B6000310350D60
:100E7000360DB7003708BD00BD08031D462F0030F2
:100E8000AE000030AF000030B00008003D087B3EEF
:100E9000B4003408B8072E08B4002F08B500300895
:100EA000B60010300310B60CB50CB40CFF3E031D99
:100EB000522F3408B7003708BD003108B40032089B
:100EC000B5003308B60010300310B60CB50CB40CE6
:100ED000FF3E031D642F3408B7003708BD0680307D
:100EE000B4003408BD05AF17B217FF30B105FF30AD
:100EF000B2050030B3050030B9000030BA00003050
:100F0000BB000730B4003408BC002E1C952F3108FC
:100F1000B907320803110318320A031DBA07330850
:100F200003110318330A031DBB0701300310B00C73
:100F3000AF0CAE0CFF3E031D962F01300310B10D18
:100F4000B20DB30DFF3E031D9E2F0130BC02031DE9
:100F5000852F0930B4003408BC002E1CBD2F310889
:100F6000B907320803110318320A031DBA07330800
:100F700003110318330A031DBB0701300310B00C23
:100F8000AF0CAE0CFF3E031DBE2F01300310BB0C97
:100F9000BA0CB90CFF3E031DC62F0130BC02031D65
:100FA000AD2F3908A0003A08A1003B08A20038087C
:100FB000B4003408A3003D08B5003508A4000A12A7
:100FC0008A15DB20831203132008AE002108AF002E
:100FD0002208B000080083120313A300A201231CFF
:100FE000F52F2008A1002108A2070310A00D03106F
:100FF000A30CA308031DEF2F2208080001340034BE
:10100200831603138715071694138312031394137D
:1010120014131410941414159411141694168316A0
:101022000313071487148312031307080139A0005E
:10103200070C0139A10021072004A2002207E03891
:1010420083160313930091138C15831203138C11CF
:10105200080083160313A9018E30A6002608A800F3
:1010620083120313EE1F4428EB09EC09ED09EE0984
:10107200EB0A0319EC0A0319ED0A0319EE0A8316A7
:101082000313A901A90AFF3083126E0503195A2816
:10109200013003108312EE0CED0CEC0CEB0CFF3E56
:1010A200031D4A28013083160313A6002608A80749
:1010B20044286B08A0006C08A1006D08A2008316EA
:1010C20003132808A600260883120313A30083161D
:1010D20003132908A700270883120313A4000A1286
:1010E2008A15DB20831203132008EB002108EC0091
:1010F2002208ED00080083120313A21FA528003066
:10110200A6000030A7008030A8002009A90021090C
:10111200AA002209AB00A90A0319AA0A0319AB0AF9
:101122002908A6072A0803182A0F98289928A7072A
:101132002B0803182B0F9E289F28A8072608A0001B
:101142002708A1002808A200A51FCC280030A6006D
:101152000030A7008030A8002309A9002409AA00B2
:101162002509AB00A90A0319AA0A0319AB0A29081F
:10117200A6072A0803182A0FBF28C028A7072B088A
:1011820003182B0FC528C628A8072608A30027087E
:10119200A4002808A5008030A2068030A5062508F4
:1011A2002202031D080024082102031D080023084F
:1011B200200208008312031323080319E5282208DA
:1011C20021042004031DF8280030A0000030A100F3
:1011D2000030A20008000130A5002508A307013055
:1011E2000310A20CA10CA00CFF3E031DF128FE303F
:1011F200220503191329EC280130A5002508A307AD
:101202000130A007003003180130A1070030031895
:101212000130A20701300310A20CA10CA00CFF3E6A
:10122200031D0C29FF30220503192229FD28013054
:10123200A30201300310A00DA10DA20DFF3E031D5C
:101242001B29A11F182923182C29FF30A0057F3044
:10125200A105FF30A2050310A30C2308A500A601D7
:10126200A70110300310A50DA60DA70DFF3E031D0B
:1012720033292508A0042608A1042708A20424086B
:1012820003190800A2170800033083120313E100B8
:101292006108A0005F080A128A11EB270A128A1558
:1012A200831203135E0784000A168A1100200A12B1
:1012B2008A15E2000A168A1100200A128A15E30032
:1012C2000A168A1100200A128A15E40060085F04D7
:1012D2000319B7290330E1006108A000FF30DF07DE
:1012E2000318E00AFF30E0075F080A128A11EB27B1
:1012F2000A128A15831203135E0784000A168A11E2
:1013020000200A128A15CE000A168A1100200A123B
:101312008A15CF000A168A1100200A128A15D000F7
:101322006208AE006308AF006408B0005B08B10059
:101332005C08B2005D08B3000A128A1118270A126B
:101342008A15831203132E08D1002F08D200300809
:10135200D3000A128A15F7260A128A15831203137A
:101362004E08E2004F08E300500866296208DB00DD
:101372006308DC006408DD00080083120313A20185
:101382000030A0000030A1000A128A15F7220A12CA
:101392008A15831203132108A901A9072008A801AD
:1013A200A8070A168A1164260A128A1583120313E1
:1013B2002808DB002908DC002A08DD000030CE0006
:1013C2002030CF00C030D000A2010230A000003097
:1013D200A1000A128A15F7220A128A158312031330
:1013E2002108A901A9072008A801A8070A168A113D
:1013F20064260A128A15831203132808D1002908C9
:10140200D2002A08D3000A128A15F7260A128A1570
:10141200831203134E08DE004F08DF005008E0007D
:1014220060085F045E040319382A5E08BE005F0884
:10143200BF006008C0005B08C1005C08C2005D0814
:10144200C3000A128A153F22831203133E08831631
:101452000313E600831203133F0883160313E70006
:1014620083120313400883160313E800080083164F
:1014720003130713831203130717080083120313BE
:101482004108C4004208C5004308C6000310450DC8
:10149200460DC7004708CC00CC08031D572A003070
:1014A200BE000030BF000030C00008003E08C4008B
:1014B2003F08C5004008C6000310450D460DC70091
:1014C2004708CD00CD08031D6D2A0030BE00003054
:1014D200BF000030C00008000030C9000030CA0060
:1014E2000030CB0089304D07C4004408CC024108CB
:1014F200C4004208C5004308C60010300310C60CE1
:10150200C50CC40CFF3E031D7F2A4408C7004708D0
:10151200CD003E08C4003F08C5004008C600103098
:101522000310C60CC50CC40CFF3E031D912A4408CF
:10153200C7004708CD068030C4004408CD05C21755
:10154200FF30C105FF30C2050030C305BF17FF30B1
:10155200BE05FF30BF050030C0051830C400440886
:10156200C80001300310C90DCA0DCB0DFF3E031D8B
:10157200B32A40084302031DC42A3F084202031D46
:10158200C42A3E084102031CD12A3E08C1023F0878
:10159200031C3F0FC2024008031C400AC302491445
:1015A20001300310C10DC20DC30DFF3E031DD22A2F
:1015B2000130C802031DB22A4908A0004A08A1004E
:1015C2004B08A2004C08C4004408A3004D08C50003
:1015D2004508A4000A128A15DB208312031320088F
:1015E200BE002108BF002208C000080083160317AE
:1015F2008801482B831603170814831203131F1143
:10160200082B831603178814831203131F159F11C7
:10161200182B831603170815831203131F11172B98
:10162200831603178815831203131F159F151F12A4
:10163200292B831603170816831203131F11222B5B
:101642001F159F11282B1F11272B1F159F151F16C2
:101652009F127B2B1F112E2B1F159F11342B1F1135
:10166200332B1F159F151F123B2B1F11392B1F15D3
:101672009F111F169F167B2B8316031307138312CA
:1016820003130717F530A000FF30A10008008312F2
:1016920003132108003A03194F2B3D2B2008003A6F
:1016A2000319FB2A013A0319022B033A03190A2BE5
:1016B200013A0319112B073A03191A2B013A03199C
:1016C200212B033A0319242B013A0319262B0F3A33
:1016D20003192B2B013A03192D2B033A0319302B33
:1016E200013A0319322B073A0319362B013A03192F
:1016F200382B3D2B2208013A031D832B831603133B
:101702009F13862B831603139F17831203131F172E
:101712009F17831603131F129F12831203131F14A2
:101722009F149F18922B2208013A031DA12B8316A6
:1017320003131E0883120313A401A4071E08A92B76
:101742001E08A401A407831603131E0883120313A1
:10175200A301A3071F102408A101A1072308A001C8
:10176200A0070800831203136308E7006408E80077
:101772006508E9000310680D690DEA006A0883161E
:101782000313A500A508031DD12B003083120313F8
:10179200E6000030E5000030E4000030E30008001D
:1017A20083126308E7006408E8006508E90017305F
:1017B2000310E90CE80CE70CFF3E031DD92B670868
:1017C200EA006A0883160313A00083120313E417C6
:1017D200FF30E305FF30E4050030E50563088316BA
:1017E2000313A10083120313640883160313A200D8
:1017F20083120313650883160313A300A4018E301A
:10180200A502A51F2A2C2508803A8F3E0318142C06
:10181200003083120313E6000030E5000030E400DC
:101822000030E30008000130031083160313A40CF8
:10183200A30CA20CA10CFF3E031D152C0130831238
:101842000313E700670883160313A5070319502C37
:10185200142C18302502031C4B2C00308312031366
:10186200E6000030E5000030E4000030E30008004C
:1018720001308312E700031083160313A10DA20D9A
:10188200A30DA40D83120313E70B3C2C0130831626
:101892000313A50283160313A508031D392C200880
:1018A20003195E2CA109A209A309A409A10A03191B
:1018B200A20A0319A30A0319A40A24088312031310
:1018C200E60083160313230883120313E50083162D
:1018D2000313220883120313E4008316031321085F
:1018E20083120313E3000800003083120313E000A5
:1018F2000030E1000030E200DE01DF015F08803AE3
:10190200FF0080307F02031D882C05305E02031821
:10191200CF2C831203136008CE006108CF00620847
:10192200D000A2010030A0000030A1000A128A15E6
:10193200F7220A128A15831203132108A901A907A3
:101942002008A801A8070A168A1164260A128A1515
:10195200831203132808D1002908D2002A08D300D1
:101962000A128A15F7260A128A15831203134E08E1
:10197200E0004F08E1005008E2000130DE070318E2
:10198200DF0A0030DF075F08803AFF0080307F0205
:10199200031DCD2C05305E02031C8A2C00308312FD
:1019A2000313BE00A030BF004030C0006008C10079
:1019B2006108C2006208C3000A128A153F220A1295
:1019C2008A15831203133E08E0003F08E100400835
:1019D200E2006008CE006108CF006208D0000A165B
:1019E2008A11D8260A128A15831203134E08E000C0
:1019F2004F08E1005008E2003330CE00B930CF008A
:101A0200C130D0006008AE006108AF006208B000CB
:101A120083160313660883120313B100831603139C
:101A2200670883120313B200831603136808831234
:101A32000313B3000A128A1118270A128A15831295
:101A420003132E08D1002F08D2003008D3000A1247
:101A52008A15F726831203134E08E0004F08E100AF
:101A62005008E2006008DB006108DC006208DD006B
:101A72000800831203136508A0006608A100670826
:101A8200A2000030A3000030A4000030A5000A121A
:101A92008A157C200A128A1503185E2D21308316BE
:101AA2000313E9000030EA00003083120313E5005B
:101AB2000030E6000030E7000800831203136708D5
:101AC20066046504031D742D223083160313E90096
:101AD2000030EA00003083120313E5000030E60014
:101AE2000030E70008000030CE008030CF00BF3069
:101AF200D0000030AE000030AF004030B00069309E
:101B0200E8006808A3006508A0006608A10067084D
:101B1200A2000A168A1134270A128A1583120313A5
:101B22002008B1002108B2002208B3000A128A116B
:101B320018270A128A15831203132E08D1002F08C0
:101B4200D2003008D3000A128A15F7260A128A1523
:101B5200831203134E08E5004F08E6005008E70021
:101B6200FF30E9070318EA0AFF30EA076508DB00DD
:101B72006608DC006708DD001F30E8006808DE0048
:101B82000830DF000030E0000A128A1545210A12EF
:101B92008A15831203135B08E5005C08E6005D0802
:101BA200E7006508CE006608CF006708D0007230F3
:101BB200AE003130AF003F30B0006A08A901A9077A
:101BC2006908A801A8070A168A1164260A128A154A
:101BD200831203132808B1002908B2002A08B300AF
:101BE2000A128A1118270A128A15831203132E0861
:101BF200D1002F08D2003008D3000A128A15F72626
:101C0200831203134E08E5004F08E6005008E70070
:101C12000800831603132A0883120313A0008316F5
:101C220003132B0883120313A100831603132C083A
:101C320083120313A200B030EF006F08A3000A164C
:101C42008A1134270A128A1583160313B11F582EDC
:101C52002A0883120313A000831603132B0883128E
:101C62000313A100831603132C0883120313A2008B
:101C72000030A3000030A4000030A5000A128A152B
:101C82007C200A128A1503184F2E00308316031384
:101C9200AA008030AB00BF30AC00080000308316D1
:101CA2000313AA000030AB000030AC000800003083
:101CB2003102153003193002031808002A08831272
:101CC2000313E300831603132B0883120313E400A8
:101CD200831603132C0883120313E5000A128A15D4
:101CE200B3230A128A15831203136608EE006508ED
:101CF200ED006408EC006308EB000A128A152A2042
:101D02000A128A15831203136B0883160313AD009C
:101D1200831203136C0883160313AE00831203139A
:101D22006D0883160313AF002A0883120313A00061
:101D3200831603132B0883120313A10083160313C4
:101D42002C0883120313A200831603132D08831297
:101D52000313A300831603132E0883120313A40094
:101D6200831603132F0883120313A5000A128A1580
:101D72007C200A128A150318EE2E003083120313F8
:101D8200CE008030CF00BF30D000831603132D0861
:101D920083120313D100831603132E088312031335
:101DA200D200831603132F0883120313D3000A12DF
:101DB2008A15F726831203134E0883160313AA000B
:101DC200831203134F0883160313AB00831203130A
:101DD200500883160313AC000800831603132D0862
:101DE200AA002E08AB002F08AC00080083120313D0
:101DF2004E08D4004F08D5005008D6000310550DE8
:101E0200560DD7005708DA005108D4005208D50001
:101E12005308D6000310550D560DD7005708D900A8
:101E22005A080319202F59085A020318272F5A0358
:101E3200FF3A5907D40019305402031C272F5108C6
:101E4200CE005208CF005308D000080059080319E9
:101E520008005A0859020318362F5903FF3A5A0745
:101E6200D40019305402031808000630D400540874
:101E7200D800D01BD817D31B5817CF17FF30CE0569
:101E8200FF30CF050030D005D217FF30D105FF302B
:101E9200D2050030D30559085A020318762F0130B3
:101EA2000310D10DD20DD30DFF3E031D512F013072
:101EB200D90259085A060319712F0130D80258085D
:101EC20007390319712F502F01300310D00CCF0C9A
:101ED200CE0CFF3E031D662F0130D4005408DA07F2
:101EE2005A08590603199F2F652F5A0859020318D9
:101EF2009F2F01300310CE0DCF0DD00DFF3E031DDD
:101F02007B2F0130DA0259085A0603199B2F013040
:101F1200D8025808073903199B2F7A2F0130031072
:101F2200D30CD20CD10CFF3E031D902F0130D400F4
:101F32005408D9075A085906031D8F2FD81FB12FED
:101F4200FF30CE06FF30CF06FF30D0060130CE077D
:101F5200003003180130CF07003003180130D007DA
:101F6200581FC32FFF30D106FF30D206FF30D306F1
:101F72000130D107003003180130D20700300318B6
:101F82000130D307D8014E08D1074F0803110318B7
:101F92004F0A031DD207500803110318500A031DEC
:101FA200D307D31FE62FFF30D106FF30D206FF3012
:101FB200D3060130D107003003180130D2070030B8
:101FC20003180130D307D801D80A5108A0005208DB
:101FD200A1005308A2005A08D4005408A3005808CC
:101FE200D5005508A4000A128A15DB2083120313B8
:101FF2002008CE002108CF002208D00008001030AF
:102002008A000408840A82070034003480343F3492
:10201200723431343F34FE3475343E3458346334D0
:102022003D3495341D343C34C534AE343A347934BD
:10203200213439349434803437349334A7343534EA
:1020420056341534343400340034003400348034CF
:102052003F34F034FF34BE34E234A9343E348334A6
:102062007634BE34AE342B343E343C34C334BD34C7
:0C207200D23413343D347834D334BB3402
:102C8A00743491344134803083120313DD065E08B4
:102C9A00CE005F08CF006008D0005B08D1005C0856
:102CAA00D2005D08D3000A128A15F726831203138D
:102CBA004E08DB004F08DC005008DD0008008312D4
:102CCA000313AD01A91F702EA809A909A80A03199F
:102CDA00A90AAD01AD0A2808A0002908A100A2018D
:102CEA008E30AB002B08A3002D08AC002C08A400E2
:102CFA000A128A15DB20831203132008A800210870
:102D0A00A9002208AA00080001307A067B04031DE4
:102D1A009D2E831203131308F000700883160317FD
:102D2A0090000130FA070318FB0A0030FB0708007D
:102D3A00831203131308F000831603171008903E3A
:102D4A0084007008831780000130FA070318FB0A11
:102D5A000030FB0708000A128A11E7200A168A11B6
:102D6A000A128A1501200A168A110A128A15BE2128
:102D7A000A168A11831603138712831203138716FE
:102D8A0000300A128A11A1240A168A1101300A1285
:102D9A008A11A1240A168A1102300A128A11A12460
:102DAA000A168A11C22EC03083120313BE007F3066
:102DBA00BF004430C0000030AE00A030AF00403049
:102DCA00B0004E08B1004F08B2005008B3000A1212
:102DDA008A1118270A168A11831203132E08C100B2
:102DEA002F08C2003008C3000A128A153F22831234
:102DFA0003133E08CE003F08CF004008D000080069
:102E0A008E3083120313AC002C08AD00FF302B0563
:102E1A0003191D2F01300310AB0CAA0CA90CA80C26
:102E2A00FF3E031D102F0130AC002C08AD070B2FFD
:102E3A002808A0002908A1002A08A2002D08AC0031
:102E4A002C08A300A4010A128A15DB20831203139B
:102E5A002008A8002108A9002208AA000800831255
:102E6A000313220821042004031D482F2308840089
:102E7A0083138001840A80010030A0000030A10081
:102E8A000030A200080022087F39A400A50103101F
:102E9A00A40DA50D23088400240883138000840A46
:102EAA0025088000210D210D0139A400A501230860
:102EBA00840024088004840A2508800423088400E6
:102ECA0082308007840F00080318000AFF00FF30D1
:102EDA007F0780008403220880393F38A200A113AB
:102EEA0008008C1DAD2F871283160313941E141924
:102EFA00872F141C872F831203131308F1007108FC
:102F0A00F800AD2F941A1419922F141C922F0A1636
:102F1A008A1189260A168A11AD2F941E141D972F1D
:102F2A00141C9C2F941A141DA42F1418A42F831652
:102F3A00031711088312031393001416AD2F941A62
:102F4A001419AD2F1418AD2F0130FA000030FB0010
:102F5A00831203138C117508FF0074088A00730822
:102F6A008400720E8300FE0E7E0E09000930831261
:102F7A000313510652040319CC2F0B305106520485
:102F8A000319CC2F0D3051065204031DF92FA2014B
:102F9A005208A101A1075108A001A0070A128A1527
:102FAA00F7220A168A11831203132108A901A90715
:102FBA002008A801A8070A168A1164260A168A1187
:102FCA00831203132808CE002908CF002A08D0004C
:102FDA000A168A11D826831203134E08D1004F0805
:102FEA00D2005008D30008000030D1003030D2009F
:062FFA00C130D300080005
:04400E00E6EFFFFFDB
:00000001FF
