:0400000058EF00F0C5
:10000800FACF15F0FBCF16F0E9CF17F0EACF18F0CA
:10001800E1CF19F0E2CF1AF0D9CF1BF0DACF1CF0FC
:10002800F3CF1DF0F4CF1EF0F6CF1FF0F7CF20F07E
:10003800F8CF21F0F5CF22F0F2A004D08150815002
:100048008150F290F0A013D021EC83F000EC80F006
:1000580001C012F002C013F004EC82F0C30E146E5B
:10006800CD0EE82EFED7142EFCD700F0F09022C05B
:10007800F5FF21C0F8FF20C0F7FF1FC0F6FF1EC024
:10008800F4FF1DC0F3FF1CC0DAFF1BC0D9FF1AC064
:10009800E2FF19C0E1FF18C0EAFF17C0E9FF16C068
:0C00A800FBFF15C0FAFF110014EF83F0FD
:10FE5C0000010000000A00000064000000E803003C
:10FE6C000010270000A086010040420F00809698E9
:10FE7C000000E1F50500CA9A3B00803FCDCC3DD790
:10FE8C00233C12833AB7D138C62737388635C0D6CB
:10FE9C0033CC2B32708930E7DB2EE53C1E42A20DB1
:10FEAC0000803F00204100C842007A44401C46506C
:10FEBC00C34724744997184BBCBE4C6B6E4E03154C
:10FECC005079AD60F349715465737420416E746957
:10FEDC00636C6F636B77697365200044697374613D
:10FEEC006E63653A205B636D2F75535D0020202097
:10FEFC002020706173736564202020202000202056
:10FF0C0020202074657374696E67202020200020E7
:10FF1C002020204D61696E7461696E2020202000C4
:10FF2C002020204D6F746F72205445535420202094
:10FF3C00002020204D6F746F72206D6F766520202D
:10FF4C0020002020416363656C65726174696E6783
:10FF5C002020002020446563656C65726174696EB5
:10FF6C006720200020466F72776172642073706581
:10FF7C0065643A20007475726E207269676874202B
:10FF8C007370656564005465737420436C6F636BA8
:10FF9C007769736520007475726E206C65667420C9
:10FFAC0073706565640041636C6D74722076616C6E
:10FFBC007565733A0053696E676820426520526F0D
:10FFCC0073610074656D703A2025312E3366006CB8
:10FFDC00696768743A20256400526F626572696EB5
:10FFEC006F0025312E32660025332E336600253006
:04FFFC003564000068
:020000040001F9
:1000000020EE30F010EE04F0080EDECFE6FFE82E12
:10001000FCD7270E036EF50EE82EFED7032EFCD775
:1000200000F0270E036EF50EE82EFED7032EFCD748
:1000300000F08C9C8C9A8C9E000E0D6E000E0C6E47
:100040000D50800A800F080ED8B40C5CD8B00BD0CD
:100050008C8A640EE82EFED78C9A640EE82EFED7AA
:100060000C4A0D2AEDD78C8E640EE82EFED78C9E9E
:10007000640EE82EFED7000E116E000E106E1150A9
:10008000800A800F080ED8B4105CD8B02ED0115062
:100090001010D8A402D08C8C01D08C9C8C8A640E59
:1000A000E82EFED78C9A640EE82EFED78C8E270E93
:1000B000036EF50EE82EFED7032EFCD700F08C9EC3
:1000C00082BE08D0040E1024D96E000E1120DA6E04
:1000D0004C0E07D0040E1024D96E000E1120DA6EDB
:1000E000480EDF6E104A112ACAD78C8C000E0F6E94
:1000F000000E0E6E0F50800A800F080ED8B40E5CF2
:10010000D8B00BD08C8A640EE82EFED78C9A640E81
:10011000E82EFED70E4A0F2AEDD78C8E640EE82EFD
:10012000FED78C9E640EE82EFED782BEFED7000E50
:10013000026E040E016E120095909592959495961C
:1001400096908D9096928D923B0E0001626F700E8C
:10015000E82EFED7622FFCD78D90030EB8EC82F00C
:10016000000E00010001646F000E0001636F0001CA
:1001700000016451800A800F640ED8B4635DD8B06A
:1001800008D0290EE82EFED700010001634B642B36
:10019000EED7030EB8EC82F0000E00010001666F8E
:1001A000000E0001656F000100016651800A800F9A
:1001B0000A0ED8B4655DD8B008D00C0EE82EFED774
:1001C00000010001654B662BEED7030EB8EC82F000
:1001D000000E00010001686F000E0001676F000152
:1001E00000016851800A800F0A0ED8B4675DD8B04C
:1001F00008D00C0EE82EFED700010001674B682BDB
:10020000EED7020EB8EC82F0000E000100016A6F1A
:10021000000E0001696F000100016A51800A800F21
:100220000A0ED8B4695DD8B008D00C0EE82EFED7FF
:1002300000010001694B6A2BEED7280E74EC82F0A6
:10024000010E74EC82F0060E74EC82F00C0E74EC6D
:1002500082F09EEC81F01200000E2E6E000E2D6ECC
:100260002E50800A800F100ED8B42D5CD8B015D057
:100270002C6E000E296E2C502D5052EC82F02D0E5B
:1002800000EC83F04E0E2C6EEB0EE82EFED72C2EDB
:10029000FCD700F02D4A2E2AE3D7000E2E6E000E5A
:1002A0002D6E2E50800A800F100ED8B42D5CD8B061
:1002B00021D02C6E000E296E2C502D5052EC82F065
:1002C000200E00EC83F02C6E010E296E2C502D5068
:1002D0000008100F52EC82F02D0E00EC83F04E0E51
:1002E0002C6EEB0EE82EFED72C2EFCD700F02D4AFC
:1002F0002E2AD7D7000E2E6E000E2D6E2E50800A9D
:10030000800F100ED8B42D5CD8B015D02C6E010E15
:10031000296E2C502D5052EC82F0200E00EC83F010
:100320004E0E2C6EEB0EE82EFED72C2EFCD700F0D6
:100330002D4A2E2AE3D71DEC83F012002F6E000EFB
:10034000296E2F50000E52EC82F0FF0E276EE50E44
:10035000266ED9EC81F02F6E010E296E2F50000E03
:1003600052EC82F0FF0E276EC10E266ED9EC81F0A2
:10037000000E00010001616F000E0001606F0001BE
:1003800000016151800A800F640ED8B4605DD8B05E
:100390000DD0C30E2F6ECD0EE82EFED72F2EFCD71C
:1003A00000F000010001604B612BE9D72CEC81F0DB
:1003B000120015D026C0F6FF27C0F7FF000EF86E1A
:1003C0000E0EF76403D00800F55005D0F6CFE9FF14
:1003D000F7CFEAFFEF5000EC83F0264A272A26C029
:1003E000F6FF27C0F7FF000EF86E0E0EF76403D07D
:1003F0000800F55005D0F6CFE9FFF7CFEAFFEF5040
:100400000009D8B41200D6D715D012C0F6FF13C019
:10041000F7FF000EF86E0E0EF76403D00800F550DB
:1004200005D0F6CFE9FFF7CFEAFFEF500AEC83F0F3
:10043000124A132A12C0F6FF13C0F7FF000EF86E1F
:100440000E0EF76403D00800F55005D0F6CFE9FF93
:10045000F7CFEAFFEF500009D8B41200D6D7000E4C
:10046000956E92689468550EA76EAA0EA76E0E013F
:100470000E01BF91120E0E010E01E16F550EA76E17
:10048000AA0EA76E0E010E01BF81F18AF086F28ED0
:100490000F010F0148690F0E0F010F0149139CEC6A
:1004A00080F0FFD7E8CF2BF00DD02BC02AF017D06B
:1004B0002B50400F05D02B50140F02D02B50540F4F
:1004C0002A6E0DD02950000AD8B4EFD7010AD8B44B
:1004D000EFD7030AD8B4EFD7010AD8B4EFD72A8EE2
:1004E0002A5074EC82F01200E8CF26F08D9026504E
:1004F000EAEC82F026C025F0FC0E2516D8A412D016
:10050000000E286E000E276E2850800A800F640EA1
:10051000D8B4275CD8B01200100EE82EFED7274AB8
:10052000282AF2D72B0EE82EFED71200E8CF04F0CF
:100530008D900450F5EC82F004C003F0FC0E03161D
:10054000D8A412D0000E066E000E056E0650800A6A
:10055000800F640ED8B4055CD8B01200100EE82EDF
:10056000FED7054A062AF2D72B0EE82EFED7120038
:10057000E8CF23F08D8223A002D08C8001D08C9014
:1005800023A202D08C8201D08C9223A402D08C842E
:1005900001D08C9423A602D08C8601D08C968D92AB
:1005A0001200E8CF01F08D8201A002D08C8001D032
:1005B0008C9001A202D08C8201D08C9201A402D036
:1005C0008C8401D08C9401A602D08C8601D08C96AC
:1005D0008D921200E8CF24F024380F0BB8EC82F093
:1005E00024500F0BB8EC82F01200E8CF02F0023872
:1005F0000F0BD1EC82F002500F0BD1EC82F0120005
:10060000E8CF25F08D802550EAEC82F02B0EE82E05
:10061000FED71200E8CF03F08D800350F5EC82F096
:100620002B0EE82EFED7120000EE30F00E0EEE6A12
:10063000E806FDE100012FEF82F0010E74EC82F07C
:0A0640001200010E96EC82F0120089
:08FFF8009EF7DCFFF7F8FFFBA8
:00000001FF
